{
  "contractName": "CrowdSale",
  "abi": [
    {
      "inputs": [
        {
          "internalType": "contract IERC20",
          "name": "_tokenInstance",
          "type": "address"
        }
      ],
      "stateMutability": "nonpayable",
      "type": "constructor"
    },
    {
      "anonymous": false,
      "inputs": [
        {
          "indexed": true,
          "internalType": "address",
          "name": "previousOwner",
          "type": "address"
        },
        {
          "indexed": true,
          "internalType": "address",
          "name": "newOwner",
          "type": "address"
        }
      ],
      "name": "OwnershipTransferred",
      "type": "event"
    },
    {
      "inputs": [],
      "name": "croHardcap",
      "outputs": [
        {
          "internalType": "uint256",
          "name": "",
          "type": "uint256"
        }
      ],
      "stateMutability": "view",
      "type": "function",
      "constant": true
    },
    {
      "inputs": [],
      "name": "croRaised",
      "outputs": [
        {
          "internalType": "uint256",
          "name": "",
          "type": "uint256"
        }
      ],
      "stateMutability": "view",
      "type": "function",
      "constant": true
    },
    {
      "inputs": [],
      "name": "devFeeFundReceiver",
      "outputs": [
        {
          "internalType": "address",
          "name": "",
          "type": "address"
        }
      ],
      "stateMutability": "view",
      "type": "function",
      "constant": true
    },
    {
      "inputs": [],
      "name": "devPercent",
      "outputs": [
        {
          "internalType": "uint256",
          "name": "",
          "type": "uint256"
        }
      ],
      "stateMutability": "view",
      "type": "function",
      "constant": true
    },
    {
      "inputs": [],
      "name": "endTime",
      "outputs": [
        {
          "internalType": "uint256",
          "name": "",
          "type": "uint256"
        }
      ],
      "stateMutability": "view",
      "type": "function",
      "constant": true
    },
    {
      "inputs": [],
      "name": "hasMaxMinAlloc",
      "outputs": [
        {
          "internalType": "bool",
          "name": "",
          "type": "bool"
        }
      ],
      "stateMutability": "view",
      "type": "function",
      "constant": true
    },
    {
      "inputs": [],
      "name": "isPresaleStop",
      "outputs": [
        {
          "internalType": "bool",
          "name": "",
          "type": "bool"
        }
      ],
      "stateMutability": "view",
      "type": "function",
      "constant": true
    },
    {
      "inputs": [],
      "name": "labFeeFundReceiver",
      "outputs": [
        {
          "internalType": "address",
          "name": "",
          "type": "address"
        }
      ],
      "stateMutability": "view",
      "type": "function",
      "constant": true
    },
    {
      "inputs": [],
      "name": "labPercent",
      "outputs": [
        {
          "internalType": "uint256",
          "name": "",
          "type": "uint256"
        }
      ],
      "stateMutability": "view",
      "type": "function",
      "constant": true
    },
    {
      "inputs": [],
      "name": "maxAlloc",
      "outputs": [
        {
          "internalType": "uint256",
          "name": "",
          "type": "uint256"
        }
      ],
      "stateMutability": "view",
      "type": "function",
      "constant": true
    },
    {
      "inputs": [],
      "name": "minAlloc",
      "outputs": [
        {
          "internalType": "uint256",
          "name": "",
          "type": "uint256"
        }
      ],
      "stateMutability": "view",
      "type": "function",
      "constant": true
    },
    {
      "inputs": [],
      "name": "owner",
      "outputs": [
        {
          "internalType": "address",
          "name": "",
          "type": "address"
        }
      ],
      "stateMutability": "view",
      "type": "function",
      "constant": true
    },
    {
      "inputs": [],
      "name": "ownerFundReceiver",
      "outputs": [
        {
          "internalType": "address",
          "name": "",
          "type": "address"
        }
      ],
      "stateMutability": "view",
      "type": "function",
      "constant": true
    },
    {
      "inputs": [],
      "name": "ownerPercent",
      "outputs": [
        {
          "internalType": "uint256",
          "name": "",
          "type": "uint256"
        }
      ],
      "stateMutability": "view",
      "type": "function",
      "constant": true
    },
    {
      "inputs": [
        {
          "internalType": "address",
          "name": "",
          "type": "address"
        }
      ],
      "name": "presaleParticipation",
      "outputs": [
        {
          "internalType": "uint256",
          "name": "",
          "type": "uint256"
        }
      ],
      "stateMutability": "view",
      "type": "function",
      "constant": true
    },
    {
      "inputs": [],
      "name": "renounceOwnership",
      "outputs": [],
      "stateMutability": "nonpayable",
      "type": "function"
    },
    {
      "inputs": [],
      "name": "soldTokens",
      "outputs": [
        {
          "internalType": "uint256",
          "name": "",
          "type": "uint256"
        }
      ],
      "stateMutability": "view",
      "type": "function",
      "constant": true
    },
    {
      "inputs": [],
      "name": "startTime",
      "outputs": [
        {
          "internalType": "uint256",
          "name": "",
          "type": "uint256"
        }
      ],
      "stateMutability": "view",
      "type": "function",
      "constant": true
    },
    {
      "inputs": [],
      "name": "tokenHardcap",
      "outputs": [
        {
          "internalType": "uint256",
          "name": "",
          "type": "uint256"
        }
      ],
      "stateMutability": "view",
      "type": "function",
      "constant": true
    },
    {
      "inputs": [],
      "name": "tokenInstance",
      "outputs": [
        {
          "internalType": "contract IERC20",
          "name": "",
          "type": "address"
        }
      ],
      "stateMutability": "view",
      "type": "function",
      "constant": true
    },
    {
      "inputs": [
        {
          "internalType": "address",
          "name": "newOwner",
          "type": "address"
        }
      ],
      "name": "transferOwnership",
      "outputs": [],
      "stateMutability": "nonpayable",
      "type": "function"
    },
    {
      "inputs": [],
      "name": "checkPresaleDuration",
      "outputs": [],
      "stateMutability": "nonpayable",
      "type": "function"
    },
    {
      "inputs": [],
      "name": "presaleBuy",
      "outputs": [],
      "stateMutability": "payable",
      "type": "function",
      "payable": true
    },
    {
      "inputs": [],
      "name": "sendToContract",
      "outputs": [],
      "stateMutability": "payable",
      "type": "function",
      "payable": true
    },
    {
      "inputs": [],
      "name": "distributeCRO",
      "outputs": [],
      "stateMutability": "payable",
      "type": "function",
      "payable": true
    },
    {
      "inputs": [],
      "name": "claimPresale",
      "outputs": [],
      "stateMutability": "nonpayable",
      "type": "function"
    },
    {
      "inputs": [
        {
          "internalType": "contract IERC20",
          "name": "_tokenInstance",
          "type": "address"
        }
      ],
      "name": "changeTokenInstance",
      "outputs": [],
      "stateMutability": "nonpayable",
      "type": "function"
    },
    {
      "inputs": [
        {
          "internalType": "bool",
          "name": "_hasMaxMinAlloc",
          "type": "bool"
        }
      ],
      "name": "changeHasMaxMinAlloc",
      "outputs": [],
      "stateMutability": "nonpayable",
      "type": "function"
    },
    {
      "inputs": [
        {
          "internalType": "uint256",
          "name": "_maxAlloc",
          "type": "uint256"
        }
      ],
      "name": "changeMaxAlloc",
      "outputs": [],
      "stateMutability": "nonpayable",
      "type": "function"
    },
    {
      "inputs": [
        {
          "internalType": "uint256",
          "name": "_minAlloc",
          "type": "uint256"
        }
      ],
      "name": "changeMinAlloc",
      "outputs": [],
      "stateMutability": "nonpayable",
      "type": "function"
    },
    {
      "inputs": [
        {
          "internalType": "uint256",
          "name": "_startTime",
          "type": "uint256"
        }
      ],
      "name": "changeStartTime",
      "outputs": [],
      "stateMutability": "nonpayable",
      "type": "function"
    },
    {
      "inputs": [
        {
          "internalType": "uint256",
          "name": "_endTime",
          "type": "uint256"
        }
      ],
      "name": "changeEndTime",
      "outputs": [],
      "stateMutability": "nonpayable",
      "type": "function"
    },
    {
      "inputs": [
        {
          "internalType": "address",
          "name": "_ownerFundReceiver",
          "type": "address"
        }
      ],
      "name": "changeOwnerFeeFundReceiver",
      "outputs": [],
      "stateMutability": "nonpayable",
      "type": "function"
    },
    {
      "inputs": [
        {
          "internalType": "address",
          "name": "_labFeeFundReceiver",
          "type": "address"
        }
      ],
      "name": "changeLabFeeFundReceiver",
      "outputs": [],
      "stateMutability": "nonpayable",
      "type": "function"
    },
    {
      "inputs": [
        {
          "internalType": "address",
          "name": "_ownerFundReceiver",
          "type": "address"
        }
      ],
      "name": "changeDevFeeFundReceiver",
      "outputs": [],
      "stateMutability": "nonpayable",
      "type": "function"
    },
    {
      "inputs": [
        {
          "internalType": "uint256",
          "name": "_ownerPercent",
          "type": "uint256"
        }
      ],
      "name": "changeOwnerPercent",
      "outputs": [],
      "stateMutability": "nonpayable",
      "type": "function"
    },
    {
      "inputs": [
        {
          "internalType": "uint256",
          "name": "_labPercent",
          "type": "uint256"
        }
      ],
      "name": "changeLabPercent",
      "outputs": [],
      "stateMutability": "nonpayable",
      "type": "function"
    },
    {
      "inputs": [
        {
          "internalType": "uint256",
          "name": "_devPercent",
          "type": "uint256"
        }
      ],
      "name": "changeDevPercent",
      "outputs": [],
      "stateMutability": "nonpayable",
      "type": "function"
    },
    {
      "inputs": [
        {
          "internalType": "uint256",
          "name": "_tokenHardcap",
          "type": "uint256"
        }
      ],
      "name": "changeTokenHardcap",
      "outputs": [],
      "stateMutability": "nonpayable",
      "type": "function"
    },
    {
      "inputs": [
        {
          "internalType": "uint256",
          "name": "_croHardcap",
          "type": "uint256"
        }
      ],
      "name": "changeCroHardcap",
      "outputs": [],
      "stateMutability": "nonpayable",
      "type": "function"
    },
    {
      "inputs": [],
      "name": "getTokenInstanceBalance",
      "outputs": [
        {
          "internalType": "uint256",
          "name": "",
          "type": "uint256"
        }
      ],
      "stateMutability": "view",
      "type": "function",
      "constant": true
    },
    {
      "inputs": [],
      "name": "getContractBalance",
      "outputs": [
        {
          "internalType": "uint256",
          "name": "",
          "type": "uint256"
        }
      ],
      "stateMutability": "view",
      "type": "function",
      "constant": true
    },
    {
      "inputs": [],
      "name": "getIsPresaleStop",
      "outputs": [
        {
          "internalType": "bool",
          "name": "",
          "type": "bool"
        }
      ],
      "stateMutability": "view",
      "type": "function",
      "constant": true
    }
  ],
  "bytecode": "0x60806040523480156200001157600080fd5b5060405162002eb938038062002eb98339818101604052810190620000379190620003cd565b620000696200005462000283640100000000026401000000009004565b6200028b640100000000026401000000009004565b6001808190555068056bc75e2d63100000600a81905550678ac7230489e800006009819055506000600b819055506000600c819055506001600f60006101000a81548160ff021916908315150217905550670de0b6b3a76400006010819055506706f05b59d3b200006011819055506000601260006101000a81548160ff02191690831515021790555080600260006101000a81548173ffffffffffffffffffffffffffffffffffffffff021916908373ffffffffffffffffffffffffffffffffffffffff1602179055506362631750600d81905550636263187c600e819055506001601260006101000a81548160ff021916908315150217905550605f60068190555060036007819055506002600881905550733ba8e70a107491864d783abc6d3767be3884ce84600360006101000a81548173ffffffffffffffffffffffffffffffffffffffff021916908373ffffffffffffffffffffffffffffffffffffffff160217905550733ba8e70a107491864d783abc6d3767be3884ce84600460006101000a81548173ffffffffffffffffffffffffffffffffffffffff021916908373ffffffffffffffffffffffffffffffffffffffff160217905550733ba8e70a107491864d783abc6d3767be3884ce84600560006101000a81548173ffffffffffffffffffffffffffffffffffffffff021916908373ffffffffffffffffffffffffffffffffffffffff16021790555050620003ff565b600033905090565b60008060009054906101000a900473ffffffffffffffffffffffffffffffffffffffff169050816000806101000a81548173ffffffffffffffffffffffffffffffffffffffff021916908373ffffffffffffffffffffffffffffffffffffffff1602179055508173ffffffffffffffffffffffffffffffffffffffff168173ffffffffffffffffffffffffffffffffffffffff167f8be0079c531659141344cd1fd0a4f28419497f9722a3daafe3b4186f6b6457e060405160405180910390a35050565b600080fd5b600073ffffffffffffffffffffffffffffffffffffffff82169050919050565b6000620003818262000354565b9050919050565b6000620003958262000374565b9050919050565b620003a78162000388565b8114620003b357600080fd5b50565b600081519050620003c7816200039c565b92915050565b600060208284031215620003e657620003e56200034f565b5b6000620003f684828501620003b6565b91505092915050565b612aaa806200040f6000396000f3fe608060405260043610610279576000357c0100000000000000000000000000000000000000000000000000000000900480635ed9ebfc1161016157806395d12000116100d3578063c3746b1c11610097578063c3746b1c1461080e578063cffd211014610839578063f1268df614610862578063f2fde38b1461088d578063fc2a5932146108b6578063fc3c28af146108e157610279565b806395d120001461075a5780639d17910f14610785578063af2a6bfb146107b0578063b022f1d3146107db578063bbd32b1a146107e557610279565b806371ba242a1161012557806371ba242a1461065c57806378e979251461068757806378f6bb19146106b25780638aa5b2c3146106db5780638da5cb5b146107045780638fe5add71461072f57610279565b80635ed9ebfc1461059b578063658030b3146105c65780636652c855146105f15780636f9fb98a1461061a578063715018a61461064557610279565b80631e2f9a11116101fa5780633197cbb6116101be5780633197cbb6146104b15780633a629672146104dc5780633f242990146104f35780635abd86ad1461051e5780635cb06a6c146105475780635d2a38fa1461057057610279565b80631e2f9a11146103ef5780632712d40b1461042c57806327ed4c5f146104365780632ae8f0e61461045f5780633052b75e1461048857610279565b806314c8d0001161024157806314c8d0001461031c57806315626c7e1461034757806318b9ccd21461037257806318bbe4631461039b5780631a95b63f146103c657610279565b8063046ef9a51461027e5780630a4c137c146102955780630c3352bd1461029f5780630c99d42a146102ca5780630e70af24146102f3575b600080fd5b34801561028a57600080fd5b5061029361090c565b005b61029d610d01565b005b3480156102ab57600080fd5b506102b4610d03565b6040516102c19190612095565b60405180910390f35b3480156102d657600080fd5b506102f160048036038101906102ec91906120f3565b610d29565b005b3480156102ff57600080fd5b5061031a60048036038101906103159190612156565b610de9565b005b34801561032857600080fd5b50610331610e6f565b60405161033e9190612192565b60405180910390f35b34801561035357600080fd5b5061035c610e75565b6040516103699190612192565b60405180910390f35b34801561037e57600080fd5b5061039960048036038101906103949190612156565b610e7b565b005b3480156103a757600080fd5b506103b0610f01565b6040516103bd9190612095565b60405180910390f35b3480156103d257600080fd5b506103ed60048036038101906103e891906121e5565b610f27565b005b3480156103fb57600080fd5b506104166004803603810190610411919061223e565b610fc0565b6040516104239190612192565b60405180910390f35b610434610fd8565b005b34801561044257600080fd5b5061045d60048036038101906104589190612156565b611313565b005b34801561046b57600080fd5b5061048660048036038101906104819190612156565b611399565b005b34801561049457600080fd5b506104af60048036038101906104aa9190612156565b61141f565b005b3480156104bd57600080fd5b506104c66114a5565b6040516104d39190612192565b60405180910390f35b3480156104e857600080fd5b506104f16114ab565b005b3480156104ff57600080fd5b50610508611500565b6040516105159190612192565b60405180910390f35b34801561052a57600080fd5b506105456004803603810190610540919061223e565b611506565b005b34801561055357600080fd5b5061056e60048036038101906105699190612156565b6115c6565b005b34801561057c57600080fd5b5061058561164c565b6040516105929190612192565b60405180910390f35b3480156105a757600080fd5b506105b0611652565b6040516105bd9190612192565b60405180910390f35b3480156105d257600080fd5b506105db611658565b6040516105e891906122ca565b60405180910390f35b3480156105fd57600080fd5b5061061860048036038101906106139190612156565b61167e565b005b34801561062657600080fd5b5061062f611704565b60405161063c9190612192565b60405180910390f35b34801561065157600080fd5b5061065a611723565b005b34801561066857600080fd5b506106716117ab565b60405161067e9190612192565b60405180910390f35b34801561069357600080fd5b5061069c6117b1565b6040516106a99190612192565b60405180910390f35b3480156106be57600080fd5b506106d960048036038101906106d4919061223e565b6117b7565b005b3480156106e757600080fd5b5061070260048036038101906106fd9190612156565b611877565b005b34801561071057600080fd5b506107196118fd565b6040516107269190612095565b60405180910390f35b34801561073b57600080fd5b50610744611926565b60405161075191906122f4565b60405180910390f35b34801561076657600080fd5b5061076f611939565b60405161077c9190612192565b60405180910390f35b34801561079157600080fd5b5061079a61193f565b6040516107a79190612192565b60405180910390f35b3480156107bc57600080fd5b506107c5611945565b6040516107d291906122f4565b60405180910390f35b6107e361195c565b005b3480156107f157600080fd5b5061080c6004803603810190610807919061223e565b611c0b565b005b34801561081a57600080fd5b50610823611ccb565b6040516108309190612095565b60405180910390f35b34801561084557600080fd5b50610860600480360381019061085b9190612156565b611cf1565b005b34801561086e57600080fd5b50610877611d77565b60405161088491906122f4565b60405180910390f35b34801561089957600080fd5b506108b460048036038101906108af919061223e565b611d8a565b005b3480156108c257600080fd5b506108cb611e81565b6040516108d89190612192565b60405180910390f35b3480156108ed57600080fd5b506108f6611f40565b6040516109039190612192565b60405180910390f35b610914611f46565b73ffffffffffffffffffffffffffffffffffffffff166109326118fd565b73ffffffffffffffffffffffffffffffffffffffff1614610988576040517f08c379a000000000000000000000000000000000000000000000000000000000815260040161097f9061236c565b60405180910390fd5b6002600154036109cd576040517f08c379a00000000000000000000000000000000000000000000000000000000081526004016109c4906123d8565b60405180910390fd5b60026001819055506109dd6114ab565b60011515601260009054906101000a900460ff16151514610a33576040517f08c379a0000000000000000000000000000000000000000000000000000000008152600401610a2a9061246a565b60405180910390fd5b6000601360003373ffffffffffffffffffffffffffffffffffffffff1673ffffffffffffffffffffffffffffffffffffffff1681526020019081526020016000205411610ab5576040517f08c379a0000000000000000000000000000000000000000000000000000000008152600401610aac906124fc565b60405180910390fd5b600a54600260009054906101000a900473ffffffffffffffffffffffffffffffffffffffff1673ffffffffffffffffffffffffffffffffffffffff166370a08231306040518263ffffffff167c0100000000000000000000000000000000000000000000000000000000028152600401610b2f9190612095565b602060405180830381865afa158015610b4c573d6000803e3d6000fd5b505050506040513d601f19601f82011682018060405250810190610b709190612531565b1015610bb1576040517f08c379a0000000000000000000000000000000000000000000000000000000008152600401610ba8906125d0565b60405180910390fd5b6000601360003373ffffffffffffffffffffffffffffffffffffffff1673ffffffffffffffffffffffffffffffffffffffff1681526020019081526020016000205490506000601360003373ffffffffffffffffffffffffffffffffffffffff1673ffffffffffffffffffffffffffffffffffffffff16815260200190815260200160002081905550600260009054906101000a900473ffffffffffffffffffffffffffffffffffffffff1673ffffffffffffffffffffffffffffffffffffffff1663a9059cbb33836040518363ffffffff167c0100000000000000000000000000000000000000000000000000000000028152600401610cb39291906125f0565b6020604051808303816000875af1158015610cd2573d6000803e3d6000fd5b505050506040513d601f19601f82011682018060405250810190610cf6919061262e565b505060018081905550565b565b600560009054906101000a900473ffffffffffffffffffffffffffffffffffffffff1681565b610d31611f46565b73ffffffffffffffffffffffffffffffffffffffff16610d4f6118fd565b73ffffffffffffffffffffffffffffffffffffffff1614610da5576040517f08c379a0000000000000000000000000000000000000000000000000000000008152600401610d9c9061236c565b60405180910390fd5b80600260006101000a81548173ffffffffffffffffffffffffffffffffffffffff021916908373ffffffffffffffffffffffffffffffffffffffff16021790555050565b610df1611f46565b73ffffffffffffffffffffffffffffffffffffffff16610e0f6118fd565b73ffffffffffffffffffffffffffffffffffffffff1614610e65576040517f08c379a0000000000000000000000000000000000000000000000000000000008152600401610e5c9061236c565b60405180910390fd5b8060088190555050565b600c5481565b60115481565b610e83611f46565b73ffffffffffffffffffffffffffffffffffffffff16610ea16118fd565b73ffffffffffffffffffffffffffffffffffffffff1614610ef7576040517f08c379a0000000000000000000000000000000000000000000000000000000008152600401610eee9061236c565b60405180910390fd5b8060118190555050565b600360009054906101000a900473ffffffffffffffffffffffffffffffffffffffff1681565b610f2f611f46565b73ffffffffffffffffffffffffffffffffffffffff16610f4d6118fd565b73ffffffffffffffffffffffffffffffffffffffff1614610fa3576040517f08c379a0000000000000000000000000000000000000000000000000000000008152600401610f9a9061236c565b60405180910390fd5b80600f60006101000a81548160ff02191690831515021790555050565b60136020528060005260406000206000915090505481565b610fe06114ab565b6000610ff9600954600a54611f4e90919063ffffffff16565b905060001515601260009054906101000a900460ff16151514611051576040517f08c379a0000000000000000000000000000000000000000000000000000000008152600401611048906126cd565b60405180910390fd5b60095461106934600c54611f6490919063ffffffff16565b11156110aa576040517f08c379a00000000000000000000000000000000000000000000000000000000081526004016110a19061275f565b60405180910390fd5b60011515600f60009054906101000a900460ff161515036112635760105461112c61111d83601360003373ffffffffffffffffffffffffffffffffffffffff1673ffffffffffffffffffffffffffffffffffffffff16815260200190815260200160002054611f4e90919063ffffffff16565b34611f6490919063ffffffff16565b111561116d576040517f08c379a0000000000000000000000000000000000000000000000000000000008152600401611164906127f1565b60405180910390fd5b6011543410156111b2576040517f08c379a00000000000000000000000000000000000000000000000000000000081526004016111a990612883565b60405180910390fd5b6111c58134611f7a90919063ffffffff16565b601360003373ffffffffffffffffffffffffffffffffffffffff1673ffffffffffffffffffffffffffffffffffffffff168152602001908152602001600020600082825461121391906128d2565b9250508190555061122d8134611f7a90919063ffffffff16565b600b600082825461123e91906128d2565b9250508190555034600c600082825461125791906128d2565b92505081905550611310565b6112768134611f7a90919063ffffffff16565b601360003373ffffffffffffffffffffffffffffffffffffffff1673ffffffffffffffffffffffffffffffffffffffff16815260200190815260200160002060008282546112c491906128d2565b925050819055506112de8134611f7a90919063ffffffff16565b600b60008282546112ef91906128d2565b9250508190555034600c600082825461130891906128d2565b925050819055505b50565b61131b611f46565b73ffffffffffffffffffffffffffffffffffffffff166113396118fd565b73ffffffffffffffffffffffffffffffffffffffff161461138f576040517f08c379a00000000000000000000000000000000000000000000000000000000081526004016113869061236c565b60405180910390fd5b8060068190555050565b6113a1611f46565b73ffffffffffffffffffffffffffffffffffffffff166113bf6118fd565b73ffffffffffffffffffffffffffffffffffffffff1614611415576040517f08c379a000000000000000000000000000000000000000000000000000000000815260040161140c9061236c565b60405180910390fd5b8060098190555050565b611427611f46565b73ffffffffffffffffffffffffffffffffffffffff166114456118fd565b73ffffffffffffffffffffffffffffffffffffffff161461149b576040517f08c379a00000000000000000000000000000000000000000000000000000000081526004016114929061236c565b60405180910390fd5b80600e8190555050565b600e5481565b600d54421180156114bd5750600e5442105b156114e2576000601260006101000a81548160ff0219169083151502179055506114fe565b6001601260006101000a81548160ff0219169083151502179055505b565b600a5481565b61150e611f46565b73ffffffffffffffffffffffffffffffffffffffff1661152c6118fd565b73ffffffffffffffffffffffffffffffffffffffff1614611582576040517f08c379a00000000000000000000000000000000000000000000000000000000081526004016115799061236c565b60405180910390fd5b80600560006101000a81548173ffffffffffffffffffffffffffffffffffffffff021916908373ffffffffffffffffffffffffffffffffffffffff16021790555050565b6115ce611f46565b73ffffffffffffffffffffffffffffffffffffffff166115ec6118fd565b73ffffffffffffffffffffffffffffffffffffffff1614611642576040517f08c379a00000000000000000000000000000000000000000000000000000000081526004016116399061236c565b60405180910390fd5b80600a8190555050565b60075481565b600b5481565b600260009054906101000a900473ffffffffffffffffffffffffffffffffffffffff1681565b611686611f46565b73ffffffffffffffffffffffffffffffffffffffff166116a46118fd565b73ffffffffffffffffffffffffffffffffffffffff16146116fa576040517f08c379a00000000000000000000000000000000000000000000000000000000081526004016116f19061236c565b60405180910390fd5b8060108190555050565b60003073ffffffffffffffffffffffffffffffffffffffff1631905090565b61172b611f46565b73ffffffffffffffffffffffffffffffffffffffff166117496118fd565b73ffffffffffffffffffffffffffffffffffffffff161461179f576040517f08c379a00000000000000000000000000000000000000000000000000000000081526004016117969061236c565b60405180910390fd5b6117a96000611f90565b565b60095481565b600d5481565b6117bf611f46565b73ffffffffffffffffffffffffffffffffffffffff166117dd6118fd565b73ffffffffffffffffffffffffffffffffffffffff1614611833576040517f08c379a000000000000000000000000000000000000000000000000000000000815260040161182a9061236c565b60405180910390fd5b80600360006101000a81548173ffffffffffffffffffffffffffffffffffffffff021916908373ffffffffffffffffffffffffffffffffffffffff16021790555050565b61187f611f46565b73ffffffffffffffffffffffffffffffffffffffff1661189d6118fd565b73ffffffffffffffffffffffffffffffffffffffff16146118f3576040517f08c379a00000000000000000000000000000000000000000000000000000000081526004016118ea9061236c565b60405180910390fd5b80600d8190555050565b60008060009054906101000a900473ffffffffffffffffffffffffffffffffffffffff16905090565b601260009054906101000a900460ff1681565b60065481565b60105481565b6000601260009054906101000a900460ff16905090565b611964611f46565b73ffffffffffffffffffffffffffffffffffffffff166119826118fd565b73ffffffffffffffffffffffffffffffffffffffff16146119d8576040517f08c379a00000000000000000000000000000000000000000000000000000000081526004016119cf9061236c565b60405180910390fd5b600260015403611a1d576040517f08c379a0000000000000000000000000000000000000000000000000000000008152600401611a14906123d8565b60405180910390fd5b6002600181905550600060646006543073ffffffffffffffffffffffffffffffffffffffff1631611a4e9190612928565b611a5891906129b1565b9050600060646007543073ffffffffffffffffffffffffffffffffffffffff1631611a839190612928565b611a8d91906129b1565b9050600060646008543073ffffffffffffffffffffffffffffffffffffffff1631611ab89190612928565b611ac291906129b1565b9050600360009054906101000a900473ffffffffffffffffffffffffffffffffffffffff1673ffffffffffffffffffffffffffffffffffffffff166108fc849081150290604051600060405180830381858888f19350505050158015611b2c573d6000803e3d6000fd5b50600460009054906101000a900473ffffffffffffffffffffffffffffffffffffffff1673ffffffffffffffffffffffffffffffffffffffff166108fc839081150290604051600060405180830381858888f19350505050158015611b95573d6000803e3d6000fd5b50600560009054906101000a900473ffffffffffffffffffffffffffffffffffffffff1673ffffffffffffffffffffffffffffffffffffffff166108fc829081150290604051600060405180830381858888f19350505050158015611bfe573d6000803e3d6000fd5b5050505060018081905550565b611c13611f46565b73ffffffffffffffffffffffffffffffffffffffff16611c316118fd565b73ffffffffffffffffffffffffffffffffffffffff1614611c87576040517f08c379a0000000000000000000000000000000000000000000000000000000008152600401611c7e9061236c565b60405180910390fd5b80600460006101000a81548173ffffffffffffffffffffffffffffffffffffffff021916908373ffffffffffffffffffffffffffffffffffffffff16021790555050565b600460009054906101000a900473ffffffffffffffffffffffffffffffffffffffff1681565b611cf9611f46565b73ffffffffffffffffffffffffffffffffffffffff16611d176118fd565b73ffffffffffffffffffffffffffffffffffffffff1614611d6d576040517f08c379a0000000000000000000000000000000000000000000000000000000008152600401611d649061236c565b60405180910390fd5b8060078190555050565b600f60009054906101000a900460ff1681565b611d92611f46565b73ffffffffffffffffffffffffffffffffffffffff16611db06118fd565b73ffffffffffffffffffffffffffffffffffffffff1614611e06576040517f08c379a0000000000000000000000000000000000000000000000000000000008152600401611dfd9061236c565b60405180910390fd5b600073ffffffffffffffffffffffffffffffffffffffff168173ffffffffffffffffffffffffffffffffffffffff1603611e75576040517f08c379a0000000000000000000000000000000000000000000000000000000008152600401611e6c90612a54565b60405180910390fd5b611e7e81611f90565b50565b6000600260009054906101000a900473ffffffffffffffffffffffffffffffffffffffff1673ffffffffffffffffffffffffffffffffffffffff166370a08231306040518263ffffffff167c0100000000000000000000000000000000000000000000000000000000028152600401611efa9190612095565b602060405180830381865afa158015611f17573d6000803e3d6000fd5b505050506040513d601f19601f82011682018060405250810190611f3b9190612531565b905090565b60085481565b600033905090565b60008183611f5c91906129b1565b905092915050565b60008183611f7291906128d2565b905092915050565b60008183611f889190612928565b905092915050565b60008060009054906101000a900473ffffffffffffffffffffffffffffffffffffffff169050816000806101000a81548173ffffffffffffffffffffffffffffffffffffffff021916908373ffffffffffffffffffffffffffffffffffffffff1602179055508173ffffffffffffffffffffffffffffffffffffffff168173ffffffffffffffffffffffffffffffffffffffff167f8be0079c531659141344cd1fd0a4f28419497f9722a3daafe3b4186f6b6457e060405160405180910390a35050565b600073ffffffffffffffffffffffffffffffffffffffff82169050919050565b600061207f82612054565b9050919050565b61208f81612074565b82525050565b60006020820190506120aa6000830184612086565b92915050565b600080fd5b60006120c082612074565b9050919050565b6120d0816120b5565b81146120db57600080fd5b50565b6000813590506120ed816120c7565b92915050565b600060208284031215612109576121086120b0565b5b6000612117848285016120de565b91505092915050565b6000819050919050565b61213381612120565b811461213e57600080fd5b50565b6000813590506121508161212a565b92915050565b60006020828403121561216c5761216b6120b0565b5b600061217a84828501612141565b91505092915050565b61218c81612120565b82525050565b60006020820190506121a76000830184612183565b92915050565b60008115159050919050565b6121c2816121ad565b81146121cd57600080fd5b50565b6000813590506121df816121b9565b92915050565b6000602082840312156121fb576121fa6120b0565b5b6000612209848285016121d0565b91505092915050565b61221b81612074565b811461222657600080fd5b50565b60008135905061223881612212565b92915050565b600060208284031215612254576122536120b0565b5b600061226284828501612229565b91505092915050565b6000819050919050565b600061229061228b61228684612054565b61226b565b612054565b9050919050565b60006122a282612275565b9050919050565b60006122b482612297565b9050919050565b6122c4816122a9565b82525050565b60006020820190506122df60008301846122bb565b92915050565b6122ee816121ad565b82525050565b600060208201905061230960008301846122e5565b92915050565b600082825260208201905092915050565b7f4f776e61626c653a2063616c6c6572206973206e6f7420746865206f776e6572600082015250565b600061235660208361230f565b915061236182612320565b602082019050919050565b6000602082019050818103600083015261238581612349565b9050919050565b7f5265656e7472616e637947756172643a207265656e7472616e742063616c6c00600082015250565b60006123c2601f8361230f565b91506123cd8261238c565b602082019050919050565b600060208201905081810360008301526123f1816123b5565b9050919050565b7f43726f776453616c653a2063616e6e6f7420636c61696d20746f6b656e73207960008201527f6574000000000000000000000000000000000000000000000000000000000000602082015250565b600061245460228361230f565b915061245f826123f8565b604082019050919050565b6000602082019050818103600083015261248381612447565b9050919050565b7f43726f776473616c653a20796f752068617665206e6f20746f6b656e7320746f60008201527f20636c61696d0000000000000000000000000000000000000000000000000000602082015250565b60006124e660268361230f565b91506124f18261248a565b604082019050919050565b60006020820190508181036000830152612515816124d9565b9050919050565b60008151905061252b8161212a565b92915050565b600060208284031215612547576125466120b0565b5b60006125558482850161251c565b91505092915050565b7f43726f776453616c653a20496e73756666696369656e7420546f6b656e20426160008201527f6c616e636520746f206469737472696275746500000000000000000000000000602082015250565b60006125ba60338361230f565b91506125c58261255e565b604082019050919050565b600060208201905081810360008301526125e9816125ad565b9050919050565b60006040820190506126056000830185612086565b6126126020830184612183565b9392505050565b600081519050612628816121b9565b92915050565b600060208284031215612644576126436120b0565b5b600061265284828501612619565b91505092915050565b7f43726f776453616c653a2043616e6e6f74205061727469636970617465206f6e60008201527f2070726573616c65000000000000000000000000000000000000000000000000602082015250565b60006126b760288361230f565b91506126c28261265b565b604082019050919050565b600060208201905081810360008301526126e6816126aa565b9050919050565b7f43726f776453616c653a2070726573616c6520616c726561647920736f6c642060008201527f6f75740000000000000000000000000000000000000000000000000000000000602082015250565b600061274960238361230f565b9150612754826126ed565b604082019050919050565b600060208201905081810360008301526127788161273c565b9050919050565b7f43726f776453616c653a20616d6f756e7420697320677265617465722074686160008201527f6e206d6178696d756d20616c6c6f636174696f6e000000000000000000000000602082015250565b60006127db60348361230f565b91506127e68261277f565b604082019050919050565b6000602082019050818103600083015261280a816127ce565b9050919050565b7f43726f776453616c653a20616d6f756e74206973206c657373207468616e206d60008201527f696e696d756d20616c6c6f636174696f6e000000000000000000000000000000602082015250565b600061286d60318361230f565b915061287882612811565b604082019050919050565b6000602082019050818103600083015261289c81612860565b9050919050565b7f4e487b7100000000000000000000000000000000000000000000000000000000600052601160045260246000fd5b60006128dd82612120565b91506128e883612120565b9250827fffffffffffffffffffffffffffffffffffffffffffffffffffffffffffffffff0382111561291d5761291c6128a3565b5b828201905092915050565b600061293382612120565b915061293e83612120565b9250817fffffffffffffffffffffffffffffffffffffffffffffffffffffffffffffffff0483118215151615612977576129766128a3565b5b828202905092915050565b7f4e487b7100000000000000000000000000000000000000000000000000000000600052601260045260246000fd5b60006129bc82612120565b91506129c783612120565b9250826129d7576129d6612982565b5b828204905092915050565b7f4f776e61626c653a206e6577206f776e657220697320746865207a65726f206160008201527f6464726573730000000000000000000000000000000000000000000000000000602082015250565b6000612a3e60268361230f565b9150612a49826129e2565b604082019050919050565b60006020820190508181036000830152612a6d81612a31565b905091905056fea2646970667358221220d236c4a31223329fa972745c3d3c4822d92f061fcbff6f932b94d5786b3e1ed564736f6c634300080d0033",
  "immutableReferences": {},
  "source": "//SPDX-License-Identifier: MIT\r\npragma solidity >=0.4.22 <0.9.0;\r\n\r\nimport \"@openzeppelin/contracts/access/Ownable.sol\";\r\nimport \"@openzeppelin/contracts/utils/math/SafeMath.sol\";\r\nimport \"@openzeppelin/contracts/token/ERC20/IERC20.sol\";\r\nimport \"@openzeppelin/contracts/security/ReentrancyGuard.sol\";\r\n\r\ncontract CrowdSale is Ownable, ReentrancyGuard {\r\n    using SafeMath for uint256;\r\n    IERC20 public tokenInstance;\r\n\r\n    //WITHDRAW VARIABLES\r\n\r\n    address public ownerFundReceiver; // receiving address of owner\r\n    address public labFeeFundReceiver; // receiving address of lab\r\n    address public devFeeFundReceiver; // receiving address of dev\r\n\r\n    uint256 public ownerPercent; // percentage of owner in terms of total collected CRO\r\n    uint256 public labPercent; // percentage of lab in terms of total collected CRO\r\n    uint256 public devPercent; // percentage of dev in terms of total collected CRO\r\n\r\n    //PRESALE VARIABLES\r\n\r\n    uint256 public croHardcap; // hardcap of the presale in terms of CRO\r\n    uint256 public tokenHardcap; // hardcap of the presale in terms of token\r\n    uint256 public soldTokens; // amount of tokens sold in the presale\r\n    uint256 public croRaised; //amount of raised CRO\r\n\r\n    uint256 public startTime; // starting time of presale in unix\r\n    uint256 public endTime; // ending time of presale in unix\r\n\r\n    bool public hasMaxMinAlloc; // check if the presale has max participation allocation per wallet\r\n    uint256 public maxAlloc; // maximum token participation allocation\r\n    uint256 public minAlloc; // minimum token participation allocation\r\n\r\n    bool public isPresaleStop; // presale pause/complete function\r\n\r\n    mapping(address => uint256) public presaleParticipation; // participation amount of a wallet address in terms of tokens\r\n\r\n    constructor(IERC20 _tokenInstance) {\r\n        tokenHardcap = 100 ether;\r\n        croHardcap = 10 ether;\r\n        soldTokens = 0;\r\n        croRaised = 0;\r\n        hasMaxMinAlloc = true;\r\n        maxAlloc = 1000000000000000000;\r\n        minAlloc = 500000000000000000;\r\n        isPresaleStop = false;\r\n        tokenInstance = _tokenInstance;\r\n        startTime = 1650661200;\r\n        endTime = 1650661500;\r\n        isPresaleStop = true;\r\n        ownerPercent = 95;\r\n        labPercent = 3;\r\n        devPercent = 2;\r\n        ownerFundReceiver = 0x3bA8E70a107491864D783aBc6d3767be3884CE84;\r\n        labFeeFundReceiver = 0x3bA8E70a107491864D783aBc6d3767be3884CE84;\r\n        devFeeFundReceiver = 0x3bA8E70a107491864D783aBc6d3767be3884CE84;\r\n    }\r\n\r\n    function checkPresaleDuration() public {\r\n        if (block.timestamp > startTime && block.timestamp < endTime) {\r\n            isPresaleStop = false;\r\n        } else {\r\n            isPresaleStop = true;\r\n        }\r\n    }\r\n\r\n    // payable functions\r\n    function presaleBuy() external payable {\r\n        checkPresaleDuration();\r\n        uint256 tokenPrice = tokenHardcap.div(croHardcap);\r\n        require(\r\n            isPresaleStop == false,\r\n            \"CrowdSale: Cannot Participate on presale\"\r\n        );\r\n        require((croRaised.add(msg.value) <= croHardcap), \"CrowdSale: presale already sold out\");\r\n        if (hasMaxMinAlloc == true) {\r\n            require(\r\n                msg.value.add(presaleParticipation[msg.sender].div(tokenPrice)) <= maxAlloc,\r\n                \"CrowdSale: amount is greater than maximum allocation\"\r\n            );\r\n            require(\r\n                msg.value >= minAlloc,\r\n                \"CrowdSale: amount is less than minimum allocation\"\r\n            );\r\n\r\n            presaleParticipation[msg.sender] += (msg.value.mul(tokenPrice));\r\n            soldTokens += (msg.value.mul(tokenPrice));\r\n            croRaised += msg.value;\r\n        } else {\r\n            presaleParticipation[msg.sender] += (msg.value.mul(tokenPrice));\r\n            soldTokens += (msg.value.mul(tokenPrice));\r\n            croRaised += msg.value;\r\n        }\r\n    }\r\n\r\n    function sendToContract() external payable {\r\n\r\n    }\r\n\r\n    function distributeCRO() public payable onlyOwner nonReentrant {\r\n        uint256 ownerCRO = address(this).balance * ownerPercent / 100;\r\n        uint256 labCRO = address(this).balance * labPercent / 100;\r\n        uint256 devCRO = address(this).balance * devPercent / 100;\r\n\r\n        payable(ownerFundReceiver).transfer(ownerCRO);\r\n        payable(labFeeFundReceiver).transfer(labCRO);\r\n        payable(devFeeFundReceiver).transfer(devCRO);\r\n    }\r\n\r\n    // claim function\r\n\r\n    function claimPresale() external onlyOwner nonReentrant {\r\n        checkPresaleDuration();\r\n        require(isPresaleStop == true, \"CrowdSale: cannot claim tokens yet\");\r\n        require(\r\n            presaleParticipation[msg.sender] > 0,\r\n            \"Crowdsale: you have no tokens to claim\"\r\n        );\r\n        require(tokenInstance.balanceOf(address(this)) >= tokenHardcap, \"CrowdSale: Insufficient Token Balance to distribute\");\r\n        uint256 tempBalance = presaleParticipation[msg.sender];\r\n        presaleParticipation[msg.sender] = 0;\r\n        tokenInstance.transfer(msg.sender, tempBalance);\r\n    }\r\n\r\n    // change value functions\r\n\r\n    function changeTokenInstance(IERC20 _tokenInstance) external onlyOwner {\r\n        tokenInstance = _tokenInstance;\r\n    }\r\n\r\n    function changeHasMaxMinAlloc(bool _hasMaxMinAlloc) external onlyOwner {\r\n        hasMaxMinAlloc = _hasMaxMinAlloc;\r\n    }\r\n\r\n    function changeMaxAlloc(uint256 _maxAlloc) external onlyOwner {\r\n        maxAlloc = _maxAlloc;\r\n    }\r\n\r\n    function changeMinAlloc(uint256 _minAlloc) external onlyOwner {\r\n        minAlloc = _minAlloc;\r\n    }\r\n\r\n    function changeStartTime(uint256 _startTime) external onlyOwner {\r\n        startTime = _startTime;\r\n    }\r\n\r\n    function changeEndTime(uint256 _endTime) external onlyOwner {\r\n        endTime = _endTime;\r\n    }\r\n\r\n    function changeOwnerFeeFundReceiver(address _ownerFundReceiver)\r\n        external\r\n        onlyOwner\r\n    {\r\n        ownerFundReceiver = _ownerFundReceiver;\r\n    }\r\n\r\n    function changeLabFeeFundReceiver(address _labFeeFundReceiver)\r\n        external\r\n        onlyOwner\r\n    {\r\n        labFeeFundReceiver = _labFeeFundReceiver;\r\n    }\r\n\r\n    function changeDevFeeFundReceiver(address _ownerFundReceiver)\r\n        external\r\n        onlyOwner\r\n    {\r\n        devFeeFundReceiver = _ownerFundReceiver;\r\n    }\r\n\r\n    function changeOwnerPercent(uint256 _ownerPercent) external onlyOwner {\r\n        ownerPercent = _ownerPercent;\r\n    }\r\n\r\n    function changeLabPercent(uint256 _labPercent) external onlyOwner {\r\n        labPercent = _labPercent;\r\n    }\r\n\r\n    function changeDevPercent(uint256 _devPercent) external onlyOwner {\r\n        devPercent = _devPercent;\r\n    }\r\n\r\n    function changeTokenHardcap(uint256 _tokenHardcap) external onlyOwner {\r\n        tokenHardcap = _tokenHardcap;\r\n    }\r\n\r\n    function changeCroHardcap(uint256 _croHardcap) external onlyOwner {\r\n        croHardcap = _croHardcap;\r\n    }\r\n\r\n    // View functions\r\n    function getTokenInstanceBalance() external view returns (uint256) {\r\n        return tokenInstance.balanceOf(address(this));\r\n    }\r\n\r\n    function getContractBalance() external view returns (uint256) {\r\n        return address(this).balance;\r\n    }\r\n\r\n    function getIsPresaleStop() external view returns (bool) {\r\n        return isPresaleStop;\r\n    }\r\n}\r\n",
  "sourcePath": "C:\\Users\\Gaaaaab\\Desktop\\PROJECTS\\LAB\\lab-launchpad\\contracts\\CrowdSaleContract.sol",
  "compiler": {
    "name": "solc",
    "version": "0.8.13+commit.abaa5c0e.Emscripten.clang"
  },
  "schemaVersion": "3.4.7",
  "updatedAt": "2022-04-23T13:20:36.675Z",
  "networkType": "ethereum",
  "devdoc": {
    "kind": "dev",
    "methods": {
      "owner()": {
        "details": "Returns the address of the current owner."
      },
      "renounceOwnership()": {
        "details": "Leaves the contract without owner. It will not be possible to call `onlyOwner` functions anymore. Can only be called by the current owner. NOTE: Renouncing ownership will leave the contract without an owner, thereby removing any functionality that is only available to the owner."
      },
      "transferOwnership(address)": {
        "details": "Transfers ownership of the contract to a new account (`newOwner`). Can only be called by the current owner."
      }
    },
    "version": 1
  },
  "userdoc": {
    "kind": "user",
    "methods": {},
    "version": 1
  }
}