{
  "contractName": "CrowdSale",
  "abi": [
    {
      "inputs": [
        {
          "internalType": "contract IERC20",
          "name": "_tokenInstance",
          "type": "address"
        }
      ],
      "stateMutability": "nonpayable",
      "type": "constructor"
    },
    {
      "anonymous": false,
      "inputs": [
        {
          "indexed": true,
          "internalType": "address",
          "name": "previousOwner",
          "type": "address"
        },
        {
          "indexed": true,
          "internalType": "address",
          "name": "newOwner",
          "type": "address"
        }
      ],
      "name": "OwnershipTransferred",
      "type": "event"
    },
    {
      "inputs": [],
      "name": "croHardcap",
      "outputs": [
        {
          "internalType": "uint256",
          "name": "",
          "type": "uint256"
        }
      ],
      "stateMutability": "view",
      "type": "function"
    },
    {
      "inputs": [],
      "name": "croRaised",
      "outputs": [
        {
          "internalType": "uint256",
          "name": "",
          "type": "uint256"
        }
      ],
      "stateMutability": "view",
      "type": "function"
    },
    {
      "inputs": [],
      "name": "devFeeFundReceiver",
      "outputs": [
        {
          "internalType": "address",
          "name": "",
          "type": "address"
        }
      ],
      "stateMutability": "view",
      "type": "function"
    },
    {
      "inputs": [],
      "name": "devPercent",
      "outputs": [
        {
          "internalType": "uint256",
          "name": "",
          "type": "uint256"
        }
      ],
      "stateMutability": "view",
      "type": "function"
    },
    {
      "inputs": [],
      "name": "endTime",
      "outputs": [
        {
          "internalType": "uint256",
          "name": "",
          "type": "uint256"
        }
      ],
      "stateMutability": "view",
      "type": "function"
    },
    {
      "inputs": [],
      "name": "hasMaxMinAlloc",
      "outputs": [
        {
          "internalType": "bool",
          "name": "",
          "type": "bool"
        }
      ],
      "stateMutability": "view",
      "type": "function"
    },
    {
      "inputs": [],
      "name": "isPresaleStop",
      "outputs": [
        {
          "internalType": "bool",
          "name": "",
          "type": "bool"
        }
      ],
      "stateMutability": "view",
      "type": "function"
    },
    {
      "inputs": [],
      "name": "labFeeFundReceiver",
      "outputs": [
        {
          "internalType": "address",
          "name": "",
          "type": "address"
        }
      ],
      "stateMutability": "view",
      "type": "function"
    },
    {
      "inputs": [],
      "name": "labPercent",
      "outputs": [
        {
          "internalType": "uint256",
          "name": "",
          "type": "uint256"
        }
      ],
      "stateMutability": "view",
      "type": "function"
    },
    {
      "inputs": [],
      "name": "maxAlloc",
      "outputs": [
        {
          "internalType": "uint256",
          "name": "",
          "type": "uint256"
        }
      ],
      "stateMutability": "view",
      "type": "function"
    },
    {
      "inputs": [],
      "name": "minAlloc",
      "outputs": [
        {
          "internalType": "uint256",
          "name": "",
          "type": "uint256"
        }
      ],
      "stateMutability": "view",
      "type": "function"
    },
    {
      "inputs": [],
      "name": "owner",
      "outputs": [
        {
          "internalType": "address",
          "name": "",
          "type": "address"
        }
      ],
      "stateMutability": "view",
      "type": "function"
    },
    {
      "inputs": [],
      "name": "ownerFundReceiver",
      "outputs": [
        {
          "internalType": "address",
          "name": "",
          "type": "address"
        }
      ],
      "stateMutability": "view",
      "type": "function"
    },
    {
      "inputs": [],
      "name": "ownerPercent",
      "outputs": [
        {
          "internalType": "uint256",
          "name": "",
          "type": "uint256"
        }
      ],
      "stateMutability": "view",
      "type": "function"
    },
    {
      "inputs": [
        {
          "internalType": "address",
          "name": "",
          "type": "address"
        }
      ],
      "name": "presaleParticipation",
      "outputs": [
        {
          "internalType": "uint256",
          "name": "",
          "type": "uint256"
        }
      ],
      "stateMutability": "view",
      "type": "function"
    },
    {
      "inputs": [],
      "name": "renounceOwnership",
      "outputs": [],
      "stateMutability": "nonpayable",
      "type": "function"
    },
    {
      "inputs": [],
      "name": "soldTokens",
      "outputs": [
        {
          "internalType": "uint256",
          "name": "",
          "type": "uint256"
        }
      ],
      "stateMutability": "view",
      "type": "function"
    },
    {
      "inputs": [],
      "name": "startTime",
      "outputs": [
        {
          "internalType": "uint256",
          "name": "",
          "type": "uint256"
        }
      ],
      "stateMutability": "view",
      "type": "function"
    },
    {
      "inputs": [],
      "name": "tokenHardcap",
      "outputs": [
        {
          "internalType": "uint256",
          "name": "",
          "type": "uint256"
        }
      ],
      "stateMutability": "view",
      "type": "function"
    },
    {
      "inputs": [],
      "name": "tokenInstance",
      "outputs": [
        {
          "internalType": "contract IERC20",
          "name": "",
          "type": "address"
        }
      ],
      "stateMutability": "view",
      "type": "function"
    },
    {
      "inputs": [
        {
          "internalType": "address",
          "name": "newOwner",
          "type": "address"
        }
      ],
      "name": "transferOwnership",
      "outputs": [],
      "stateMutability": "nonpayable",
      "type": "function"
    },
    {
      "inputs": [],
      "name": "checkPresaleDuration",
      "outputs": [],
      "stateMutability": "nonpayable",
      "type": "function"
    },
    {
      "inputs": [],
      "name": "presaleBuy",
      "outputs": [],
      "stateMutability": "payable",
      "type": "function"
    },
    {
      "inputs": [],
      "name": "sendToContract",
      "outputs": [],
      "stateMutability": "payable",
      "type": "function"
    },
    {
      "inputs": [],
      "name": "distributeCRO",
      "outputs": [],
      "stateMutability": "payable",
      "type": "function"
    },
    {
      "inputs": [],
      "name": "claimPresale",
      "outputs": [],
      "stateMutability": "nonpayable",
      "type": "function"
    },
    {
      "inputs": [
        {
          "internalType": "contract IERC20",
          "name": "_tokenInstance",
          "type": "address"
        }
      ],
      "name": "changeTokenInstance",
      "outputs": [],
      "stateMutability": "nonpayable",
      "type": "function"
    },
    {
      "inputs": [
        {
          "internalType": "bool",
          "name": "_hasMaxMinAlloc",
          "type": "bool"
        }
      ],
      "name": "changeHasMaxMinAlloc",
      "outputs": [],
      "stateMutability": "nonpayable",
      "type": "function"
    },
    {
      "inputs": [
        {
          "internalType": "uint256",
          "name": "_maxAlloc",
          "type": "uint256"
        }
      ],
      "name": "changeMaxAlloc",
      "outputs": [],
      "stateMutability": "nonpayable",
      "type": "function"
    },
    {
      "inputs": [
        {
          "internalType": "uint256",
          "name": "_minAlloc",
          "type": "uint256"
        }
      ],
      "name": "changeMinAlloc",
      "outputs": [],
      "stateMutability": "nonpayable",
      "type": "function"
    },
    {
      "inputs": [
        {
          "internalType": "uint256",
          "name": "_startTime",
          "type": "uint256"
        }
      ],
      "name": "changeStartTime",
      "outputs": [],
      "stateMutability": "nonpayable",
      "type": "function"
    },
    {
      "inputs": [
        {
          "internalType": "uint256",
          "name": "_endTime",
          "type": "uint256"
        }
      ],
      "name": "changeEndTime",
      "outputs": [],
      "stateMutability": "nonpayable",
      "type": "function"
    },
    {
      "inputs": [
        {
          "internalType": "address",
          "name": "_ownerFundReceiver",
          "type": "address"
        }
      ],
      "name": "changeOwnerFeeFundReceiver",
      "outputs": [],
      "stateMutability": "nonpayable",
      "type": "function"
    },
    {
      "inputs": [
        {
          "internalType": "address",
          "name": "_labFeeFundReceiver",
          "type": "address"
        }
      ],
      "name": "changeLabFeeFundReceiver",
      "outputs": [],
      "stateMutability": "nonpayable",
      "type": "function"
    },
    {
      "inputs": [
        {
          "internalType": "address",
          "name": "_ownerFundReceiver",
          "type": "address"
        }
      ],
      "name": "changeDevFeeFundReceiver",
      "outputs": [],
      "stateMutability": "nonpayable",
      "type": "function"
    },
    {
      "inputs": [
        {
          "internalType": "uint256",
          "name": "_ownerPercent",
          "type": "uint256"
        }
      ],
      "name": "changeOwnerPercent",
      "outputs": [],
      "stateMutability": "nonpayable",
      "type": "function"
    },
    {
      "inputs": [
        {
          "internalType": "uint256",
          "name": "_labPercent",
          "type": "uint256"
        }
      ],
      "name": "changeLabPercent",
      "outputs": [],
      "stateMutability": "nonpayable",
      "type": "function"
    },
    {
      "inputs": [
        {
          "internalType": "uint256",
          "name": "_devPercent",
          "type": "uint256"
        }
      ],
      "name": "changeDevPercent",
      "outputs": [],
      "stateMutability": "nonpayable",
      "type": "function"
    },
    {
      "inputs": [
        {
          "internalType": "uint256",
          "name": "_tokenHardcap",
          "type": "uint256"
        }
      ],
      "name": "changeTokenHardcap",
      "outputs": [],
      "stateMutability": "nonpayable",
      "type": "function"
    },
    {
      "inputs": [
        {
          "internalType": "uint256",
          "name": "_croHardcap",
          "type": "uint256"
        }
      ],
      "name": "changeCroHardcap",
      "outputs": [],
      "stateMutability": "nonpayable",
      "type": "function"
    },
    {
      "inputs": [],
      "name": "getTokenInstanceBalance",
      "outputs": [
        {
          "internalType": "uint256",
          "name": "",
          "type": "uint256"
        }
      ],
      "stateMutability": "view",
      "type": "function"
    },
    {
      "inputs": [],
      "name": "getContractBalance",
      "outputs": [
        {
          "internalType": "uint256",
          "name": "",
          "type": "uint256"
        }
      ],
      "stateMutability": "view",
      "type": "function"
    },
    {
      "inputs": [],
      "name": "getIsPresaleStop",
      "outputs": [
        {
          "internalType": "bool",
          "name": "",
          "type": "bool"
        }
      ],
      "stateMutability": "view",
      "type": "function"
    }
  ],
  "bytecode": "0x60806040523480156200001157600080fd5b5060405162002e3c38038062002e3c8339818101604052810190620000379190620003cd565b620000696200005462000283640100000000026401000000009004565b6200028b640100000000026401000000009004565b6001808190555068056bc75e2d63100000600a81905550678ac7230489e800006009819055506000600b819055506000600c819055506001600f60006101000a81548160ff021916908315150217905550670de0b6b3a76400006010819055506706f05b59d3b200006011819055506000601260006101000a81548160ff02191690831515021790555080600260006101000a81548173ffffffffffffffffffffffffffffffffffffffff021916908373ffffffffffffffffffffffffffffffffffffffff1602179055506362631750600d81905550636263187c600e819055506001601260006101000a81548160ff021916908315150217905550605f60068190555060036007819055506002600881905550733ba8e70a107491864d783abc6d3767be3884ce84600360006101000a81548173ffffffffffffffffffffffffffffffffffffffff021916908373ffffffffffffffffffffffffffffffffffffffff160217905550733ba8e70a107491864d783abc6d3767be3884ce84600460006101000a81548173ffffffffffffffffffffffffffffffffffffffff021916908373ffffffffffffffffffffffffffffffffffffffff160217905550733ba8e70a107491864d783abc6d3767be3884ce84600560006101000a81548173ffffffffffffffffffffffffffffffffffffffff021916908373ffffffffffffffffffffffffffffffffffffffff16021790555050620003ff565b600033905090565b60008060009054906101000a900473ffffffffffffffffffffffffffffffffffffffff169050816000806101000a81548173ffffffffffffffffffffffffffffffffffffffff021916908373ffffffffffffffffffffffffffffffffffffffff1602179055508173ffffffffffffffffffffffffffffffffffffffff168173ffffffffffffffffffffffffffffffffffffffff167f8be0079c531659141344cd1fd0a4f28419497f9722a3daafe3b4186f6b6457e060405160405180910390a35050565b600080fd5b600073ffffffffffffffffffffffffffffffffffffffff82169050919050565b6000620003818262000354565b9050919050565b6000620003958262000374565b9050919050565b620003a78162000388565b8114620003b357600080fd5b50565b600081519050620003c7816200039c565b92915050565b600060208284031215620003e657620003e56200034f565b5b6000620003f684828501620003b6565b91505092915050565b612a2d806200040f6000396000f3fe608060405260043610610279576000357c0100000000000000000000000000000000000000000000000000000000900480635ed9ebfc1161016157806395d12000116100d3578063c3746b1c11610097578063c3746b1c1461080e578063cffd211014610839578063f1268df614610862578063f2fde38b1461088d578063fc2a5932146108b6578063fc3c28af146108e157610279565b806395d120001461075a5780639d17910f14610785578063af2a6bfb146107b0578063b022f1d3146107db578063bbd32b1a146107e557610279565b806371ba242a1161012557806371ba242a1461065c57806378e979251461068757806378f6bb19146106b25780638aa5b2c3146106db5780638da5cb5b146107045780638fe5add71461072f57610279565b80635ed9ebfc1461059b578063658030b3146105c65780636652c855146105f15780636f9fb98a1461061a578063715018a61461064557610279565b80631e2f9a11116101fa5780633197cbb6116101be5780633197cbb6146104b15780633a629672146104dc5780633f242990146104f35780635abd86ad1461051e5780635cb06a6c146105475780635d2a38fa1461057057610279565b80631e2f9a11146103ef5780632712d40b1461042c57806327ed4c5f146104365780632ae8f0e61461045f5780633052b75e1461048857610279565b806314c8d0001161024157806314c8d0001461031c57806315626c7e1461034757806318b9ccd21461037257806318bbe4631461039b5780631a95b63f146103c657610279565b8063046ef9a51461027e5780630a4c137c146102955780630c3352bd1461029f5780630c99d42a146102ca5780630e70af24146102f3575b600080fd5b34801561028a57600080fd5b5061029361090c565b005b61029d610c84565b005b3480156102ab57600080fd5b506102b4610c86565b6040516102c19190612018565b60405180910390f35b3480156102d657600080fd5b506102f160048036038101906102ec9190612076565b610cac565b005b3480156102ff57600080fd5b5061031a600480360381019061031591906120d9565b610d6c565b005b34801561032857600080fd5b50610331610df2565b60405161033e9190612115565b60405180910390f35b34801561035357600080fd5b5061035c610df8565b6040516103699190612115565b60405180910390f35b34801561037e57600080fd5b50610399600480360381019061039491906120d9565b610dfe565b005b3480156103a757600080fd5b506103b0610e84565b6040516103bd9190612018565b60405180910390f35b3480156103d257600080fd5b506103ed60048036038101906103e89190612168565b610eaa565b005b3480156103fb57600080fd5b50610416600480360381019061041191906121c1565b610f43565b6040516104239190612115565b60405180910390f35b610434610f5b565b005b34801561044257600080fd5b5061045d600480360381019061045891906120d9565b611296565b005b34801561046b57600080fd5b50610486600480360381019061048191906120d9565b61131c565b005b34801561049457600080fd5b506104af60048036038101906104aa91906120d9565b6113a2565b005b3480156104bd57600080fd5b506104c6611428565b6040516104d39190612115565b60405180910390f35b3480156104e857600080fd5b506104f161142e565b005b3480156104ff57600080fd5b50610508611483565b6040516105159190612115565b60405180910390f35b34801561052a57600080fd5b50610545600480360381019061054091906121c1565b611489565b005b34801561055357600080fd5b5061056e600480360381019061056991906120d9565b611549565b005b34801561057c57600080fd5b506105856115cf565b6040516105929190612115565b60405180910390f35b3480156105a757600080fd5b506105b06115d5565b6040516105bd9190612115565b60405180910390f35b3480156105d257600080fd5b506105db6115db565b6040516105e8919061224d565b60405180910390f35b3480156105fd57600080fd5b50610618600480360381019061061391906120d9565b611601565b005b34801561062657600080fd5b5061062f611687565b60405161063c9190612115565b60405180910390f35b34801561065157600080fd5b5061065a6116a6565b005b34801561066857600080fd5b5061067161172e565b60405161067e9190612115565b60405180910390f35b34801561069357600080fd5b5061069c611734565b6040516106a99190612115565b60405180910390f35b3480156106be57600080fd5b506106d960048036038101906106d491906121c1565b61173a565b005b3480156106e757600080fd5b5061070260048036038101906106fd91906120d9565b6117fa565b005b34801561071057600080fd5b50610719611880565b6040516107269190612018565b60405180910390f35b34801561073b57600080fd5b506107446118a9565b6040516107519190612277565b60405180910390f35b34801561076657600080fd5b5061076f6118bc565b60405161077c9190612115565b60405180910390f35b34801561079157600080fd5b5061079a6118c2565b6040516107a79190612115565b60405180910390f35b3480156107bc57600080fd5b506107c56118c8565b6040516107d29190612277565b60405180910390f35b6107e36118df565b005b3480156107f157600080fd5b5061080c600480360381019061080791906121c1565b611b8e565b005b34801561081a57600080fd5b50610823611c4e565b6040516108309190612018565b60405180910390f35b34801561084557600080fd5b50610860600480360381019061085b91906120d9565b611c74565b005b34801561086e57600080fd5b50610877611cfa565b6040516108849190612277565b60405180910390f35b34801561089957600080fd5b506108b460048036038101906108af91906121c1565b611d0d565b005b3480156108c257600080fd5b506108cb611e04565b6040516108d89190612115565b60405180910390f35b3480156108ed57600080fd5b506108f6611ec3565b6040516109039190612115565b60405180910390f35b600260015403610951576040517f08c379a0000000000000000000000000000000000000000000000000000000008152600401610948906122ef565b60405180910390fd5b600260018190555061096161142e565b60011515601260009054906101000a900460ff161515146109b7576040517f08c379a00000000000000000000000000000000000000000000000000000000081526004016109ae90612381565b60405180910390fd5b6000601360003373ffffffffffffffffffffffffffffffffffffffff1673ffffffffffffffffffffffffffffffffffffffff1681526020019081526020016000205411610a39576040517f08c379a0000000000000000000000000000000000000000000000000000000008152600401610a3090612413565b60405180910390fd5b6000600260009054906101000a900473ffffffffffffffffffffffffffffffffffffffff1673ffffffffffffffffffffffffffffffffffffffff166370a08231306040518263ffffffff167c0100000000000000000000000000000000000000000000000000000000028152600401610ab29190612018565b602060405180830381865afa158015610acf573d6000803e3d6000fd5b505050506040513d601f19601f82011682018060405250810190610af39190612448565b1015610b34576040517f08c379a0000000000000000000000000000000000000000000000000000000008152600401610b2b906124e7565b60405180910390fd5b6000601360003373ffffffffffffffffffffffffffffffffffffffff1673ffffffffffffffffffffffffffffffffffffffff1681526020019081526020016000205490506000601360003373ffffffffffffffffffffffffffffffffffffffff1673ffffffffffffffffffffffffffffffffffffffff16815260200190815260200160002081905550600260009054906101000a900473ffffffffffffffffffffffffffffffffffffffff1673ffffffffffffffffffffffffffffffffffffffff1663a9059cbb33836040518363ffffffff167c0100000000000000000000000000000000000000000000000000000000028152600401610c36929190612507565b6020604051808303816000875af1158015610c55573d6000803e3d6000fd5b505050506040513d601f19601f82011682018060405250810190610c799190612545565b505060018081905550565b565b600560009054906101000a900473ffffffffffffffffffffffffffffffffffffffff1681565b610cb4611ec9565b73ffffffffffffffffffffffffffffffffffffffff16610cd2611880565b73ffffffffffffffffffffffffffffffffffffffff1614610d28576040517f08c379a0000000000000000000000000000000000000000000000000000000008152600401610d1f906125be565b60405180910390fd5b80600260006101000a81548173ffffffffffffffffffffffffffffffffffffffff021916908373ffffffffffffffffffffffffffffffffffffffff16021790555050565b610d74611ec9565b73ffffffffffffffffffffffffffffffffffffffff16610d92611880565b73ffffffffffffffffffffffffffffffffffffffff1614610de8576040517f08c379a0000000000000000000000000000000000000000000000000000000008152600401610ddf906125be565b60405180910390fd5b8060088190555050565b600c5481565b60115481565b610e06611ec9565b73ffffffffffffffffffffffffffffffffffffffff16610e24611880565b73ffffffffffffffffffffffffffffffffffffffff1614610e7a576040517f08c379a0000000000000000000000000000000000000000000000000000000008152600401610e71906125be565b60405180910390fd5b8060118190555050565b600360009054906101000a900473ffffffffffffffffffffffffffffffffffffffff1681565b610eb2611ec9565b73ffffffffffffffffffffffffffffffffffffffff16610ed0611880565b73ffffffffffffffffffffffffffffffffffffffff1614610f26576040517f08c379a0000000000000000000000000000000000000000000000000000000008152600401610f1d906125be565b60405180910390fd5b80600f60006101000a81548160ff02191690831515021790555050565b60136020528060005260406000206000915090505481565b610f6361142e565b6000610f7c600954600a54611ed190919063ffffffff16565b905060001515601260009054906101000a900460ff16151514610fd4576040517f08c379a0000000000000000000000000000000000000000000000000000000008152600401610fcb90612650565b60405180910390fd5b600954610fec34600c54611ee790919063ffffffff16565b111561102d576040517f08c379a0000000000000000000000000000000000000000000000000000000008152600401611024906126e2565b60405180910390fd5b60011515600f60009054906101000a900460ff161515036111e6576010546110af6110a083601360003373ffffffffffffffffffffffffffffffffffffffff1673ffffffffffffffffffffffffffffffffffffffff16815260200190815260200160002054611ed190919063ffffffff16565b34611ee790919063ffffffff16565b11156110f0576040517f08c379a00000000000000000000000000000000000000000000000000000000081526004016110e790612774565b60405180910390fd5b601154341015611135576040517f08c379a000000000000000000000000000000000000000000000000000000000815260040161112c90612806565b60405180910390fd5b6111488134611efd90919063ffffffff16565b601360003373ffffffffffffffffffffffffffffffffffffffff1673ffffffffffffffffffffffffffffffffffffffff16815260200190815260200160002060008282546111969190612855565b925050819055506111b08134611efd90919063ffffffff16565b600b60008282546111c19190612855565b9250508190555034600c60008282546111da9190612855565b92505081905550611293565b6111f98134611efd90919063ffffffff16565b601360003373ffffffffffffffffffffffffffffffffffffffff1673ffffffffffffffffffffffffffffffffffffffff16815260200190815260200160002060008282546112479190612855565b925050819055506112618134611efd90919063ffffffff16565b600b60008282546112729190612855565b9250508190555034600c600082825461128b9190612855565b925050819055505b50565b61129e611ec9565b73ffffffffffffffffffffffffffffffffffffffff166112bc611880565b73ffffffffffffffffffffffffffffffffffffffff1614611312576040517f08c379a0000000000000000000000000000000000000000000000000000000008152600401611309906125be565b60405180910390fd5b8060068190555050565b611324611ec9565b73ffffffffffffffffffffffffffffffffffffffff16611342611880565b73ffffffffffffffffffffffffffffffffffffffff1614611398576040517f08c379a000000000000000000000000000000000000000000000000000000000815260040161138f906125be565b60405180910390fd5b8060098190555050565b6113aa611ec9565b73ffffffffffffffffffffffffffffffffffffffff166113c8611880565b73ffffffffffffffffffffffffffffffffffffffff161461141e576040517f08c379a0000000000000000000000000000000000000000000000000000000008152600401611415906125be565b60405180910390fd5b80600e8190555050565b600e5481565b600d54421180156114405750600e5442105b15611465576000601260006101000a81548160ff021916908315150217905550611481565b6001601260006101000a81548160ff0219169083151502179055505b565b600a5481565b611491611ec9565b73ffffffffffffffffffffffffffffffffffffffff166114af611880565b73ffffffffffffffffffffffffffffffffffffffff1614611505576040517f08c379a00000000000000000000000000000000000000000000000000000000081526004016114fc906125be565b60405180910390fd5b80600560006101000a81548173ffffffffffffffffffffffffffffffffffffffff021916908373ffffffffffffffffffffffffffffffffffffffff16021790555050565b611551611ec9565b73ffffffffffffffffffffffffffffffffffffffff1661156f611880565b73ffffffffffffffffffffffffffffffffffffffff16146115c5576040517f08c379a00000000000000000000000000000000000000000000000000000000081526004016115bc906125be565b60405180910390fd5b80600a8190555050565b60075481565b600b5481565b600260009054906101000a900473ffffffffffffffffffffffffffffffffffffffff1681565b611609611ec9565b73ffffffffffffffffffffffffffffffffffffffff16611627611880565b73ffffffffffffffffffffffffffffffffffffffff161461167d576040517f08c379a0000000000000000000000000000000000000000000000000000000008152600401611674906125be565b60405180910390fd5b8060108190555050565b60003073ffffffffffffffffffffffffffffffffffffffff1631905090565b6116ae611ec9565b73ffffffffffffffffffffffffffffffffffffffff166116cc611880565b73ffffffffffffffffffffffffffffffffffffffff1614611722576040517f08c379a0000000000000000000000000000000000000000000000000000000008152600401611719906125be565b60405180910390fd5b61172c6000611f13565b565b60095481565b600d5481565b611742611ec9565b73ffffffffffffffffffffffffffffffffffffffff16611760611880565b73ffffffffffffffffffffffffffffffffffffffff16146117b6576040517f08c379a00000000000000000000000000000000000000000000000000000000081526004016117ad906125be565b60405180910390fd5b80600360006101000a81548173ffffffffffffffffffffffffffffffffffffffff021916908373ffffffffffffffffffffffffffffffffffffffff16021790555050565b611802611ec9565b73ffffffffffffffffffffffffffffffffffffffff16611820611880565b73ffffffffffffffffffffffffffffffffffffffff1614611876576040517f08c379a000000000000000000000000000000000000000000000000000000000815260040161186d906125be565b60405180910390fd5b80600d8190555050565b60008060009054906101000a900473ffffffffffffffffffffffffffffffffffffffff16905090565b601260009054906101000a900460ff1681565b60065481565b60105481565b6000601260009054906101000a900460ff16905090565b6118e7611ec9565b73ffffffffffffffffffffffffffffffffffffffff16611905611880565b73ffffffffffffffffffffffffffffffffffffffff161461195b576040517f08c379a0000000000000000000000000000000000000000000000000000000008152600401611952906125be565b60405180910390fd5b6002600154036119a0576040517f08c379a0000000000000000000000000000000000000000000000000000000008152600401611997906122ef565b60405180910390fd5b6002600181905550600060646006543073ffffffffffffffffffffffffffffffffffffffff16316119d191906128ab565b6119db9190612934565b9050600060646007543073ffffffffffffffffffffffffffffffffffffffff1631611a0691906128ab565b611a109190612934565b9050600060646008543073ffffffffffffffffffffffffffffffffffffffff1631611a3b91906128ab565b611a459190612934565b9050600360009054906101000a900473ffffffffffffffffffffffffffffffffffffffff1673ffffffffffffffffffffffffffffffffffffffff166108fc849081150290604051600060405180830381858888f19350505050158015611aaf573d6000803e3d6000fd5b50600460009054906101000a900473ffffffffffffffffffffffffffffffffffffffff1673ffffffffffffffffffffffffffffffffffffffff166108fc839081150290604051600060405180830381858888f19350505050158015611b18573d6000803e3d6000fd5b50600560009054906101000a900473ffffffffffffffffffffffffffffffffffffffff1673ffffffffffffffffffffffffffffffffffffffff166108fc829081150290604051600060405180830381858888f19350505050158015611b81573d6000803e3d6000fd5b5050505060018081905550565b611b96611ec9565b73ffffffffffffffffffffffffffffffffffffffff16611bb4611880565b73ffffffffffffffffffffffffffffffffffffffff1614611c0a576040517f08c379a0000000000000000000000000000000000000000000000000000000008152600401611c01906125be565b60405180910390fd5b80600460006101000a81548173ffffffffffffffffffffffffffffffffffffffff021916908373ffffffffffffffffffffffffffffffffffffffff16021790555050565b600460009054906101000a900473ffffffffffffffffffffffffffffffffffffffff1681565b611c7c611ec9565b73ffffffffffffffffffffffffffffffffffffffff16611c9a611880565b73ffffffffffffffffffffffffffffffffffffffff1614611cf0576040517f08c379a0000000000000000000000000000000000000000000000000000000008152600401611ce7906125be565b60405180910390fd5b8060078190555050565b600f60009054906101000a900460ff1681565b611d15611ec9565b73ffffffffffffffffffffffffffffffffffffffff16611d33611880565b73ffffffffffffffffffffffffffffffffffffffff1614611d89576040517f08c379a0000000000000000000000000000000000000000000000000000000008152600401611d80906125be565b60405180910390fd5b600073ffffffffffffffffffffffffffffffffffffffff168173ffffffffffffffffffffffffffffffffffffffff1603611df8576040517f08c379a0000000000000000000000000000000000000000000000000000000008152600401611def906129d7565b60405180910390fd5b611e0181611f13565b50565b6000600260009054906101000a900473ffffffffffffffffffffffffffffffffffffffff1673ffffffffffffffffffffffffffffffffffffffff166370a08231306040518263ffffffff167c0100000000000000000000000000000000000000000000000000000000028152600401611e7d9190612018565b602060405180830381865afa158015611e9a573d6000803e3d6000fd5b505050506040513d601f19601f82011682018060405250810190611ebe9190612448565b905090565b60085481565b600033905090565b60008183611edf9190612934565b905092915050565b60008183611ef59190612855565b905092915050565b60008183611f0b91906128ab565b905092915050565b60008060009054906101000a900473ffffffffffffffffffffffffffffffffffffffff169050816000806101000a81548173ffffffffffffffffffffffffffffffffffffffff021916908373ffffffffffffffffffffffffffffffffffffffff1602179055508173ffffffffffffffffffffffffffffffffffffffff168173ffffffffffffffffffffffffffffffffffffffff167f8be0079c531659141344cd1fd0a4f28419497f9722a3daafe3b4186f6b6457e060405160405180910390a35050565b600073ffffffffffffffffffffffffffffffffffffffff82169050919050565b600061200282611fd7565b9050919050565b61201281611ff7565b82525050565b600060208201905061202d6000830184612009565b92915050565b600080fd5b600061204382611ff7565b9050919050565b61205381612038565b811461205e57600080fd5b50565b6000813590506120708161204a565b92915050565b60006020828403121561208c5761208b612033565b5b600061209a84828501612061565b91505092915050565b6000819050919050565b6120b6816120a3565b81146120c157600080fd5b50565b6000813590506120d3816120ad565b92915050565b6000602082840312156120ef576120ee612033565b5b60006120fd848285016120c4565b91505092915050565b61210f816120a3565b82525050565b600060208201905061212a6000830184612106565b92915050565b60008115159050919050565b61214581612130565b811461215057600080fd5b50565b6000813590506121628161213c565b92915050565b60006020828403121561217e5761217d612033565b5b600061218c84828501612153565b91505092915050565b61219e81611ff7565b81146121a957600080fd5b50565b6000813590506121bb81612195565b92915050565b6000602082840312156121d7576121d6612033565b5b60006121e5848285016121ac565b91505092915050565b6000819050919050565b600061221361220e61220984611fd7565b6121ee565b611fd7565b9050919050565b6000612225826121f8565b9050919050565b60006122378261221a565b9050919050565b6122478161222c565b82525050565b6000602082019050612262600083018461223e565b92915050565b61227181612130565b82525050565b600060208201905061228c6000830184612268565b92915050565b600082825260208201905092915050565b7f5265656e7472616e637947756172643a207265656e7472616e742063616c6c00600082015250565b60006122d9601f83612292565b91506122e4826122a3565b602082019050919050565b60006020820190508181036000830152612308816122cc565b9050919050565b7f43726f776453616c653a2063616e6e6f7420636c61696d20746f6b656e73207960008201527f6574000000000000000000000000000000000000000000000000000000000000602082015250565b600061236b602283612292565b91506123768261230f565b604082019050919050565b6000602082019050818103600083015261239a8161235e565b9050919050565b7f43726f776473616c653a20796f752068617665206e6f20746f6b656e7320746f60008201527f20636c61696d0000000000000000000000000000000000000000000000000000602082015250565b60006123fd602683612292565b9150612408826123a1565b604082019050919050565b6000602082019050818103600083015261242c816123f0565b9050919050565b600081519050612442816120ad565b92915050565b60006020828403121561245e5761245d612033565b5b600061246c84828501612433565b91505092915050565b7f43726f776453616c653a20496e73756666696369656e7420546f6b656e20426160008201527f6c616e636520746f206469737472696275746500000000000000000000000000602082015250565b60006124d1603383612292565b91506124dc82612475565b604082019050919050565b60006020820190508181036000830152612500816124c4565b9050919050565b600060408201905061251c6000830185612009565b6125296020830184612106565b9392505050565b60008151905061253f8161213c565b92915050565b60006020828403121561255b5761255a612033565b5b600061256984828501612530565b91505092915050565b7f4f776e61626c653a2063616c6c6572206973206e6f7420746865206f776e6572600082015250565b60006125a8602083612292565b91506125b382612572565b602082019050919050565b600060208201905081810360008301526125d78161259b565b9050919050565b7f43726f776453616c653a2043616e6e6f74205061727469636970617465206f6e60008201527f2070726573616c65000000000000000000000000000000000000000000000000602082015250565b600061263a602883612292565b9150612645826125de565b604082019050919050565b600060208201905081810360008301526126698161262d565b9050919050565b7f43726f776453616c653a2070726573616c6520616c726561647920736f6c642060008201527f6f75740000000000000000000000000000000000000000000000000000000000602082015250565b60006126cc602383612292565b91506126d782612670565b604082019050919050565b600060208201905081810360008301526126fb816126bf565b9050919050565b7f43726f776453616c653a20616d6f756e7420697320677265617465722074686160008201527f6e206d6178696d756d20616c6c6f636174696f6e000000000000000000000000602082015250565b600061275e603483612292565b915061276982612702565b604082019050919050565b6000602082019050818103600083015261278d81612751565b9050919050565b7f43726f776453616c653a20616d6f756e74206973206c657373207468616e206d60008201527f696e696d756d20616c6c6f636174696f6e000000000000000000000000000000602082015250565b60006127f0603183612292565b91506127fb82612794565b604082019050919050565b6000602082019050818103600083015261281f816127e3565b9050919050565b7f4e487b7100000000000000000000000000000000000000000000000000000000600052601160045260246000fd5b6000612860826120a3565b915061286b836120a3565b9250827fffffffffffffffffffffffffffffffffffffffffffffffffffffffffffffffff038211156128a05761289f612826565b5b828201905092915050565b60006128b6826120a3565b91506128c1836120a3565b9250817fffffffffffffffffffffffffffffffffffffffffffffffffffffffffffffffff04831182151516156128fa576128f9612826565b5b828202905092915050565b7f4e487b7100000000000000000000000000000000000000000000000000000000600052601260045260246000fd5b600061293f826120a3565b915061294a836120a3565b92508261295a57612959612905565b5b828204905092915050565b7f4f776e61626c653a206e6577206f776e657220697320746865207a65726f206160008201527f6464726573730000000000000000000000000000000000000000000000000000602082015250565b60006129c1602683612292565b91506129cc82612965565b604082019050919050565b600060208201905081810360008301526129f0816129b4565b905091905056fea2646970667358221220948e7a247f51e57de055bde516ac418669583b38d433605f1acba765c0dac1db64736f6c634300080d0033",
  "immutableReferences": {},
  "source": "//SPDX-License-Identifier: MIT\r\npragma solidity >=0.4.22 <0.9.0;\r\n\r\nimport \"@openzeppelin/contracts/access/Ownable.sol\";\r\nimport \"@openzeppelin/contracts/utils/math/SafeMath.sol\";\r\nimport \"@openzeppelin/contracts/token/ERC20/IERC20.sol\";\r\nimport \"@openzeppelin/contracts/security/ReentrancyGuard.sol\";\r\n\r\ncontract CrowdSale is Ownable, ReentrancyGuard {\r\n    using SafeMath for uint256;\r\n    IERC20 public tokenInstance;\r\n\r\n    //WITHDRAW VARIABLES\r\n\r\n    address public ownerFundReceiver; // receiving address of owner\r\n    address public labFeeFundReceiver; // receiving address of lab\r\n    address public devFeeFundReceiver; // receiving address of dev\r\n\r\n    uint256 public ownerPercent; // percentage of owner in terms of total collected CRO\r\n    uint256 public labPercent; // percentage of lab in terms of total collected CRO\r\n    uint256 public devPercent; // percentage of dev in terms of total collected CRO\r\n\r\n    //PRESALE VARIABLES\r\n\r\n    uint256 public croHardcap; // hardcap of the presale in terms of CRO\r\n    uint256 public tokenHardcap; // hardcap of the presale in terms of token\r\n    uint256 public soldTokens; // amount of tokens sold in the presale\r\n    uint256 public croRaised; //amount of raised CRO\r\n\r\n    uint256 public startTime; // starting time of presale in unix\r\n    uint256 public endTime; // ending time of presale in unix\r\n\r\n    bool public hasMaxMinAlloc; // check if the presale has max participation allocation per wallet\r\n    uint256 public maxAlloc; // maximum token participation allocation\r\n    uint256 public minAlloc; // minimum token participation allocation\r\n\r\n    bool public isPresaleStop; // presale pause/complete function\r\n\r\n    mapping(address => uint256) public presaleParticipation; // participation amount of a wallet address in terms of tokens\r\n\r\n    constructor(IERC20 _tokenInstance) {\r\n        tokenHardcap = 100 ether;\r\n        croHardcap = 10 ether;\r\n        soldTokens = 0;\r\n        croRaised = 0;\r\n        hasMaxMinAlloc = true;\r\n        maxAlloc = 1000000000000000000; // 1 ether\r\n        minAlloc = 500000000000000000; // 0.5 ether\r\n        isPresaleStop = false;\r\n        tokenInstance = _tokenInstance;\r\n        startTime = 1650661200;\r\n        endTime = 1650661500;\r\n        isPresaleStop = true;\r\n        ownerPercent = 95;\r\n        labPercent = 3;\r\n        devPercent = 2;\r\n        ownerFundReceiver = 0x3bA8E70a107491864D783aBc6d3767be3884CE84;\r\n        labFeeFundReceiver = 0x3bA8E70a107491864D783aBc6d3767be3884CE84;\r\n        devFeeFundReceiver = 0x3bA8E70a107491864D783aBc6d3767be3884CE84;\r\n    }\r\n\r\n    function checkPresaleDuration() public {\r\n        if (block.timestamp > startTime && block.timestamp < endTime) {\r\n            isPresaleStop = false;\r\n        } else {\r\n            isPresaleStop = true;\r\n        }\r\n    }\r\n\r\n    // payable functions\r\n    function presaleBuy() external payable {\r\n        checkPresaleDuration();\r\n        uint256 tokenPrice = tokenHardcap.div(croHardcap);\r\n        require(\r\n            isPresaleStop == false,\r\n            \"CrowdSale: Cannot Participate on presale\"\r\n        );\r\n        require((croRaised.add(msg.value) <= croHardcap), \"CrowdSale: presale already sold out\");\r\n        if (hasMaxMinAlloc == true) {\r\n            require(\r\n                msg.value.add(presaleParticipation[msg.sender].div(tokenPrice)) <= maxAlloc,\r\n                \"CrowdSale: amount is greater than maximum allocation\"\r\n            );\r\n            require(\r\n                msg.value >= minAlloc,\r\n                \"CrowdSale: amount is less than minimum allocation\"\r\n            );\r\n\r\n            presaleParticipation[msg.sender] += (msg.value.mul(tokenPrice));\r\n            soldTokens += (msg.value.mul(tokenPrice));\r\n            croRaised += msg.value;\r\n        } else {\r\n            presaleParticipation[msg.sender] += (msg.value.mul(tokenPrice));\r\n            soldTokens += (msg.value.mul(tokenPrice));\r\n            croRaised += msg.value;\r\n        }\r\n    }\r\n\r\n    function sendToContract() external payable {\r\n\r\n    }\r\n\r\n    function distributeCRO() public payable onlyOwner nonReentrant {\r\n        uint256 ownerCRO = address(this).balance * ownerPercent / 100;\r\n        uint256 labCRO = address(this).balance * labPercent / 100;\r\n        uint256 devCRO = address(this).balance * devPercent / 100;\r\n\r\n        payable(ownerFundReceiver).transfer(ownerCRO);\r\n        payable(labFeeFundReceiver).transfer(labCRO);\r\n        payable(devFeeFundReceiver).transfer(devCRO);\r\n    }\r\n\r\n    // claim function\r\n\r\n    function claimPresale() external nonReentrant {\r\n        checkPresaleDuration();\r\n        require(isPresaleStop == true, \"CrowdSale: cannot claim tokens yet\");\r\n        require(\r\n            presaleParticipation[msg.sender] > 0,\r\n            \"Crowdsale: you have no tokens to claim\"\r\n        );\r\n        require(tokenInstance.balanceOf(address(this)) >= 0, \"CrowdSale: Insufficient Token Balance to distribute\");\r\n        uint256 tempBalance = presaleParticipation[msg.sender];\r\n        presaleParticipation[msg.sender] = 0;\r\n        tokenInstance.transfer(msg.sender, tempBalance);\r\n    }\r\n\r\n    // change value functions\r\n\r\n    function changeTokenInstance(IERC20 _tokenInstance) external onlyOwner {\r\n        tokenInstance = _tokenInstance;\r\n    }\r\n\r\n    function changeHasMaxMinAlloc(bool _hasMaxMinAlloc) external onlyOwner {\r\n        hasMaxMinAlloc = _hasMaxMinAlloc;\r\n    }\r\n\r\n    function changeMaxAlloc(uint256 _maxAlloc) external onlyOwner {\r\n        maxAlloc = _maxAlloc;\r\n    }\r\n\r\n    function changeMinAlloc(uint256 _minAlloc) external onlyOwner {\r\n        minAlloc = _minAlloc;\r\n    }\r\n\r\n    function changeStartTime(uint256 _startTime) external onlyOwner {\r\n        startTime = _startTime;\r\n    }\r\n\r\n    function changeEndTime(uint256 _endTime) external onlyOwner {\r\n        endTime = _endTime;\r\n    }\r\n\r\n    function changeOwnerFeeFundReceiver(address _ownerFundReceiver)\r\n        external\r\n        onlyOwner\r\n    {\r\n        ownerFundReceiver = _ownerFundReceiver;\r\n    }\r\n\r\n    function changeLabFeeFundReceiver(address _labFeeFundReceiver)\r\n        external\r\n        onlyOwner\r\n    {\r\n        labFeeFundReceiver = _labFeeFundReceiver;\r\n    }\r\n\r\n    function changeDevFeeFundReceiver(address _ownerFundReceiver)\r\n        external\r\n        onlyOwner\r\n    {\r\n        devFeeFundReceiver = _ownerFundReceiver;\r\n    }\r\n\r\n    function changeOwnerPercent(uint256 _ownerPercent) external onlyOwner {\r\n        ownerPercent = _ownerPercent;\r\n    }\r\n\r\n    function changeLabPercent(uint256 _labPercent) external onlyOwner {\r\n        labPercent = _labPercent;\r\n    }\r\n\r\n    function changeDevPercent(uint256 _devPercent) external onlyOwner {\r\n        devPercent = _devPercent;\r\n    }\r\n\r\n    function changeTokenHardcap(uint256 _tokenHardcap) external onlyOwner {\r\n        tokenHardcap = _tokenHardcap;\r\n    }\r\n\r\n    function changeCroHardcap(uint256 _croHardcap) external onlyOwner {\r\n        croHardcap = _croHardcap;\r\n    }\r\n\r\n    // View functions\r\n    function getTokenInstanceBalance() external view returns (uint256) {\r\n        return tokenInstance.balanceOf(address(this));\r\n    }\r\n\r\n    function getContractBalance() external view returns (uint256) {\r\n        return address(this).balance;\r\n    }\r\n\r\n    function getIsPresaleStop() external view returns (bool) {\r\n        return isPresaleStop;\r\n    }\r\n}\r\n",
  "sourcePath": "C:\\Users\\Gaaaaab\\Desktop\\PROJECTS\\LAB\\lab-launchpad\\contracts\\CrowdSaleContract.sol",
  "compiler": {
    "name": "solc",
    "version": "0.8.13+commit.abaa5c0e.Emscripten.clang"
  },
  "schemaVersion": "3.4.7",
  "updatedAt": "2022-04-24T08:55:39.173Z",
  "devdoc": {
    "kind": "dev",
    "methods": {
      "owner()": {
        "details": "Returns the address of the current owner."
      },
      "renounceOwnership()": {
        "details": "Leaves the contract without owner. It will not be possible to call `onlyOwner` functions anymore. Can only be called by the current owner. NOTE: Renouncing ownership will leave the contract without an owner, thereby removing any functionality that is only available to the owner."
      },
      "transferOwnership(address)": {
        "details": "Transfers ownership of the contract to a new account (`newOwner`). Can only be called by the current owner."
      }
    },
    "version": 1
  },
  "userdoc": {
    "kind": "user",
    "methods": {},
    "version": 1
  }
}