{
  "contractName": "LabToken",
  "abi": [
    {
      "inputs": [],
      "stateMutability": "nonpayable",
      "type": "constructor"
    },
    {
      "anonymous": false,
      "inputs": [
        {
          "indexed": true,
          "internalType": "address",
          "name": "owner",
          "type": "address"
        },
        {
          "indexed": true,
          "internalType": "address",
          "name": "spender",
          "type": "address"
        },
        {
          "indexed": false,
          "internalType": "uint256",
          "name": "value",
          "type": "uint256"
        }
      ],
      "name": "Approval",
      "type": "event"
    },
    {
      "anonymous": false,
      "inputs": [
        {
          "indexed": true,
          "internalType": "address",
          "name": "previousOwner",
          "type": "address"
        },
        {
          "indexed": true,
          "internalType": "address",
          "name": "newOwner",
          "type": "address"
        }
      ],
      "name": "OwnershipTransferred",
      "type": "event"
    },
    {
      "anonymous": false,
      "inputs": [
        {
          "indexed": true,
          "internalType": "address",
          "name": "from",
          "type": "address"
        },
        {
          "indexed": true,
          "internalType": "address",
          "name": "to",
          "type": "address"
        },
        {
          "indexed": false,
          "internalType": "uint256",
          "name": "value",
          "type": "uint256"
        }
      ],
      "name": "Transfer",
      "type": "event"
    },
    {
      "inputs": [],
      "name": "CRO_RAISED_PRESALE",
      "outputs": [
        {
          "internalType": "uint256",
          "name": "",
          "type": "uint256"
        }
      ],
      "stateMutability": "view",
      "type": "function"
    },
    {
      "inputs": [],
      "name": "CRO_RAISED_PUBLIC",
      "outputs": [
        {
          "internalType": "uint256",
          "name": "",
          "type": "uint256"
        }
      ],
      "stateMutability": "view",
      "type": "function"
    },
    {
      "inputs": [],
      "name": "LAB_HARDCAP_PRESALE",
      "outputs": [
        {
          "internalType": "uint256",
          "name": "",
          "type": "uint256"
        }
      ],
      "stateMutability": "view",
      "type": "function"
    },
    {
      "inputs": [],
      "name": "LAB_HARDCAP_PUBLIC",
      "outputs": [
        {
          "internalType": "uint256",
          "name": "",
          "type": "uint256"
        }
      ],
      "stateMutability": "view",
      "type": "function"
    },
    {
      "inputs": [],
      "name": "LAB_PER_CRO_PRESALE",
      "outputs": [
        {
          "internalType": "uint256",
          "name": "",
          "type": "uint256"
        }
      ],
      "stateMutability": "view",
      "type": "function"
    },
    {
      "inputs": [],
      "name": "LAB_PER_CRO_PUBLIC",
      "outputs": [
        {
          "internalType": "uint256",
          "name": "",
          "type": "uint256"
        }
      ],
      "stateMutability": "view",
      "type": "function"
    },
    {
      "inputs": [],
      "name": "LAB_TOTAL_PRESALE",
      "outputs": [
        {
          "internalType": "uint256",
          "name": "",
          "type": "uint256"
        }
      ],
      "stateMutability": "view",
      "type": "function"
    },
    {
      "inputs": [
        {
          "internalType": "address",
          "name": "owner",
          "type": "address"
        },
        {
          "internalType": "address",
          "name": "spender",
          "type": "address"
        }
      ],
      "name": "allowance",
      "outputs": [
        {
          "internalType": "uint256",
          "name": "",
          "type": "uint256"
        }
      ],
      "stateMutability": "view",
      "type": "function"
    },
    {
      "inputs": [
        {
          "internalType": "address",
          "name": "spender",
          "type": "address"
        },
        {
          "internalType": "uint256",
          "name": "amount",
          "type": "uint256"
        }
      ],
      "name": "approve",
      "outputs": [
        {
          "internalType": "bool",
          "name": "",
          "type": "bool"
        }
      ],
      "stateMutability": "nonpayable",
      "type": "function"
    },
    {
      "inputs": [
        {
          "internalType": "address",
          "name": "account",
          "type": "address"
        }
      ],
      "name": "balanceOf",
      "outputs": [
        {
          "internalType": "uint256",
          "name": "",
          "type": "uint256"
        }
      ],
      "stateMutability": "view",
      "type": "function"
    },
    {
      "inputs": [],
      "name": "claimPause",
      "outputs": [
        {
          "internalType": "bool",
          "name": "",
          "type": "bool"
        }
      ],
      "stateMutability": "view",
      "type": "function"
    },
    {
      "inputs": [],
      "name": "decimals",
      "outputs": [
        {
          "internalType": "uint8",
          "name": "",
          "type": "uint8"
        }
      ],
      "stateMutability": "view",
      "type": "function"
    },
    {
      "inputs": [
        {
          "internalType": "address",
          "name": "spender",
          "type": "address"
        },
        {
          "internalType": "uint256",
          "name": "subtractedValue",
          "type": "uint256"
        }
      ],
      "name": "decreaseAllowance",
      "outputs": [
        {
          "internalType": "bool",
          "name": "",
          "type": "bool"
        }
      ],
      "stateMutability": "nonpayable",
      "type": "function"
    },
    {
      "inputs": [],
      "name": "farmOperator",
      "outputs": [
        {
          "internalType": "address",
          "name": "",
          "type": "address"
        }
      ],
      "stateMutability": "view",
      "type": "function"
    },
    {
      "inputs": [
        {
          "internalType": "address",
          "name": "spender",
          "type": "address"
        },
        {
          "internalType": "uint256",
          "name": "addedValue",
          "type": "uint256"
        }
      ],
      "name": "increaseAllowance",
      "outputs": [
        {
          "internalType": "bool",
          "name": "",
          "type": "bool"
        }
      ],
      "stateMutability": "nonpayable",
      "type": "function"
    },
    {
      "inputs": [],
      "name": "name",
      "outputs": [
        {
          "internalType": "string",
          "name": "",
          "type": "string"
        }
      ],
      "stateMutability": "view",
      "type": "function"
    },
    {
      "inputs": [],
      "name": "owner",
      "outputs": [
        {
          "internalType": "address",
          "name": "",
          "type": "address"
        }
      ],
      "stateMutability": "view",
      "type": "function"
    },
    {
      "inputs": [
        {
          "internalType": "address",
          "name": "",
          "type": "address"
        }
      ],
      "name": "participation",
      "outputs": [
        {
          "internalType": "uint256",
          "name": "",
          "type": "uint256"
        }
      ],
      "stateMutability": "view",
      "type": "function"
    },
    {
      "inputs": [
        {
          "internalType": "address",
          "name": "",
          "type": "address"
        }
      ],
      "name": "presaleBalance",
      "outputs": [
        {
          "internalType": "uint256",
          "name": "",
          "type": "uint256"
        }
      ],
      "stateMutability": "view",
      "type": "function"
    },
    {
      "inputs": [],
      "name": "presalePause",
      "outputs": [
        {
          "internalType": "bool",
          "name": "",
          "type": "bool"
        }
      ],
      "stateMutability": "view",
      "type": "function"
    },
    {
      "inputs": [],
      "name": "publicPause",
      "outputs": [
        {
          "internalType": "bool",
          "name": "",
          "type": "bool"
        }
      ],
      "stateMutability": "view",
      "type": "function"
    },
    {
      "inputs": [],
      "name": "publicSaleOperator",
      "outputs": [
        {
          "internalType": "address",
          "name": "",
          "type": "address"
        }
      ],
      "stateMutability": "view",
      "type": "function"
    },
    {
      "inputs": [],
      "name": "renounceOwnership",
      "outputs": [],
      "stateMutability": "nonpayable",
      "type": "function"
    },
    {
      "inputs": [],
      "name": "stakingOperator",
      "outputs": [
        {
          "internalType": "address",
          "name": "",
          "type": "address"
        }
      ],
      "stateMutability": "view",
      "type": "function"
    },
    {
      "inputs": [],
      "name": "symbol",
      "outputs": [
        {
          "internalType": "string",
          "name": "",
          "type": "string"
        }
      ],
      "stateMutability": "view",
      "type": "function"
    },
    {
      "inputs": [],
      "name": "totalSupply",
      "outputs": [
        {
          "internalType": "uint256",
          "name": "",
          "type": "uint256"
        }
      ],
      "stateMutability": "view",
      "type": "function"
    },
    {
      "inputs": [
        {
          "internalType": "address",
          "name": "to",
          "type": "address"
        },
        {
          "internalType": "uint256",
          "name": "amount",
          "type": "uint256"
        }
      ],
      "name": "transfer",
      "outputs": [
        {
          "internalType": "bool",
          "name": "",
          "type": "bool"
        }
      ],
      "stateMutability": "nonpayable",
      "type": "function"
    },
    {
      "inputs": [
        {
          "internalType": "address",
          "name": "from",
          "type": "address"
        },
        {
          "internalType": "address",
          "name": "to",
          "type": "address"
        },
        {
          "internalType": "uint256",
          "name": "amount",
          "type": "uint256"
        }
      ],
      "name": "transferFrom",
      "outputs": [
        {
          "internalType": "bool",
          "name": "",
          "type": "bool"
        }
      ],
      "stateMutability": "nonpayable",
      "type": "function"
    },
    {
      "inputs": [
        {
          "internalType": "address",
          "name": "newOwner",
          "type": "address"
        }
      ],
      "name": "transferOwnership",
      "outputs": [],
      "stateMutability": "nonpayable",
      "type": "function"
    },
    {
      "inputs": [
        {
          "internalType": "uint256",
          "name": "_labHardcap",
          "type": "uint256"
        }
      ],
      "name": "setLabHardcap",
      "outputs": [],
      "stateMutability": "nonpayable",
      "type": "function"
    },
    {
      "inputs": [
        {
          "internalType": "uint256",
          "name": "_raisedCro",
          "type": "uint256"
        }
      ],
      "name": "setRaisedCro",
      "outputs": [],
      "stateMutability": "nonpayable",
      "type": "function"
    },
    {
      "inputs": [
        {
          "internalType": "uint256",
          "name": "_participation",
          "type": "uint256"
        }
      ],
      "name": "setParticipation",
      "outputs": [],
      "stateMutability": "nonpayable",
      "type": "function"
    },
    {
      "inputs": [
        {
          "internalType": "address",
          "name": "_stakingOperator",
          "type": "address"
        }
      ],
      "name": "setStakingOperator",
      "outputs": [],
      "stateMutability": "nonpayable",
      "type": "function"
    },
    {
      "inputs": [
        {
          "internalType": "address",
          "name": "_farmOperator",
          "type": "address"
        }
      ],
      "name": "setFarmOperator",
      "outputs": [],
      "stateMutability": "nonpayable",
      "type": "function"
    },
    {
      "inputs": [
        {
          "internalType": "address",
          "name": "_publicSaleOperator",
          "type": "address"
        }
      ],
      "name": "setPublicSaleOperator",
      "outputs": [],
      "stateMutability": "nonpayable",
      "type": "function"
    },
    {
      "inputs": [],
      "name": "setPresalePause",
      "outputs": [],
      "stateMutability": "nonpayable",
      "type": "function"
    },
    {
      "inputs": [],
      "name": "setPublicPause",
      "outputs": [],
      "stateMutability": "nonpayable",
      "type": "function"
    },
    {
      "inputs": [],
      "name": "setClaimPause",
      "outputs": [],
      "stateMutability": "nonpayable",
      "type": "function"
    },
    {
      "inputs": [
        {
          "internalType": "contract IERC721",
          "name": "_cs",
          "type": "address"
        }
      ],
      "name": "setCs",
      "outputs": [],
      "stateMutability": "nonpayable",
      "type": "function"
    },
    {
      "inputs": [],
      "name": "getPercentage",
      "outputs": [
        {
          "internalType": "uint256",
          "name": "",
          "type": "uint256"
        }
      ],
      "stateMutability": "view",
      "type": "function"
    },
    {
      "inputs": [],
      "name": "getTokenSale",
      "outputs": [
        {
          "internalType": "uint256",
          "name": "",
          "type": "uint256"
        }
      ],
      "stateMutability": "view",
      "type": "function"
    },
    {
      "inputs": [],
      "name": "getTotalPayment",
      "outputs": [
        {
          "internalType": "uint256",
          "name": "",
          "type": "uint256"
        }
      ],
      "stateMutability": "view",
      "type": "function"
    },
    {
      "inputs": [],
      "name": "getRefund",
      "outputs": [
        {
          "internalType": "uint256",
          "name": "",
          "type": "uint256"
        }
      ],
      "stateMutability": "view",
      "type": "function"
    },
    {
      "inputs": [],
      "name": "presaleBuy",
      "outputs": [],
      "stateMutability": "payable",
      "type": "function"
    },
    {
      "inputs": [],
      "name": "presaleClaim",
      "outputs": [],
      "stateMutability": "nonpayable",
      "type": "function"
    },
    {
      "inputs": [],
      "name": "publicsaleBuy",
      "outputs": [],
      "stateMutability": "payable",
      "type": "function"
    },
    {
      "inputs": [],
      "name": "publicClaim",
      "outputs": [],
      "stateMutability": "nonpayable",
      "type": "function"
    },
    {
      "inputs": [],
      "name": "fundsClaim",
      "outputs": [],
      "stateMutability": "nonpayable",
      "type": "function"
    },
    {
      "inputs": [
        {
          "internalType": "uint256",
          "name": "_amount",
          "type": "uint256"
        },
        {
          "internalType": "address",
          "name": "_user",
          "type": "address"
        }
      ],
      "name": "forOperator",
      "outputs": [],
      "stateMutability": "nonpayable",
      "type": "function"
    },
    {
      "inputs": [
        {
          "internalType": "uint256",
          "name": "_amount",
          "type": "uint256"
        }
      ],
      "name": "emergencyMint",
      "outputs": [],
      "stateMutability": "nonpayable",
      "type": "function"
    }
  ],
  "bytecode": "0x608060405260326008556a108b2a2c280290940000006009556028600c5562989680600d556001601160006101000a81548160ff0219169083151502179055506001601160016101000a81548160ff0219169083151502179055506001601160026101000a81548160ff0219169083151502179055503480156200008257600080fd5b506040518060400160405280600381526020017f4c414200000000000000000000000000000000000000000000000000000000008152506040518060400160405280600381526020017f4c4142000000000000000000000000000000000000000000000000000000000081525081600390805190602001906200010792919062000400565b5080600490805190602001906200012092919062000400565b50505062000155620001406200019e640100000000026401000000009004565b620001a6640100000000026401000000009004565b6001600681905550620001987392081548f0b1046c458137355f27fa37f4a7bbb96b04bff49bad7cbc827e0000006200026c640100000000026401000000009004565b6200065b565b600033905090565b6000600560009054906101000a900473ffffffffffffffffffffffffffffffffffffffff16905081600560006101000a81548173ffffffffffffffffffffffffffffffffffffffff021916908373ffffffffffffffffffffffffffffffffffffffff1602179055508173ffffffffffffffffffffffffffffffffffffffff168173ffffffffffffffffffffffffffffffffffffffff167f8be0079c531659141344cd1fd0a4f28419497f9722a3daafe3b4186f6b6457e060405160405180910390a35050565b600073ffffffffffffffffffffffffffffffffffffffff168273ffffffffffffffffffffffffffffffffffffffff1603620002de576040517f08c379a0000000000000000000000000000000000000000000000000000000008152600401620002d59062000511565b60405180910390fd5b620002fb60008383620003f6640100000000026401000000009004565b80600260008282546200030f91906200056c565b92505081905550806000808473ffffffffffffffffffffffffffffffffffffffff1673ffffffffffffffffffffffffffffffffffffffff16815260200190815260200160002060008282546200036691906200056c565b925050819055508173ffffffffffffffffffffffffffffffffffffffff16600073ffffffffffffffffffffffffffffffffffffffff167fddf252ad1be2c89b69c2b068fc378daa952ba7f163c4a11628f55a4df523b3ef83604051620003cd9190620005da565b60405180910390a3620003f260008383620003fb640100000000026401000000009004565b5050565b505050565b505050565b8280546200040e9062000626565b90600052602060002090601f0160209004810192826200043257600085556200047e565b82601f106200044d57805160ff19168380011785556200047e565b828001600101855582156200047e579182015b828111156200047d57825182559160200191906001019062000460565b5b5090506200048d919062000491565b5090565b5b80821115620004ac57600081600090555060010162000492565b5090565b600082825260208201905092915050565b7f45524332303a206d696e7420746f20746865207a65726f206164647265737300600082015250565b6000620004f9601f83620004b0565b91506200050682620004c1565b602082019050919050565b600060208201905081810360008301526200052c81620004ea565b9050919050565b6000819050919050565b7f4e487b7100000000000000000000000000000000000000000000000000000000600052601160045260246000fd5b6000620005798262000533565b9150620005868362000533565b9250827fffffffffffffffffffffffffffffffffffffffffffffffffffffffffffffffff03821115620005be57620005bd6200053d565b5b828201905092915050565b620005d48162000533565b82525050565b6000602082019050620005f16000830184620005c9565b92915050565b7f4e487b7100000000000000000000000000000000000000000000000000000000600052602260045260246000fd5b600060028204905060018216806200063f57607f821691505b602082108103620006555762000654620005f7565b5b50919050565b613ac6806200066b6000396000f3fe6080604052600436106102e6576000357c0100000000000000000000000000000000000000000000000000000000900480637e0e5ab911610192578063ac6e0d0b116100f9578063d7e1efd1116100b2578063e1aed72f1161008c578063e1aed72f14610a6d578063e9b3949a14610a96578063f2fde38b14610abf578063ffcc66dc14610ae8576102e6565b8063d7e1efd1146109dc578063daaa09a414610a05578063dd62ed3e14610a30576102e6565b8063ac6e0d0b14610904578063b2d5ae441461091b578063c9b5f50b14610946578063cd3739d91461096f578063d4f2e3fb14610986578063d75097d9146109b1576102e6565b8063958427bc1161014b578063958427bc146107cc57806395d89b41146107f757806396f3a8ad14610822578063a457c2d71461085f578063a9059cbb1461089c578063a9896b56146108d9576102e6565b80637e0e5ab9146106ba578063853cda55146106e35780638912248d1461070e5780638da5cb5b14610739578063903eed8714610764578063935955bc1461078f576102e6565b8063313ce567116102515780635771fe9c1161020a5780636cb4b69d116101e45780636cb4b69d1461061057806370a082311461063b578063715018a6146106785780637875d95a1461068f576102e6565b80635771fe9c146105a557806359511868146105ce57806366bf4380146105f9576102e6565b8063313ce567146104da57806333ba9daa14610505578063378903f614610530578063395093511461053a578063418f217e146105775780634ab3932b1461058e576102e6565b8063142989b6116102a3578063142989b6146103fd57806318160ddd146104285780631b415239146104535780631ddc41511461046a57806323b872dd146104935780632712d40b146104d0576102e6565b806303d60eee146102eb57806306fdde0314610316578063095ea7b31461034157806309d5e9891461037e5780630b2accb2146103a75780630d471006146103d2575b600080fd5b3480156102f757600080fd5b50610300610b11565b60405161030d9190612b2d565b60405180910390f35b34801561032257600080fd5b5061032b610b17565b6040516103389190612be1565b60405180910390f35b34801561034d57600080fd5b5061036860048036038101906103639190612c92565b610ba9565b6040516103759190612ced565b60405180910390f35b34801561038a57600080fd5b506103a560048036038101906103a09190612d08565b610bcc565b005b3480156103b357600080fd5b506103bc610c8c565b6040516103c99190612b2d565b60405180910390f35b3480156103de57600080fd5b506103e7610ce7565b6040516103f49190612b2d565b60405180910390f35b34801561040957600080fd5b50610412610ced565b60405161041f9190612d44565b60405180910390f35b34801561043457600080fd5b5061043d610d13565b60405161044a9190612b2d565b60405180910390f35b34801561045f57600080fd5b50610468610d1d565b005b34801561047657600080fd5b50610491600480360381019061048c9190612d5f565b610eea565b005b34801561049f57600080fd5b506104ba60048036038101906104b59190612d9f565b611038565b6040516104c79190612ced565b60405180910390f35b6104d8611067565b005b3480156104e657600080fd5b506104ef6113b3565b6040516104fc9190612e0e565b60405180910390f35b34801561051157600080fd5b5061051a6113bc565b6040516105279190612ced565b60405180910390f35b6105386113cf565b005b34801561054657600080fd5b50610561600480360381019061055c9190612c92565b611477565b60405161056e9190612ced565b60405180910390f35b34801561058357600080fd5b5061058c611521565b005b34801561059a57600080fd5b506105a36116de565b005b3480156105b157600080fd5b506105cc60048036038101906105c79190612e29565b611786565b005b3480156105da57600080fd5b506105e361180c565b6040516105f09190612b2d565b60405180910390f35b34801561060557600080fd5b5061060e611812565b005b34801561061c57600080fd5b506106256118ba565b6040516106329190612b2d565b60405180910390f35b34801561064757600080fd5b50610662600480360381019061065d9190612d08565b6118dd565b60405161066f9190612b2d565b60405180910390f35b34801561068457600080fd5b5061068d611925565b005b34801561069b57600080fd5b506106a46119ad565b6040516106b19190612ced565b60405180910390f35b3480156106c657600080fd5b506106e160048036038101906106dc9190612e29565b6119c0565b005b3480156106ef57600080fd5b506106f8611a46565b6040516107059190612d44565b60405180910390f35b34801561071a57600080fd5b50610723611a6c565b6040516107309190612b2d565b60405180910390f35b34801561074557600080fd5b5061074e611a72565b60405161075b9190612d44565b60405180910390f35b34801561077057600080fd5b50610779611a9c565b6040516107869190612b2d565b60405180910390f35b34801561079b57600080fd5b506107b660048036038101906107b19190612d08565b611aa2565b6040516107c39190612b2d565b60405180910390f35b3480156107d857600080fd5b506107e1611aba565b6040516107ee9190612d44565b60405180910390f35b34801561080357600080fd5b5061080c611ae0565b6040516108199190612be1565b60405180910390f35b34801561082e57600080fd5b5061084960048036038101906108449190612d08565b611b72565b6040516108569190612b2d565b60405180910390f35b34801561086b57600080fd5b5061088660048036038101906108819190612c92565b611b8a565b6040516108939190612ced565b60405180910390f35b3480156108a857600080fd5b506108c360048036038101906108be9190612c92565b611c74565b6040516108d09190612ced565b60405180910390f35b3480156108e557600080fd5b506108ee611c97565b6040516108fb9190612b2d565b60405180910390f35b34801561091057600080fd5b50610919611cba565b005b34801561092757600080fd5b50610930611d96565b60405161093d9190612b2d565b60405180910390f35b34801561095257600080fd5b5061096d60048036038101906109689190612e94565b611df6565b005b34801561097b57600080fd5b50610984611eb6565b005b34801561099257600080fd5b5061099b611f5e565b6040516109a89190612b2d565b60405180910390f35b3480156109bd57600080fd5b506109c6611f64565b6040516109d39190612b2d565b60405180910390f35b3480156109e857600080fd5b50610a0360048036038101906109fe9190612d08565b611f6a565b005b348015610a1157600080fd5b50610a1a61202a565b604051610a279190612ced565b60405180910390f35b348015610a3c57600080fd5b50610a576004803603810190610a529190612ec1565b61203d565b604051610a649190612b2d565b60405180910390f35b348015610a7957600080fd5b50610a946004803603810190610a8f9190612e29565b6120c4565b005b348015610aa257600080fd5b50610abd6004803603810190610ab89190612d08565b612187565b005b348015610acb57600080fd5b50610ae66004803603810190610ae19190612d08565b612247565b005b348015610af457600080fd5b50610b0f6004803603810190610b0a9190612e29565b61233e565b005b600d5481565b606060038054610b2690612f30565b80601f0160208091040260200160405190810160405280929190818152602001828054610b5290612f30565b8015610b9f5780601f10610b7457610100808354040283529160200191610b9f565b820191906000526020600020905b815481529060010190602001808311610b8257829003601f168201915b5050505050905090565b600080610bb46123c7565b9050610bc18185856123cf565b600191505092915050565b610bd46123c7565b73ffffffffffffffffffffffffffffffffffffffff16610bf2611a72565b73ffffffffffffffffffffffffffffffffffffffff1614610c48576040517f08c379a0000000000000000000000000000000000000000000000000000000008152600401610c3f90612fad565b60405180910390fd5b80601260006101000a81548173ffffffffffffffffffffffffffffffffffffffff021916908373ffffffffffffffffffffffffffffffffffffffff16021790555050565b6000610ce2600e54600f60003373ffffffffffffffffffffffffffffffffffffffff1673ffffffffffffffffffffffffffffffffffffffff1681526020019081526020016000205461259890919063ffffffff16565b905090565b600a5481565b601260009054906101000a900473ffffffffffffffffffffffffffffffffffffffff1681565b6000600254905090565b600260065403610d62576040517f08c379a0000000000000000000000000000000000000000000000000000000008152600401610d5990613019565b60405180910390fd5b6002600681905550601160029054906101000a900460ff1615610dba576040517f08c379a0000000000000000000000000000000000000000000000000000000008152600401610db190613085565b60405180910390fd5b6000600f60003373ffffffffffffffffffffffffffffffffffffffff1673ffffffffffffffffffffffffffffffffffffffff1681526020019081526020016000205411610e3c576040517f08c379a0000000000000000000000000000000000000000000000000000000008152600401610e33906130f1565b60405180910390fd5b3373ffffffffffffffffffffffffffffffffffffffff166108fc610e5e611d96565b9081150290604051600060405180830381858888f19350505050158015610e89573d6000803e3d6000fd5b50610e9b33610e96611c97565b6125ae565b6000600f60003373ffffffffffffffffffffffffffffffffffffffff1673ffffffffffffffffffffffffffffffffffffffff168152602001908152602001600020819055506001600681905550565b601160039054906101000a900473ffffffffffffffffffffffffffffffffffffffff1673ffffffffffffffffffffffffffffffffffffffff163373ffffffffffffffffffffffffffffffffffffffff161480610f935750601260009054906101000a900473ffffffffffffffffffffffffffffffffffffffff1673ffffffffffffffffffffffffffffffffffffffff163373ffffffffffffffffffffffffffffffffffffffff16145b80610feb5750601360009054906101000a900473ffffffffffffffffffffffffffffffffffffffff1673ffffffffffffffffffffffffffffffffffffffff163373ffffffffffffffffffffffffffffffffffffffff16145b61102a576040517f08c379a00000000000000000000000000000000000000000000000000000000081526004016110219061315d565b60405180910390fd5b61103481836125ae565b5050565b6000806110436123c7565b905061105085828561270d565b61105b858585612799565b60019150509392505050565b601160009054906101000a900460ff16156110b7576040517f08c379a00000000000000000000000000000000000000000000000000000000081526004016110ae906131c9565b60405180910390fd5b690c19ac8d08b56b180000600854346110d09190613218565b601060003373ffffffffffffffffffffffffffffffffffffffff1673ffffffffffffffffffffffffffffffffffffffff1681526020019081526020016000205461111a9190613272565b111561115b576040517f08c379a000000000000000000000000000000000000000000000000000000000815260040161115290613314565b60405180910390fd5b6009546008543461116c9190613218565b600a546111799190613272565b11156111ba576040517f08c379a00000000000000000000000000000000000000000000000000000000081526004016111b190613380565b60405180910390fd5b6000600760009054906101000a900473ffffffffffffffffffffffffffffffffffffffff1673ffffffffffffffffffffffffffffffffffffffff166370a08231336040518263ffffffff167c01000000000000000000000000000000000000000000000000000000000281526004016112339190612d44565b602060405180830381865afa158015611250573d6000803e3d6000fd5b505050506040513d601f19601f8201168201806040525081019061127491906133b5565b116112b4576040517f08c379a00000000000000000000000000000000000000000000000000000000081526004016112ab9061342e565b60405180910390fd5b7394409240dee7e71fba10640ed57eec3fb8097ca873ffffffffffffffffffffffffffffffffffffffff166108fc349081150290604051600060405180830381858888f1935050505015801561130e573d6000803e3d6000fd5b506008543461131d9190613218565b601060003373ffffffffffffffffffffffffffffffffffffffff1673ffffffffffffffffffffffffffffffffffffffff168152602001908152602001600020600082825461136b9190613272565b92505081905550600854346113809190613218565b600a60008282546113919190613272565b9250508190555034600b60008282546113aa9190613272565b92505081905550565b60006012905090565b601160009054906101000a900460ff1681565b601160019054906101000a900460ff161561141f576040517f08c379a00000000000000000000000000000000000000000000000000000000081526004016114169061349a565b60405180910390fd5b34600f60003373ffffffffffffffffffffffffffffffffffffffff1673ffffffffffffffffffffffffffffffffffffffff168152602001908152602001600020600082825461146e9190613272565b92505081905550565b6000806114826123c7565b9050611516818585600160008673ffffffffffffffffffffffffffffffffffffffff1673ffffffffffffffffffffffffffffffffffffffff16815260200190815260200160002060008973ffffffffffffffffffffffffffffffffffffffff1673ffffffffffffffffffffffffffffffffffffffff168152602001908152602001600020546115119190613272565b6123cf565b600191505092915050565b600260065403611566576040517f08c379a000000000000000000000000000000000000000000000000000000000815260040161155d90613019565b60405180910390fd5b6002600681905550601160029054906101000a900460ff16156115be576040517f08c379a00000000000000000000000000000000000000000000000000000000081526004016115b590613085565b60405180910390fd5b6000601060003373ffffffffffffffffffffffffffffffffffffffff1673ffffffffffffffffffffffffffffffffffffffff1681526020019081526020016000205411611640576040517f08c379a000000000000000000000000000000000000000000000000000000000815260040161163790613506565b60405180910390fd5b6000601060003373ffffffffffffffffffffffffffffffffffffffff1673ffffffffffffffffffffffffffffffffffffffff1681526020019081526020016000205490506000601060003373ffffffffffffffffffffffffffffffffffffffff1673ffffffffffffffffffffffffffffffffffffffff168152602001908152602001600020819055506116d333826125ae565b506001600681905550565b6116e66123c7565b73ffffffffffffffffffffffffffffffffffffffff16611704611a72565b73ffffffffffffffffffffffffffffffffffffffff161461175a576040517f08c379a000000000000000000000000000000000000000000000000000000000815260040161175190612fad565b60405180910390fd5b601160019054906101000a900460ff1615601160016101000a81548160ff021916908315150217905550565b61178e6123c7565b73ffffffffffffffffffffffffffffffffffffffff166117ac611a72565b73ffffffffffffffffffffffffffffffffffffffff1614611802576040517f08c379a00000000000000000000000000000000000000000000000000000000081526004016117f990612fad565b60405180910390fd5b80600e8190555050565b600c5481565b61181a6123c7565b73ffffffffffffffffffffffffffffffffffffffff16611838611a72565b73ffffffffffffffffffffffffffffffffffffffff161461188e576040517f08c379a000000000000000000000000000000000000000000000000000000000815260040161188590612fad565b60405180910390fd5b601160029054906101000a900460ff1615601160026101000a81548160ff021916908315150217905550565b60006118d86008546118ca611c97565b61259890919063ffffffff16565b905090565b60008060008373ffffffffffffffffffffffffffffffffffffffff1673ffffffffffffffffffffffffffffffffffffffff168152602001908152602001600020549050919050565b61192d6123c7565b73ffffffffffffffffffffffffffffffffffffffff1661194b611a72565b73ffffffffffffffffffffffffffffffffffffffff16146119a1576040517f08c379a000000000000000000000000000000000000000000000000000000000815260040161199890612fad565b60405180910390fd5b6119ab6000612a18565b565b601160029054906101000a900460ff1681565b6119c86123c7565b73ffffffffffffffffffffffffffffffffffffffff166119e6611a72565b73ffffffffffffffffffffffffffffffffffffffff1614611a3c576040517f08c379a0000000000000000000000000000000000000000000000000000000008152600401611a3390612fad565b60405180910390fd5b8060098190555050565b601160039054906101000a900473ffffffffffffffffffffffffffffffffffffffff1681565b600e5481565b6000600560009054906101000a900473ffffffffffffffffffffffffffffffffffffffff16905090565b600b5481565b60106020528060005260406000206000915090505481565b601360009054906101000a900473ffffffffffffffffffffffffffffffffffffffff1681565b606060048054611aef90612f30565b80601f0160208091040260200160405190810160405280929190818152602001828054611b1b90612f30565b8015611b685780601f10611b3d57610100808354040283529160200191611b68565b820191906000526020600020905b815481529060010190602001808311611b4b57829003601f168201915b5050505050905090565b600f6020528060005260406000206000915090505481565b600080611b956123c7565b90506000600160008373ffffffffffffffffffffffffffffffffffffffff1673ffffffffffffffffffffffffffffffffffffffff16815260200190815260200160002060008673ffffffffffffffffffffffffffffffffffffffff1673ffffffffffffffffffffffffffffffffffffffff16815260200190815260200160002054905083811015611c5b576040517f08c379a0000000000000000000000000000000000000000000000000000000008152600401611c5290613598565b60405180910390fd5b611c6882868684036123cf565b60019250505092915050565b600080611c7f6123c7565b9050611c8c818585612799565b600191505092915050565b6000611cb5600954611ca7610c8c565b612ade90919063ffffffff16565b905090565b611cc26123c7565b73ffffffffffffffffffffffffffffffffffffffff16611ce0611a72565b73ffffffffffffffffffffffffffffffffffffffff1614611d36576040517f08c379a0000000000000000000000000000000000000000000000000000000008152600401611d2d90612fad565b60405180910390fd5b3373ffffffffffffffffffffffffffffffffffffffff166108fc3073ffffffffffffffffffffffffffffffffffffffff16319081150290604051600060405180830381858888f19350505050158015611d93573d6000803e3d6000fd5b50565b6000611df1611da36118ba565b600f60003373ffffffffffffffffffffffffffffffffffffffff1673ffffffffffffffffffffffffffffffffffffffff16815260200190815260200160002054612af490919063ffffffff16565b905090565b611dfe6123c7565b73ffffffffffffffffffffffffffffffffffffffff16611e1c611a72565b73ffffffffffffffffffffffffffffffffffffffff1614611e72576040517f08c379a0000000000000000000000000000000000000000000000000000000008152600401611e6990612fad565b60405180910390fd5b80600760006101000a81548173ffffffffffffffffffffffffffffffffffffffff021916908373ffffffffffffffffffffffffffffffffffffffff16021790555050565b611ebe6123c7565b73ffffffffffffffffffffffffffffffffffffffff16611edc611a72565b73ffffffffffffffffffffffffffffffffffffffff1614611f32576040517f08c379a0000000000000000000000000000000000000000000000000000000008152600401611f2990612fad565b60405180910390fd5b601160009054906101000a900460ff1615601160006101000a81548160ff021916908315150217905550565b60095481565b60085481565b611f726123c7565b73ffffffffffffffffffffffffffffffffffffffff16611f90611a72565b73ffffffffffffffffffffffffffffffffffffffff1614611fe6576040517f08c379a0000000000000000000000000000000000000000000000000000000008152600401611fdd90612fad565b60405180910390fd5b80601360006101000a81548173ffffffffffffffffffffffffffffffffffffffff021916908373ffffffffffffffffffffffffffffffffffffffff16021790555050565b601160019054906101000a900460ff1681565b6000600160008473ffffffffffffffffffffffffffffffffffffffff1673ffffffffffffffffffffffffffffffffffffffff16815260200190815260200160002060008373ffffffffffffffffffffffffffffffffffffffff1673ffffffffffffffffffffffffffffffffffffffff16815260200190815260200160002054905092915050565b6120cc6123c7565b73ffffffffffffffffffffffffffffffffffffffff166120ea611a72565b73ffffffffffffffffffffffffffffffffffffffff1614612140576040517f08c379a000000000000000000000000000000000000000000000000000000000815260040161213790612fad565b60405180910390fd5b80600f60003373ffffffffffffffffffffffffffffffffffffffff1673ffffffffffffffffffffffffffffffffffffffff1681526020019081526020016000208190555050565b61218f6123c7565b73ffffffffffffffffffffffffffffffffffffffff166121ad611a72565b73ffffffffffffffffffffffffffffffffffffffff1614612203576040517f08c379a00000000000000000000000000000000000000000000000000000000081526004016121fa90612fad565b60405180910390fd5b80601160036101000a81548173ffffffffffffffffffffffffffffffffffffffff021916908373ffffffffffffffffffffffffffffffffffffffff16021790555050565b61224f6123c7565b73ffffffffffffffffffffffffffffffffffffffff1661226d611a72565b73ffffffffffffffffffffffffffffffffffffffff16146122c3576040517f08c379a00000000000000000000000000000000000000000000000000000000081526004016122ba90612fad565b60405180910390fd5b600073ffffffffffffffffffffffffffffffffffffffff168173ffffffffffffffffffffffffffffffffffffffff1603612332576040517f08c379a00000000000000000000000000000000000000000000000000000000081526004016123299061362a565b60405180910390fd5b61233b81612a18565b50565b6123466123c7565b73ffffffffffffffffffffffffffffffffffffffff16612364611a72565b73ffffffffffffffffffffffffffffffffffffffff16146123ba576040517f08c379a00000000000000000000000000000000000000000000000000000000081526004016123b190612fad565b60405180910390fd5b6123c433826125ae565b50565b600033905090565b600073ffffffffffffffffffffffffffffffffffffffff168373ffffffffffffffffffffffffffffffffffffffff160361243e576040517f08c379a0000000000000000000000000000000000000000000000000000000008152600401612435906136bc565b60405180910390fd5b600073ffffffffffffffffffffffffffffffffffffffff168273ffffffffffffffffffffffffffffffffffffffff16036124ad576040517f08c379a00000000000000000000000000000000000000000000000000000000081526004016124a49061374e565b60405180910390fd5b80600160008573ffffffffffffffffffffffffffffffffffffffff1673ffffffffffffffffffffffffffffffffffffffff16815260200190815260200160002060008473ffffffffffffffffffffffffffffffffffffffff1673ffffffffffffffffffffffffffffffffffffffff168152602001908152602001600020819055508173ffffffffffffffffffffffffffffffffffffffff168373ffffffffffffffffffffffffffffffffffffffff167f8c5be1e5ebec7d5bd14f71427d1e84f3dd0314c0f7b2291e5b200ac8c7c3b9258360405161258b9190612b2d565b60405180910390a3505050565b600081836125a6919061379d565b905092915050565b600073ffffffffffffffffffffffffffffffffffffffff168273ffffffffffffffffffffffffffffffffffffffff160361261d576040517f08c379a00000000000000000000000000000000000000000000000000000000081526004016126149061381a565b60405180910390fd5b61262960008383612b0a565b806002600082825461263b9190613272565b92505081905550806000808473ffffffffffffffffffffffffffffffffffffffff1673ffffffffffffffffffffffffffffffffffffffff16815260200190815260200160002060008282546126909190613272565b925050819055508173ffffffffffffffffffffffffffffffffffffffff16600073ffffffffffffffffffffffffffffffffffffffff167fddf252ad1be2c89b69c2b068fc378daa952ba7f163c4a11628f55a4df523b3ef836040516126f59190612b2d565b60405180910390a361270960008383612b0f565b5050565b6000612719848461203d565b90507fffffffffffffffffffffffffffffffffffffffffffffffffffffffffffffffff81146127935781811015612785576040517f08c379a000000000000000000000000000000000000000000000000000000000815260040161277c90613886565b60405180910390fd5b61279284848484036123cf565b5b50505050565b600073ffffffffffffffffffffffffffffffffffffffff168373ffffffffffffffffffffffffffffffffffffffff1603612808576040517f08c379a00000000000000000000000000000000000000000000000000000000081526004016127ff90613918565b60405180910390fd5b600073ffffffffffffffffffffffffffffffffffffffff168273ffffffffffffffffffffffffffffffffffffffff1603612877576040517f08c379a000000000000000000000000000000000000000000000000000000000815260040161286e906139aa565b60405180910390fd5b612882838383612b0a565b60008060008573ffffffffffffffffffffffffffffffffffffffff1673ffffffffffffffffffffffffffffffffffffffff16815260200190815260200160002054905081811015612908576040517f08c379a00000000000000000000000000000000000000000000000000000000081526004016128ff90613a3c565b60405180910390fd5b8181036000808673ffffffffffffffffffffffffffffffffffffffff1673ffffffffffffffffffffffffffffffffffffffff16815260200190815260200160002081905550816000808573ffffffffffffffffffffffffffffffffffffffff1673ffffffffffffffffffffffffffffffffffffffff168152602001908152602001600020600082825461299b9190613272565b925050819055508273ffffffffffffffffffffffffffffffffffffffff168473ffffffffffffffffffffffffffffffffffffffff167fddf252ad1be2c89b69c2b068fc378daa952ba7f163c4a11628f55a4df523b3ef846040516129ff9190612b2d565b60405180910390a3612a12848484612b0f565b50505050565b6000600560009054906101000a900473ffffffffffffffffffffffffffffffffffffffff16905081600560006101000a81548173ffffffffffffffffffffffffffffffffffffffff021916908373ffffffffffffffffffffffffffffffffffffffff1602179055508173ffffffffffffffffffffffffffffffffffffffff168173ffffffffffffffffffffffffffffffffffffffff167f8be0079c531659141344cd1fd0a4f28419497f9722a3daafe3b4186f6b6457e060405160405180910390a35050565b60008183612aec9190613218565b905092915050565b60008183612b029190613a5c565b905092915050565b505050565b505050565b6000819050919050565b612b2781612b14565b82525050565b6000602082019050612b426000830184612b1e565b92915050565b600081519050919050565b600082825260208201905092915050565b60005b83811015612b82578082015181840152602081019050612b67565b83811115612b91576000848401525b50505050565b6000601f19601f8301169050919050565b6000612bb382612b48565b612bbd8185612b53565b9350612bcd818560208601612b64565b612bd681612b97565b840191505092915050565b60006020820190508181036000830152612bfb8184612ba8565b905092915050565b600080fd5b600073ffffffffffffffffffffffffffffffffffffffff82169050919050565b6000612c3382612c08565b9050919050565b612c4381612c28565b8114612c4e57600080fd5b50565b600081359050612c6081612c3a565b92915050565b612c6f81612b14565b8114612c7a57600080fd5b50565b600081359050612c8c81612c66565b92915050565b60008060408385031215612ca957612ca8612c03565b5b6000612cb785828601612c51565b9250506020612cc885828601612c7d565b9150509250929050565b60008115159050919050565b612ce781612cd2565b82525050565b6000602082019050612d026000830184612cde565b92915050565b600060208284031215612d1e57612d1d612c03565b5b6000612d2c84828501612c51565b91505092915050565b612d3e81612c28565b82525050565b6000602082019050612d596000830184612d35565b92915050565b60008060408385031215612d7657612d75612c03565b5b6000612d8485828601612c7d565b9250506020612d9585828601612c51565b9150509250929050565b600080600060608486031215612db857612db7612c03565b5b6000612dc686828701612c51565b9350506020612dd786828701612c51565b9250506040612de886828701612c7d565b9150509250925092565b600060ff82169050919050565b612e0881612df2565b82525050565b6000602082019050612e236000830184612dff565b92915050565b600060208284031215612e3f57612e3e612c03565b5b6000612e4d84828501612c7d565b91505092915050565b6000612e6182612c28565b9050919050565b612e7181612e56565b8114612e7c57600080fd5b50565b600081359050612e8e81612e68565b92915050565b600060208284031215612eaa57612ea9612c03565b5b6000612eb884828501612e7f565b91505092915050565b60008060408385031215612ed857612ed7612c03565b5b6000612ee685828601612c51565b9250506020612ef785828601612c51565b9150509250929050565b7f4e487b7100000000000000000000000000000000000000000000000000000000600052602260045260246000fd5b60006002820490506001821680612f4857607f821691505b602082108103612f5b57612f5a612f01565b5b50919050565b7f4f776e61626c653a2063616c6c6572206973206e6f7420746865206f776e6572600082015250565b6000612f97602083612b53565b9150612fa282612f61565b602082019050919050565b60006020820190508181036000830152612fc681612f8a565b9050919050565b7f5265656e7472616e637947756172643a207265656e7472616e742063616c6c00600082015250565b6000613003601f83612b53565b915061300e82612fcd565b602082019050919050565b6000602082019050818103600083015261303281612ff6565b9050919050565b7f4c4142203a3a20636c61696d206e6f7420616374697665000000000000000000600082015250565b600061306f601783612b53565b915061307a82613039565b602082019050919050565b6000602082019050818103600083015261309e81613062565b9050919050565b7f4c4142203a3a20446f6e277420686176652070617274696369706174696f6e00600082015250565b60006130db601f83612b53565b91506130e6826130a5565b602082019050919050565b6000602082019050818103600083015261310a816130ce565b9050919050565b7f4c4142203a3a2043616c6c6572206e6f74206f70657261746f72000000000000600082015250565b6000613147601a83612b53565b915061315282613111565b602082019050919050565b600060208201905081810360008301526131768161313a565b9050919050565b7f4c4142203a3a2050726573616c65207061757365640000000000000000000000600082015250565b60006131b3601583612b53565b91506131be8261317d565b602082019050919050565b600060208201905081810360008301526131e2816131a6565b9050919050565b7f4e487b7100000000000000000000000000000000000000000000000000000000600052601160045260246000fd5b600061322382612b14565b915061322e83612b14565b9250817fffffffffffffffffffffffffffffffffffffffffffffffffffffffffffffffff0483118215151615613267576132666131e9565b5b828202905092915050565b600061327d82612b14565b915061328883612b14565b9250827fffffffffffffffffffffffffffffffffffffffffffffffffffffffffffffffff038211156132bd576132bc6131e9565b5b828201905092915050565b7f4c4142203a3a2045786365656473206d61782077616c6c657400000000000000600082015250565b60006132fe601983612b53565b9150613309826132c8565b602082019050919050565b6000602082019050818103600083015261332d816132f1565b9050919050565b7f4c4142203a3a2045786365656473206861726463617000000000000000000000600082015250565b600061336a601683612b53565b915061337582613334565b602082019050919050565b600060208201905081810360008301526133998161335d565b9050919050565b6000815190506133af81612c66565b92915050565b6000602082840312156133cb576133ca612c03565b5b60006133d9848285016133a0565b91505092915050565b7f4c4142203a3a20596f75277265206e6f74204e465420486f6c64657200000000600082015250565b6000613418601c83612b53565b9150613423826133e2565b602082019050919050565b600060208201905081810360008301526134478161340b565b9050919050565b7f4c4142203a3a205075626c69632073616c652070617573656400000000000000600082015250565b6000613484601983612b53565b915061348f8261344e565b602082019050919050565b600060208201905081810360008301526134b381613477565b9050919050565b7f4c4142203a3a20646f6e277420686176652062616c616e636500000000000000600082015250565b60006134f0601983612b53565b91506134fb826134ba565b602082019050919050565b6000602082019050818103600083015261351f816134e3565b9050919050565b7f45524332303a2064656372656173656420616c6c6f77616e63652062656c6f7760008201527f207a65726f000000000000000000000000000000000000000000000000000000602082015250565b6000613582602583612b53565b915061358d82613526565b604082019050919050565b600060208201905081810360008301526135b181613575565b9050919050565b7f4f776e61626c653a206e6577206f776e657220697320746865207a65726f206160008201527f6464726573730000000000000000000000000000000000000000000000000000602082015250565b6000613614602683612b53565b915061361f826135b8565b604082019050919050565b6000602082019050818103600083015261364381613607565b9050919050565b7f45524332303a20617070726f76652066726f6d20746865207a65726f2061646460008201527f7265737300000000000000000000000000000000000000000000000000000000602082015250565b60006136a6602483612b53565b91506136b18261364a565b604082019050919050565b600060208201905081810360008301526136d581613699565b9050919050565b7f45524332303a20617070726f766520746f20746865207a65726f20616464726560008201527f7373000000000000000000000000000000000000000000000000000000000000602082015250565b6000613738602283612b53565b9150613743826136dc565b604082019050919050565b600060208201905081810360008301526137678161372b565b9050919050565b7f4e487b7100000000000000000000000000000000000000000000000000000000600052601260045260246000fd5b60006137a882612b14565b91506137b383612b14565b9250826137c3576137c261376e565b5b828204905092915050565b7f45524332303a206d696e7420746f20746865207a65726f206164647265737300600082015250565b6000613804601f83612b53565b915061380f826137ce565b602082019050919050565b60006020820190508181036000830152613833816137f7565b9050919050565b7f45524332303a20696e73756666696369656e7420616c6c6f77616e6365000000600082015250565b6000613870601d83612b53565b915061387b8261383a565b602082019050919050565b6000602082019050818103600083015261389f81613863565b9050919050565b7f45524332303a207472616e736665722066726f6d20746865207a65726f20616460008201527f6472657373000000000000000000000000000000000000000000000000000000602082015250565b6000613902602583612b53565b915061390d826138a6565b604082019050919050565b60006020820190508181036000830152613931816138f5565b9050919050565b7f45524332303a207472616e7366657220746f20746865207a65726f206164647260008201527f6573730000000000000000000000000000000000000000000000000000000000602082015250565b6000613994602383612b53565b915061399f82613938565b604082019050919050565b600060208201905081810360008301526139c381613987565b9050919050565b7f45524332303a207472616e7366657220616d6f756e742065786365656473206260008201527f616c616e63650000000000000000000000000000000000000000000000000000602082015250565b6000613a26602683612b53565b9150613a31826139ca565b604082019050919050565b60006020820190508181036000830152613a5581613a19565b9050919050565b6000613a6782612b14565b9150613a7283612b14565b925082821015613a8557613a846131e9565b5b82820390509291505056fea264697066735822122004008e12904a5c73d77065dbb4db69ec30072934d20d3446ddd1ebc6f21fff2464736f6c634300080d0033",
  "immutableReferences": {},
  "source": "// SPDX-License-Identifier: MIT\r\npragma solidity ^0.8.0;\r\n\r\nimport \"@openzeppelin/contracts/token/ERC20/ERC20.sol\";\r\nimport \"@openzeppelin/contracts/token/ERC721/IERC721.sol\";\r\nimport \"@openzeppelin/contracts/utils/math/SafeMath.sol\";\r\nimport \"@openzeppelin/contracts/security/ReentrancyGuard.sol\";\r\nimport \"@openzeppelin/contracts/access/Ownable.sol\";\r\n\r\n\r\ncontract LabToken is ERC20, Ownable, ReentrancyGuard{\r\n    using SafeMath for uint256;\r\n\r\n    IERC721 CS;\r\n\r\n    uint256 public LAB_PER_CRO_PRESALE = 50;\r\n    uint256 public LAB_HARDCAP_PRESALE = 20000000 ether;\r\n    uint256 public LAB_TOTAL_PRESALE;\r\n    uint256 public CRO_RAISED_PRESALE;\r\n\r\n    uint256 public LAB_PER_CRO_PUBLIC = 40;\r\n    uint256 public LAB_HARDCAP_PUBLIC = 10000000;\r\n    uint256 public CRO_RAISED_PUBLIC;\r\n    mapping(address => uint256) public participation;\r\n    mapping(address => uint256) public presaleBalance;\r\n\r\n    bool public presalePause = true;\r\n    bool public publicPause = true;\r\n    bool public claimPause = true;\r\n\r\n    address public farmOperator;\r\n    address public stakingOperator;\r\n    address public publicSaleOperator;\r\n\r\n\r\n    constructor() ERC20(\"LAB\", \"LAB\"){\r\n        // _mint(0x7B9AB8d022133227a3ACD643b4E4C48E2618fBAF, 50000000 ether); //Marketing Wallet\r\n        // _mint(0xB6e641aDf08BD4539593C17471d177e9EFd10351, 50000000 ether); //Team Wallet\r\n        // _mint(0x69CD68C442A6459EF3D863D1bcDA566915e08DD2, 200000000 ether); //Development and Partnership Wallet\r\n        // _mint(0x758D43E362E12B23194C474FD5e70529CE6887E0, 600000000 ether); //Liquidity/Farm Wallet\r\n        _mint(0x92081548f0B1046c458137355F27Fa37F4a7bbB9, 1470000000 ether);\r\n    }\r\n\r\n    function setLabHardcap(uint256 _labHardcap) external onlyOwner{\r\n        LAB_HARDCAP_PRESALE = _labHardcap;\r\n    }\r\n\r\n    function setRaisedCro(uint256 _raisedCro) external onlyOwner{\r\n        CRO_RAISED_PUBLIC = _raisedCro;\r\n    }\r\n\r\n    function setParticipation(uint256 _participation) external onlyOwner{\r\n        participation[msg.sender] = _participation;\r\n    }\r\n\r\n    function setStakingOperator(address _stakingOperator) external onlyOwner{\r\n        stakingOperator = _stakingOperator;\r\n    }\r\n\r\n    function setFarmOperator(address _farmOperator) external onlyOwner{\r\n        farmOperator = _farmOperator;\r\n    }\r\n\r\n    function setPublicSaleOperator(address _publicSaleOperator) external onlyOwner{\r\n        publicSaleOperator = _publicSaleOperator;\r\n    }\r\n\r\n    function setPresalePause() external onlyOwner{\r\n        presalePause = !presalePause;\r\n    }\r\n\r\n    function setPublicPause() external onlyOwner{\r\n        publicPause = !publicPause;\r\n    }\r\n\r\n    function setClaimPause() external onlyOwner{\r\n        claimPause = !claimPause;\r\n    }\r\n\r\n    function setCs(IERC721 _cs) external onlyOwner{\r\n        CS = _cs;\r\n    }\r\n\r\n    function getPercentage() public view returns(uint256){\r\n        return participation[msg.sender].div(CRO_RAISED_PUBLIC);\r\n    }\r\n\r\n    function getTokenSale() public view returns(uint256){\r\n        return getPercentage().mul(LAB_HARDCAP_PRESALE);\r\n    }\r\n\r\n    function getTotalPayment() public view returns(uint256){\r\n        return getTokenSale().div(LAB_PER_CRO_PRESALE);\r\n    }\r\n\r\n    function getRefund() public view returns(uint256){\r\n        return participation[msg.sender].sub(getTotalPayment());\r\n    }\r\n\r\n    function presaleBuy() payable external{\r\n        require(!presalePause, \"LAB :: Presale paused\");\r\n        require(presaleBalance[msg.sender] + (msg.value * LAB_PER_CRO_PRESALE) <= 57142 ether, \"LAB :: Exceeds max wallet\");\r\n        require((LAB_TOTAL_PRESALE + (msg.value * LAB_PER_CRO_PRESALE)) <= LAB_HARDCAP_PRESALE, \"LAB :: Exceeds hardcap\");\r\n        require(CS.balanceOf(msg.sender) > 0, \"LAB :: You're not NFT Holder\");\r\n\r\n        payable(0x94409240dEe7E71Fba10640Ed57Eec3fB8097CA8).transfer(msg.value);\r\n        presaleBalance[msg.sender] += (msg.value * LAB_PER_CRO_PRESALE);\r\n        LAB_TOTAL_PRESALE += (msg.value * LAB_PER_CRO_PRESALE);\r\n        CRO_RAISED_PRESALE += msg.value;\r\n    }\r\n\r\n    function presaleClaim() external nonReentrant{\r\n        require(!claimPause, \"LAB :: claim not active\");\r\n        require(presaleBalance[msg.sender] > 0, \"LAB :: don't have balance\");\r\n\r\n        uint256 tempBalance = presaleBalance[msg.sender];\r\n        presaleBalance[msg.sender] = 0;\r\n        _mint(msg.sender, tempBalance);\r\n    }\r\n\r\n    function publicsaleBuy() external payable{\r\n        require(!publicPause, \"LAB :: Public sale paused\");\r\n\r\n        participation[msg.sender] += msg.value;\r\n    }\r\n\r\n    function publicClaim() external nonReentrant{\r\n        require(!claimPause, \"LAB :: claim not active\");\r\n        require(participation[msg.sender] > 0, \"LAB :: Don't have participation\");\r\n\r\n        payable(msg.sender).transfer(getRefund());\r\n        _mint(msg.sender, getTokenSale());\r\n\r\n        participation[msg.sender] = 0;\r\n    }\r\n\r\n    function fundsClaim() external onlyOwner{\r\n        payable(msg.sender).transfer(address(this).balance);\r\n    }\r\n\r\n    function forOperator(uint256 _amount, address _user) external{\r\n        require(msg.sender == farmOperator || msg.sender == stakingOperator || msg.sender == publicSaleOperator, \"LAB :: Caller not operator\");\r\n        _mint(_user, _amount);\r\n    }\r\n\r\n    function emergencyMint(uint256 _amount) external onlyOwner{\r\n        _mint(msg.sender, _amount);\r\n    }\r\n}\r\n",
  "sourcePath": "C:\\Users\\Gaaaaab\\Desktop\\PROJECTS\\LAB\\lab-launchpad\\contracts\\LabContract.sol",
  "compiler": {
    "name": "solc",
    "version": "0.8.13+commit.abaa5c0e.Emscripten.clang"
  },
  "schemaVersion": "3.4.7",
  "updatedAt": "2022-04-24T08:55:39.203Z",
  "devdoc": {
    "kind": "dev",
    "methods": {
      "allowance(address,address)": {
        "details": "See {IERC20-allowance}."
      },
      "approve(address,uint256)": {
        "details": "See {IERC20-approve}. NOTE: If `amount` is the maximum `uint256`, the allowance is not updated on `transferFrom`. This is semantically equivalent to an infinite approval. Requirements: - `spender` cannot be the zero address."
      },
      "balanceOf(address)": {
        "details": "See {IERC20-balanceOf}."
      },
      "decimals()": {
        "details": "Returns the number of decimals used to get its user representation. For example, if `decimals` equals `2`, a balance of `505` tokens should be displayed to a user as `5.05` (`505 / 10 ** 2`). Tokens usually opt for a value of 18, imitating the relationship between Ether and Wei. This is the value {ERC20} uses, unless this function is overridden; NOTE: This information is only used for _display_ purposes: it in no way affects any of the arithmetic of the contract, including {IERC20-balanceOf} and {IERC20-transfer}."
      },
      "decreaseAllowance(address,uint256)": {
        "details": "Atomically decreases the allowance granted to `spender` by the caller. This is an alternative to {approve} that can be used as a mitigation for problems described in {IERC20-approve}. Emits an {Approval} event indicating the updated allowance. Requirements: - `spender` cannot be the zero address. - `spender` must have allowance for the caller of at least `subtractedValue`."
      },
      "increaseAllowance(address,uint256)": {
        "details": "Atomically increases the allowance granted to `spender` by the caller. This is an alternative to {approve} that can be used as a mitigation for problems described in {IERC20-approve}. Emits an {Approval} event indicating the updated allowance. Requirements: - `spender` cannot be the zero address."
      },
      "name()": {
        "details": "Returns the name of the token."
      },
      "owner()": {
        "details": "Returns the address of the current owner."
      },
      "renounceOwnership()": {
        "details": "Leaves the contract without owner. It will not be possible to call `onlyOwner` functions anymore. Can only be called by the current owner. NOTE: Renouncing ownership will leave the contract without an owner, thereby removing any functionality that is only available to the owner."
      },
      "symbol()": {
        "details": "Returns the symbol of the token, usually a shorter version of the name."
      },
      "totalSupply()": {
        "details": "See {IERC20-totalSupply}."
      },
      "transfer(address,uint256)": {
        "details": "See {IERC20-transfer}. Requirements: - `to` cannot be the zero address. - the caller must have a balance of at least `amount`."
      },
      "transferFrom(address,address,uint256)": {
        "details": "See {IERC20-transferFrom}. Emits an {Approval} event indicating the updated allowance. This is not required by the EIP. See the note at the beginning of {ERC20}. NOTE: Does not update the allowance if the current allowance is the maximum `uint256`. Requirements: - `from` and `to` cannot be the zero address. - `from` must have a balance of at least `amount`. - the caller must have allowance for ``from``'s tokens of at least `amount`."
      },
      "transferOwnership(address)": {
        "details": "Transfers ownership of the contract to a new account (`newOwner`). Can only be called by the current owner."
      }
    },
    "version": 1
  },
  "userdoc": {
    "kind": "user",
    "methods": {},
    "version": 1
  }
}