{
  "contractName": "Ticket",
  "abi": [
    {
      "inputs": [],
      "stateMutability": "nonpayable",
      "type": "constructor"
    },
    {
      "anonymous": false,
      "inputs": [
        {
          "indexed": true,
          "internalType": "address",
          "name": "previousOwner",
          "type": "address"
        },
        {
          "indexed": true,
          "internalType": "address",
          "name": "newOwner",
          "type": "address"
        }
      ],
      "name": "OwnershipTransferred",
      "type": "event"
    },
    {
      "inputs": [],
      "name": "fundReceiver",
      "outputs": [
        {
          "internalType": "address",
          "name": "",
          "type": "address"
        }
      ],
      "stateMutability": "view",
      "type": "function",
      "constant": true
    },
    {
      "inputs": [],
      "name": "labFee",
      "outputs": [
        {
          "internalType": "uint256",
          "name": "",
          "type": "uint256"
        }
      ],
      "stateMutability": "view",
      "type": "function",
      "constant": true
    },
    {
      "inputs": [],
      "name": "labInstance",
      "outputs": [
        {
          "internalType": "contract IERC20",
          "name": "",
          "type": "address"
        }
      ],
      "stateMutability": "view",
      "type": "function",
      "constant": true
    },
    {
      "inputs": [],
      "name": "owner",
      "outputs": [
        {
          "internalType": "address",
          "name": "",
          "type": "address"
        }
      ],
      "stateMutability": "view",
      "type": "function",
      "constant": true
    },
    {
      "inputs": [],
      "name": "renounceOwnership",
      "outputs": [],
      "stateMutability": "nonpayable",
      "type": "function"
    },
    {
      "inputs": [
        {
          "internalType": "address",
          "name": "newOwner",
          "type": "address"
        }
      ],
      "name": "transferOwnership",
      "outputs": [],
      "stateMutability": "nonpayable",
      "type": "function"
    },
    {
      "inputs": [],
      "name": "withdrawAll",
      "outputs": [],
      "stateMutability": "nonpayable",
      "type": "function"
    },
    {
      "inputs": [],
      "name": "getContractBalance",
      "outputs": [
        {
          "internalType": "uint256",
          "name": "",
          "type": "uint256"
        }
      ],
      "stateMutability": "view",
      "type": "function",
      "constant": true
    },
    {
      "inputs": [],
      "name": "transferLabFee",
      "outputs": [],
      "stateMutability": "nonpayable",
      "type": "function"
    },
    {
      "inputs": [
        {
          "internalType": "uint256",
          "name": "_labFee",
          "type": "uint256"
        }
      ],
      "name": "changeLabFee",
      "outputs": [],
      "stateMutability": "nonpayable",
      "type": "function"
    },
    {
      "inputs": [
        {
          "internalType": "address",
          "name": "newOwner",
          "type": "address"
        }
      ],
      "name": "changeFundReceiverWallet",
      "outputs": [],
      "stateMutability": "nonpayable",
      "type": "function"
    },
    {
      "inputs": [
        {
          "internalType": "contract IERC20",
          "name": "_labInstance",
          "type": "address"
        }
      ],
      "name": "changeTokenInstance",
      "outputs": [],
      "stateMutability": "nonpayable",
      "type": "function"
    }
  ],
  "bytecode": "0x608060405234801561001057600080fd5b5061003f61002b61004b640100000000026401000000009004565b610053640100000000026401000000009004565b60018081905550610117565b600033905090565b60008060009054906101000a900473ffffffffffffffffffffffffffffffffffffffff169050816000806101000a81548173ffffffffffffffffffffffffffffffffffffffff021916908373ffffffffffffffffffffffffffffffffffffffff1602179055508173ffffffffffffffffffffffffffffffffffffffff168173ffffffffffffffffffffffffffffffffffffffff167f8be0079c531659141344cd1fd0a4f28419497f9722a3daafe3b4186f6b6457e060405160405180910390a35050565b61112c806101266000396000f3fe608060405234801561001057600080fd5b50600436106100d1576000357c01000000000000000000000000000000000000000000000000000000009004806381a08bc01161008e57806381a08bc014610172578063853828b61461018e5780638da5cb5b1461019857806399f327a3146101b6578063f2fde38b146101c0578063fb4aa0a1146101dc576100d1565b80630c99d42a146100d657806318008c33146100f2578063232e3f3d1461010e5780632db5cd971461012c5780636f9fb98a1461014a578063715018a614610168575b600080fd5b6100f060048036038101906100eb9190610c2b565b6101fa565b005b61010c60048036038101906101079190610c84565b6102ba565b005b61011661037a565b6040516101239190610d10565b60405180910390f35b6101346103a0565b6040516101419190610d44565b60405180910390f35b6101526103a6565b60405161015f9190610d44565b60405180910390f35b61017061046a565b005b61018c60048036038101906101879190610d8b565b6104f2565b005b610196610578565b005b6101a06107e6565b6040516101ad9190610dc7565b60405180910390f35b6101be61080f565b005b6101da60048036038101906101d59190610c84565b6109cd565b005b6101e4610ac4565b6040516101f19190610dc7565b60405180910390f35b610202610aea565b73ffffffffffffffffffffffffffffffffffffffff166102206107e6565b73ffffffffffffffffffffffffffffffffffffffff1614610276576040517f08c379a000000000000000000000000000000000000000000000000000000000815260040161026d90610e3f565b60405180910390fd5b80600260006101000a81548173ffffffffffffffffffffffffffffffffffffffff021916908373ffffffffffffffffffffffffffffffffffffffff16021790555050565b6102c2610aea565b73ffffffffffffffffffffffffffffffffffffffff166102e06107e6565b73ffffffffffffffffffffffffffffffffffffffff1614610336576040517f08c379a000000000000000000000000000000000000000000000000000000000815260040161032d90610e3f565b60405180910390fd5b80600360006101000a81548173ffffffffffffffffffffffffffffffffffffffff021916908373ffffffffffffffffffffffffffffffffffffffff16021790555050565b600260009054906101000a900473ffffffffffffffffffffffffffffffffffffffff1681565b60045481565b600080600260009054906101000a900473ffffffffffffffffffffffffffffffffffffffff1673ffffffffffffffffffffffffffffffffffffffff166370a08231306040518263ffffffff167c01000000000000000000000000000000000000000000000000000000000281526004016104209190610dc7565b602060405180830381865afa15801561043d573d6000803e3d6000fd5b505050506040513d601f19601f820116820180604052508101906104619190610e74565b90508091505090565b610472610aea565b73ffffffffffffffffffffffffffffffffffffffff166104906107e6565b73ffffffffffffffffffffffffffffffffffffffff16146104e6576040517f08c379a00000000000000000000000000000000000000000000000000000000081526004016104dd90610e3f565b60405180910390fd5b6104f06000610af2565b565b6104fa610aea565b73ffffffffffffffffffffffffffffffffffffffff166105186107e6565b73ffffffffffffffffffffffffffffffffffffffff161461056e576040517f08c379a000000000000000000000000000000000000000000000000000000000815260040161056590610e3f565b60405180910390fd5b8060048190555050565b6002600154036105bd576040517f08c379a00000000000000000000000000000000000000000000000000000000081526004016105b490610eed565b60405180910390fd5b60026001819055506105cd610aea565b73ffffffffffffffffffffffffffffffffffffffff166105eb6107e6565b73ffffffffffffffffffffffffffffffffffffffff1614610641576040517f08c379a000000000000000000000000000000000000000000000000000000000815260040161063890610e3f565b60405180910390fd5b6000600260009054906101000a900473ffffffffffffffffffffffffffffffffffffffff1673ffffffffffffffffffffffffffffffffffffffff166370a08231306040518263ffffffff167c01000000000000000000000000000000000000000000000000000000000281526004016106ba9190610dc7565b602060405180830381865afa1580156106d7573d6000803e3d6000fd5b505050506040513d601f19601f820116820180604052508101906106fb9190610e74565b9050600260009054906101000a900473ffffffffffffffffffffffffffffffffffffffff1673ffffffffffffffffffffffffffffffffffffffff1663a9059cbb600360009054906101000a900473ffffffffffffffffffffffffffffffffffffffff16836040518363ffffffff167c0100000000000000000000000000000000000000000000000000000000028152600401610798929190610f0d565b6020604051808303816000875af11580156107b7573d6000803e3d6000fd5b505050506040513d601f19601f820116820180604052508101906107db9190610f6e565b505060018081905550565b60008060009054906101000a900473ffffffffffffffffffffffffffffffffffffffff16905090565b600454600260009054906101000a900473ffffffffffffffffffffffffffffffffffffffff1673ffffffffffffffffffffffffffffffffffffffff166370a08231336040518263ffffffff167c01000000000000000000000000000000000000000000000000000000000281526004016108899190610dc7565b602060405180830381865afa1580156108a6573d6000803e3d6000fd5b505050506040513d601f19601f820116820180604052508101906108ca9190610e74565b1161090a576040517f08c379a00000000000000000000000000000000000000000000000000000000081526004016109019061100d565b60405180910390fd5b600260009054906101000a900473ffffffffffffffffffffffffffffffffffffffff1673ffffffffffffffffffffffffffffffffffffffff166323b872dd33306004546040518463ffffffff167c01000000000000000000000000000000000000000000000000000000000281526004016109879392919061102d565b6020604051808303816000875af11580156109a6573d6000803e3d6000fd5b505050506040513d601f19601f820116820180604052508101906109ca9190610f6e565b50565b6109d5610aea565b73ffffffffffffffffffffffffffffffffffffffff166109f36107e6565b73ffffffffffffffffffffffffffffffffffffffff1614610a49576040517f08c379a0000000000000000000000000000000000000000000000000000000008152600401610a4090610e3f565b60405180910390fd5b600073ffffffffffffffffffffffffffffffffffffffff168173ffffffffffffffffffffffffffffffffffffffff1603610ab8576040517f08c379a0000000000000000000000000000000000000000000000000000000008152600401610aaf906110d6565b60405180910390fd5b610ac181610af2565b50565b600360009054906101000a900473ffffffffffffffffffffffffffffffffffffffff1681565b600033905090565b60008060009054906101000a900473ffffffffffffffffffffffffffffffffffffffff169050816000806101000a81548173ffffffffffffffffffffffffffffffffffffffff021916908373ffffffffffffffffffffffffffffffffffffffff1602179055508173ffffffffffffffffffffffffffffffffffffffff168173ffffffffffffffffffffffffffffffffffffffff167f8be0079c531659141344cd1fd0a4f28419497f9722a3daafe3b4186f6b6457e060405160405180910390a35050565b600080fd5b600073ffffffffffffffffffffffffffffffffffffffff82169050919050565b6000610be682610bbb565b9050919050565b6000610bf882610bdb565b9050919050565b610c0881610bed565b8114610c1357600080fd5b50565b600081359050610c2581610bff565b92915050565b600060208284031215610c4157610c40610bb6565b5b6000610c4f84828501610c16565b91505092915050565b610c6181610bdb565b8114610c6c57600080fd5b50565b600081359050610c7e81610c58565b92915050565b600060208284031215610c9a57610c99610bb6565b5b6000610ca884828501610c6f565b91505092915050565b6000819050919050565b6000610cd6610cd1610ccc84610bbb565b610cb1565b610bbb565b9050919050565b6000610ce882610cbb565b9050919050565b6000610cfa82610cdd565b9050919050565b610d0a81610cef565b82525050565b6000602082019050610d256000830184610d01565b92915050565b6000819050919050565b610d3e81610d2b565b82525050565b6000602082019050610d596000830184610d35565b92915050565b610d6881610d2b565b8114610d7357600080fd5b50565b600081359050610d8581610d5f565b92915050565b600060208284031215610da157610da0610bb6565b5b6000610daf84828501610d76565b91505092915050565b610dc181610bdb565b82525050565b6000602082019050610ddc6000830184610db8565b92915050565b600082825260208201905092915050565b7f4f776e61626c653a2063616c6c6572206973206e6f7420746865206f776e6572600082015250565b6000610e29602083610de2565b9150610e3482610df3565b602082019050919050565b60006020820190508181036000830152610e5881610e1c565b9050919050565b600081519050610e6e81610d5f565b92915050565b600060208284031215610e8a57610e89610bb6565b5b6000610e9884828501610e5f565b91505092915050565b7f5265656e7472616e637947756172643a207265656e7472616e742063616c6c00600082015250565b6000610ed7601f83610de2565b9150610ee282610ea1565b602082019050919050565b60006020820190508181036000830152610f0681610eca565b9050919050565b6000604082019050610f226000830185610db8565b610f2f6020830184610d35565b9392505050565b60008115159050919050565b610f4b81610f36565b8114610f5657600080fd5b50565b600081519050610f6881610f42565b92915050565b600060208284031215610f8457610f83610bb6565b5b6000610f9284828501610f59565b91505092915050565b7f5469636b65743a20496e73756666696369656e74204c41422042616c616e636560008201527f2100000000000000000000000000000000000000000000000000000000000000602082015250565b6000610ff7602183610de2565b915061100282610f9b565b604082019050919050565b6000602082019050818103600083015261102681610fea565b9050919050565b60006060820190506110426000830186610db8565b61104f6020830185610db8565b61105c6040830184610d35565b949350505050565b7f4f776e61626c653a206e6577206f776e657220697320746865207a65726f206160008201527f6464726573730000000000000000000000000000000000000000000000000000602082015250565b60006110c0602683610de2565b91506110cb82611064565b604082019050919050565b600060208201905081810360008301526110ef816110b3565b905091905056fea2646970667358221220d598c856fd2f8f49aeee825891a3d10f28e0b0a30202d8e37b068208bbba2d8464736f6c634300080d0033",
  "immutableReferences": {},
  "source": "//SPDX-License-Identifier: MIT\r\npragma solidity >=0.4.22 <0.9.0;\r\n\r\nimport '@openzeppelin/contracts/access/Ownable.sol';\r\nimport '@openzeppelin/contracts/token/ERC20/IERC20.sol';\r\nimport '@openzeppelin/contracts/security/ReentrancyGuard.sol';\r\n\r\n\r\ncontract Ticket is Ownable, ReentrancyGuard{\r\n  IERC20 public labInstance;\r\n  address public fundReceiver;\r\n  uint public labFee;\r\n\r\n\r\n  constructor() ReentrancyGuard(){\r\n  }\r\n\r\n  // Transfer All LAB to fundReceiver Adddress\r\n  function withdrawAll() nonReentrant() external onlyOwner{\r\n      uint ownerBalance = labInstance.balanceOf(address(this));\r\n      labInstance.transfer(fundReceiver, ownerBalance);\r\n  }\r\n\r\n  // get Contract LAB Balance\r\n  function getContractBalance() external view returns(uint){\r\n    uint contractBalance = labInstance.balanceOf(address(this));\r\n    return contractBalance;\r\n  }\r\n\r\n  // make a LAB payment function\r\n  function transferLabFee() external {\r\n    require(labInstance.balanceOf(msg.sender) > labFee, \"Ticket: Insufficient LAB Balance!\");\r\n    labInstance.transferFrom(msg.sender, address(this), labFee);\r\n  }\r\n\r\n\r\n  // update value functions\r\n  function changeLabFee(uint _labFee) external onlyOwner {\r\n    labFee = _labFee;\r\n  }\r\n  // update value functions\r\n  function changeFundReceiverWallet(address newOwner) external onlyOwner{\r\n    fundReceiver = newOwner;\r\n  }\r\n  // update value functions\r\n  function changeTokenInstance(IERC20 _labInstance) external onlyOwner{\r\n    labInstance = _labInstance;\r\n  }\r\n}\r\n",
  "sourcePath": "C:\\Users\\Gaaaaab\\Desktop\\PROJECTS\\LAB\\lab-launchpad\\contracts\\TicketContract.sol",
  "compiler": {
    "name": "solc",
    "version": "0.8.13+commit.abaa5c0e.Emscripten.clang"
  },
  "schemaVersion": "3.4.7",
  "updatedAt": "2022-04-20T12:28:19.222Z",
  "networkType": "ethereum",
  "devdoc": {
    "kind": "dev",
    "methods": {
      "owner()": {
        "details": "Returns the address of the current owner."
      },
      "renounceOwnership()": {
        "details": "Leaves the contract without owner. It will not be possible to call `onlyOwner` functions anymore. Can only be called by the current owner. NOTE: Renouncing ownership will leave the contract without an owner, thereby removing any functionality that is only available to the owner."
      },
      "transferOwnership(address)": {
        "details": "Transfers ownership of the contract to a new account (`newOwner`). Can only be called by the current owner."
      }
    },
    "version": 1
  },
  "userdoc": {
    "kind": "user",
    "methods": {},
    "version": 1
  }
}