{
  "contractName": "Ticket",
  "abi": [
    {
      "inputs": [],
      "stateMutability": "nonpayable",
      "type": "constructor"
    },
    {
      "anonymous": false,
      "inputs": [
        {
          "indexed": true,
          "internalType": "address",
          "name": "previousOwner",
          "type": "address"
        },
        {
          "indexed": true,
          "internalType": "address",
          "name": "newOwner",
          "type": "address"
        }
      ],
      "name": "OwnershipTransferred",
      "type": "event"
    },
    {
      "inputs": [],
      "name": "fundReceiver",
      "outputs": [
        {
          "internalType": "address",
          "name": "",
          "type": "address"
        }
      ],
      "stateMutability": "view",
      "type": "function",
      "constant": true
    },
    {
      "inputs": [],
      "name": "labFee",
      "outputs": [
        {
          "internalType": "uint256",
          "name": "",
          "type": "uint256"
        }
      ],
      "stateMutability": "view",
      "type": "function",
      "constant": true
    },
    {
      "inputs": [],
      "name": "labInstance",
      "outputs": [
        {
          "internalType": "contract IERC20",
          "name": "",
          "type": "address"
        }
      ],
      "stateMutability": "view",
      "type": "function",
      "constant": true
    },
    {
      "inputs": [],
      "name": "owner",
      "outputs": [
        {
          "internalType": "address",
          "name": "",
          "type": "address"
        }
      ],
      "stateMutability": "view",
      "type": "function",
      "constant": true
    },
    {
      "inputs": [],
      "name": "renounceOwnership",
      "outputs": [],
      "stateMutability": "nonpayable",
      "type": "function"
    },
    {
      "inputs": [
        {
          "internalType": "address",
          "name": "newOwner",
          "type": "address"
        }
      ],
      "name": "transferOwnership",
      "outputs": [],
      "stateMutability": "nonpayable",
      "type": "function"
    },
    {
      "inputs": [],
      "name": "withdrawAll",
      "outputs": [],
      "stateMutability": "nonpayable",
      "type": "function"
    },
    {
      "inputs": [],
      "name": "getContractBalance",
      "outputs": [
        {
          "internalType": "uint256",
          "name": "",
          "type": "uint256"
        }
      ],
      "stateMutability": "view",
      "type": "function",
      "constant": true
    },
    {
      "inputs": [],
      "name": "transferLabFee",
      "outputs": [],
      "stateMutability": "nonpayable",
      "type": "function"
    },
    {
      "inputs": [
        {
          "internalType": "uint256",
          "name": "_labFee",
          "type": "uint256"
        }
      ],
      "name": "changeLabFee",
      "outputs": [],
      "stateMutability": "nonpayable",
      "type": "function"
    },
    {
      "inputs": [
        {
          "internalType": "address",
          "name": "newOwner",
          "type": "address"
        }
      ],
      "name": "changeFundReceiverWallet",
      "outputs": [],
      "stateMutability": "nonpayable",
      "type": "function"
    },
    {
      "inputs": [
        {
          "internalType": "contract IERC20",
          "name": "_labInstance",
          "type": "address"
        }
      ],
      "name": "changeTokenInstance",
      "outputs": [],
      "stateMutability": "nonpayable",
      "type": "function"
    }
  ],
  "bytecode": "0x608060405234801561001057600080fd5b5061003f61002b61004b640100000000026401000000009004565b610053640100000000026401000000009004565b60018081905550610117565b600033905090565b60008060009054906101000a900473ffffffffffffffffffffffffffffffffffffffff169050816000806101000a81548173ffffffffffffffffffffffffffffffffffffffff021916908373ffffffffffffffffffffffffffffffffffffffff1602179055508173ffffffffffffffffffffffffffffffffffffffff168173ffffffffffffffffffffffffffffffffffffffff167f8be0079c531659141344cd1fd0a4f28419497f9722a3daafe3b4186f6b6457e060405160405180910390a35050565b611127806101266000396000f3fe608060405234801561001057600080fd5b50600436106100d1576000357c01000000000000000000000000000000000000000000000000000000009004806381a08bc01161008e57806381a08bc014610172578063853828b61461018e5780638da5cb5b1461019857806399f327a3146101b6578063f2fde38b146101c0578063fb4aa0a1146101dc576100d1565b80630c99d42a146100d657806318008c33146100f2578063232e3f3d1461010e5780632db5cd971461012c5780636f9fb98a1461014a578063715018a614610168575b600080fd5b6100f060048036038101906100eb9190610c26565b6101fa565b005b61010c60048036038101906101079190610c7f565b6102ba565b005b61011661037a565b6040516101239190610d0b565b60405180910390f35b6101346103a0565b6040516101419190610d3f565b60405180910390f35b6101526103a6565b60405161015f9190610d3f565b60405180910390f35b610170610465565b005b61018c60048036038101906101879190610d86565b6104ed565b005b610196610573565b005b6101a06107e1565b6040516101ad9190610dc2565b60405180910390f35b6101be61080a565b005b6101da60048036038101906101d59190610c7f565b6109c8565b005b6101e4610abf565b6040516101f19190610dc2565b60405180910390f35b610202610ae5565b73ffffffffffffffffffffffffffffffffffffffff166102206107e1565b73ffffffffffffffffffffffffffffffffffffffff1614610276576040517f08c379a000000000000000000000000000000000000000000000000000000000815260040161026d90610e3a565b60405180910390fd5b80600260006101000a81548173ffffffffffffffffffffffffffffffffffffffff021916908373ffffffffffffffffffffffffffffffffffffffff16021790555050565b6102c2610ae5565b73ffffffffffffffffffffffffffffffffffffffff166102e06107e1565b73ffffffffffffffffffffffffffffffffffffffff1614610336576040517f08c379a000000000000000000000000000000000000000000000000000000000815260040161032d90610e3a565b60405180910390fd5b80600360006101000a81548173ffffffffffffffffffffffffffffffffffffffff021916908373ffffffffffffffffffffffffffffffffffffffff16021790555050565b600260009054906101000a900473ffffffffffffffffffffffffffffffffffffffff1681565b60045481565b6000600260009054906101000a900473ffffffffffffffffffffffffffffffffffffffff1673ffffffffffffffffffffffffffffffffffffffff166370a08231306040518263ffffffff167c010000000000000000000000000000000000000000000000000000000002815260040161041f9190610dc2565b602060405180830381865afa15801561043c573d6000803e3d6000fd5b505050506040513d601f19601f820116820180604052508101906104609190610e6f565b905090565b61046d610ae5565b73ffffffffffffffffffffffffffffffffffffffff1661048b6107e1565b73ffffffffffffffffffffffffffffffffffffffff16146104e1576040517f08c379a00000000000000000000000000000000000000000000000000000000081526004016104d890610e3a565b60405180910390fd5b6104eb6000610aed565b565b6104f5610ae5565b73ffffffffffffffffffffffffffffffffffffffff166105136107e1565b73ffffffffffffffffffffffffffffffffffffffff1614610569576040517f08c379a000000000000000000000000000000000000000000000000000000000815260040161056090610e3a565b60405180910390fd5b8060048190555050565b61057b610ae5565b73ffffffffffffffffffffffffffffffffffffffff166105996107e1565b73ffffffffffffffffffffffffffffffffffffffff16146105ef576040517f08c379a00000000000000000000000000000000000000000000000000000000081526004016105e690610e3a565b60405180910390fd5b600260015403610634576040517f08c379a000000000000000000000000000000000000000000000000000000000815260040161062b90610ee8565b60405180910390fd5b60026001819055506000600260009054906101000a900473ffffffffffffffffffffffffffffffffffffffff1673ffffffffffffffffffffffffffffffffffffffff166370a08231306040518263ffffffff167c01000000000000000000000000000000000000000000000000000000000281526004016106b59190610dc2565b602060405180830381865afa1580156106d2573d6000803e3d6000fd5b505050506040513d601f19601f820116820180604052508101906106f69190610e6f565b9050600260009054906101000a900473ffffffffffffffffffffffffffffffffffffffff1673ffffffffffffffffffffffffffffffffffffffff1663a9059cbb600360009054906101000a900473ffffffffffffffffffffffffffffffffffffffff16836040518363ffffffff167c0100000000000000000000000000000000000000000000000000000000028152600401610793929190610f08565b6020604051808303816000875af11580156107b2573d6000803e3d6000fd5b505050506040513d601f19601f820116820180604052508101906107d69190610f69565b505060018081905550565b60008060009054906101000a900473ffffffffffffffffffffffffffffffffffffffff16905090565b600454600260009054906101000a900473ffffffffffffffffffffffffffffffffffffffff1673ffffffffffffffffffffffffffffffffffffffff166370a08231336040518263ffffffff167c01000000000000000000000000000000000000000000000000000000000281526004016108849190610dc2565b602060405180830381865afa1580156108a1573d6000803e3d6000fd5b505050506040513d601f19601f820116820180604052508101906108c59190610e6f565b11610905576040517f08c379a00000000000000000000000000000000000000000000000000000000081526004016108fc90611008565b60405180910390fd5b600260009054906101000a900473ffffffffffffffffffffffffffffffffffffffff1673ffffffffffffffffffffffffffffffffffffffff166323b872dd33306004546040518463ffffffff167c010000000000000000000000000000000000000000000000000000000002815260040161098293929190611028565b6020604051808303816000875af11580156109a1573d6000803e3d6000fd5b505050506040513d601f19601f820116820180604052508101906109c59190610f69565b50565b6109d0610ae5565b73ffffffffffffffffffffffffffffffffffffffff166109ee6107e1565b73ffffffffffffffffffffffffffffffffffffffff1614610a44576040517f08c379a0000000000000000000000000000000000000000000000000000000008152600401610a3b90610e3a565b60405180910390fd5b600073ffffffffffffffffffffffffffffffffffffffff168173ffffffffffffffffffffffffffffffffffffffff1603610ab3576040517f08c379a0000000000000000000000000000000000000000000000000000000008152600401610aaa906110d1565b60405180910390fd5b610abc81610aed565b50565b600360009054906101000a900473ffffffffffffffffffffffffffffffffffffffff1681565b600033905090565b60008060009054906101000a900473ffffffffffffffffffffffffffffffffffffffff169050816000806101000a81548173ffffffffffffffffffffffffffffffffffffffff021916908373ffffffffffffffffffffffffffffffffffffffff1602179055508173ffffffffffffffffffffffffffffffffffffffff168173ffffffffffffffffffffffffffffffffffffffff167f8be0079c531659141344cd1fd0a4f28419497f9722a3daafe3b4186f6b6457e060405160405180910390a35050565b600080fd5b600073ffffffffffffffffffffffffffffffffffffffff82169050919050565b6000610be182610bb6565b9050919050565b6000610bf382610bd6565b9050919050565b610c0381610be8565b8114610c0e57600080fd5b50565b600081359050610c2081610bfa565b92915050565b600060208284031215610c3c57610c3b610bb1565b5b6000610c4a84828501610c11565b91505092915050565b610c5c81610bd6565b8114610c6757600080fd5b50565b600081359050610c7981610c53565b92915050565b600060208284031215610c9557610c94610bb1565b5b6000610ca384828501610c6a565b91505092915050565b6000819050919050565b6000610cd1610ccc610cc784610bb6565b610cac565b610bb6565b9050919050565b6000610ce382610cb6565b9050919050565b6000610cf582610cd8565b9050919050565b610d0581610cea565b82525050565b6000602082019050610d206000830184610cfc565b92915050565b6000819050919050565b610d3981610d26565b82525050565b6000602082019050610d546000830184610d30565b92915050565b610d6381610d26565b8114610d6e57600080fd5b50565b600081359050610d8081610d5a565b92915050565b600060208284031215610d9c57610d9b610bb1565b5b6000610daa84828501610d71565b91505092915050565b610dbc81610bd6565b82525050565b6000602082019050610dd76000830184610db3565b92915050565b600082825260208201905092915050565b7f4f776e61626c653a2063616c6c6572206973206e6f7420746865206f776e6572600082015250565b6000610e24602083610ddd565b9150610e2f82610dee565b602082019050919050565b60006020820190508181036000830152610e5381610e17565b9050919050565b600081519050610e6981610d5a565b92915050565b600060208284031215610e8557610e84610bb1565b5b6000610e9384828501610e5a565b91505092915050565b7f5265656e7472616e637947756172643a207265656e7472616e742063616c6c00600082015250565b6000610ed2601f83610ddd565b9150610edd82610e9c565b602082019050919050565b60006020820190508181036000830152610f0181610ec5565b9050919050565b6000604082019050610f1d6000830185610db3565b610f2a6020830184610d30565b9392505050565b60008115159050919050565b610f4681610f31565b8114610f5157600080fd5b50565b600081519050610f6381610f3d565b92915050565b600060208284031215610f7f57610f7e610bb1565b5b6000610f8d84828501610f54565b91505092915050565b7f5469636b65743a20496e73756666696369656e74204c41422042616c616e636560008201527f2100000000000000000000000000000000000000000000000000000000000000602082015250565b6000610ff2602183610ddd565b9150610ffd82610f96565b604082019050919050565b6000602082019050818103600083015261102181610fe5565b9050919050565b600060608201905061103d6000830186610db3565b61104a6020830185610db3565b6110576040830184610d30565b949350505050565b7f4f776e61626c653a206e6577206f776e657220697320746865207a65726f206160008201527f6464726573730000000000000000000000000000000000000000000000000000602082015250565b60006110bb602683610ddd565b91506110c68261105f565b604082019050919050565b600060208201905081810360008301526110ea816110ae565b905091905056fea26469706673582212207326fee8f67ec070165dd873ec85bf478022712fb5d746b39601124061d8371864736f6c634300080d0033",
  "immutableReferences": {},
  "source": "//SPDX-License-Identifier: MIT\r\npragma solidity >=0.4.22 <0.9.0;\r\n\r\nimport '@openzeppelin/contracts/access/Ownable.sol';\r\nimport '@openzeppelin/contracts/token/ERC20/IERC20.sol';\r\nimport '@openzeppelin/contracts/security/ReentrancyGuard.sol';\r\n\r\n\r\ncontract Ticket is Ownable, ReentrancyGuard{\r\n  IERC20 public labInstance;\r\n  address public fundReceiver;\r\n  uint public labFee;\r\n\r\n\r\n  constructor(){\r\n  }\r\n\r\n  // Transfer All LAB to fundReceiver Adddress\r\n  function withdrawAll() external onlyOwner nonReentrant {\r\n      uint ownerBalance = labInstance.balanceOf(address(this));\r\n      labInstance.transfer(fundReceiver, ownerBalance);\r\n  }\r\n\r\n  // get Contract LAB Balance\r\n  function getContractBalance() external view returns(uint){\r\n    return labInstance.balanceOf(address(this));\r\n  }\r\n\r\n  // make a LAB payment function\r\n  function transferLabFee() external {\r\n    require(labInstance.balanceOf(msg.sender) > labFee, \"Ticket: Insufficient LAB Balance!\");\r\n    labInstance.transferFrom(msg.sender, address(this), labFee);\r\n  }\r\n\r\n\r\n  // update value functions\r\n  function changeLabFee(uint _labFee) external onlyOwner {\r\n    labFee = _labFee;\r\n  }\r\n  // update value functions\r\n  function changeFundReceiverWallet(address newOwner) external onlyOwner{\r\n    fundReceiver = newOwner;\r\n  }\r\n  // update value functions\r\n  function changeTokenInstance(IERC20 _labInstance) external onlyOwner{\r\n    labInstance = _labInstance;\r\n  }\r\n}\r\n",
  "sourcePath": "C:\\Users\\Gaaaaab\\Desktop\\PROJECTS\\LAB\\lab-launchpad\\contracts\\TicketContract.sol",
  "compiler": {
    "name": "solc",
    "version": "0.8.13+commit.abaa5c0e.Emscripten.clang"
  },
  "schemaVersion": "3.4.7",
  "updatedAt": "2022-04-23T13:20:32.309Z",
  "networkType": "ethereum",
  "devdoc": {
    "kind": "dev",
    "methods": {
      "owner()": {
        "details": "Returns the address of the current owner."
      },
      "renounceOwnership()": {
        "details": "Leaves the contract without owner. It will not be possible to call `onlyOwner` functions anymore. Can only be called by the current owner. NOTE: Renouncing ownership will leave the contract without an owner, thereby removing any functionality that is only available to the owner."
      },
      "transferOwnership(address)": {
        "details": "Transfers ownership of the contract to a new account (`newOwner`). Can only be called by the current owner."
      }
    },
    "version": 1
  },
  "userdoc": {
    "kind": "user",
    "methods": {},
    "version": 1
  }
}