{
  "contractName": "Ticket",
  "abi": [
    {
      "inputs": [
        {
          "internalType": "contract IERC20",
          "name": "_labInstance",
          "type": "address"
        }
      ],
      "stateMutability": "nonpayable",
      "type": "constructor"
    },
    {
      "anonymous": false,
      "inputs": [
        {
          "indexed": true,
          "internalType": "address",
          "name": "previousOwner",
          "type": "address"
        },
        {
          "indexed": true,
          "internalType": "address",
          "name": "newOwner",
          "type": "address"
        }
      ],
      "name": "OwnershipTransferred",
      "type": "event"
    },
    {
      "inputs": [],
      "name": "labInstance",
      "outputs": [
        {
          "internalType": "contract IERC20",
          "name": "",
          "type": "address"
        }
      ],
      "stateMutability": "view",
      "type": "function",
      "constant": true
    },
    {
      "inputs": [],
      "name": "owner",
      "outputs": [
        {
          "internalType": "address",
          "name": "",
          "type": "address"
        }
      ],
      "stateMutability": "view",
      "type": "function",
      "constant": true
    },
    {
      "inputs": [],
      "name": "ownerWallets",
      "outputs": [
        {
          "internalType": "address",
          "name": "",
          "type": "address"
        }
      ],
      "stateMutability": "view",
      "type": "function",
      "constant": true
    },
    {
      "inputs": [],
      "name": "renounceOwnership",
      "outputs": [],
      "stateMutability": "nonpayable",
      "type": "function"
    },
    {
      "inputs": [
        {
          "internalType": "address",
          "name": "newOwner",
          "type": "address"
        }
      ],
      "name": "transferOwnership",
      "outputs": [],
      "stateMutability": "nonpayable",
      "type": "function"
    },
    {
      "inputs": [],
      "name": "withdrawAll",
      "outputs": [],
      "stateMutability": "nonpayable",
      "type": "function"
    },
    {
      "inputs": [
        {
          "internalType": "address",
          "name": "newOwner",
          "type": "address"
        }
      ],
      "name": "changeOwnerWallet",
      "outputs": [],
      "stateMutability": "nonpayable",
      "type": "function"
    }
  ],
  "bytecode": "0x608060405234801561001057600080fd5b50604051610cd1380380610cd18339818101604052810190610032919061023d565b61006061004c6100fc640100000000026401000000009004565b610104640100000000026401000000009004565b80600160006101000a81548173ffffffffffffffffffffffffffffffffffffffff021916908373ffffffffffffffffffffffffffffffffffffffff16021790555073937c68270ab59cfcfc3b39115246eb0030aa9233600260006101000a81548173ffffffffffffffffffffffffffffffffffffffff021916908373ffffffffffffffffffffffffffffffffffffffff1602179055505061026a565b600033905090565b60008060009054906101000a900473ffffffffffffffffffffffffffffffffffffffff169050816000806101000a81548173ffffffffffffffffffffffffffffffffffffffff021916908373ffffffffffffffffffffffffffffffffffffffff1602179055508173ffffffffffffffffffffffffffffffffffffffff168173ffffffffffffffffffffffffffffffffffffffff167f8be0079c531659141344cd1fd0a4f28419497f9722a3daafe3b4186f6b6457e060405160405180910390a35050565b600080fd5b600073ffffffffffffffffffffffffffffffffffffffff82169050919050565b60006101f8826101cd565b9050919050565b600061020a826101ed565b9050919050565b61021a816101ff565b811461022557600080fd5b50565b60008151905061023781610211565b92915050565b600060208284031215610253576102526101c8565b5b600061026184828501610228565b91505092915050565b610a58806102796000396000f3fe608060405234801561001057600080fd5b506004361061009a576000357c010000000000000000000000000000000000000000000000000000000090048063853828b611610078578063853828b6146100e35780638da5cb5b146100ed578063c2205a541461010b578063f2fde38b146101295761009a565b806318117abb1461009f578063232e3f3d146100bb578063715018a6146100d9575b600080fd5b6100b960048036038101906100b49190610742565b610145565b005b6100c3610205565b6040516100d091906107ce565b60405180910390f35b6100e161022b565b005b6100eb6102b3565b005b6100f56104cd565b60405161010291906107f8565b60405180910390f35b6101136104f6565b60405161012091906107f8565b60405180910390f35b610143600480360381019061013e9190610742565b61051c565b005b61014d610613565b73ffffffffffffffffffffffffffffffffffffffff1661016b6104cd565b73ffffffffffffffffffffffffffffffffffffffff16146101c1576040517f08c379a00000000000000000000000000000000000000000000000000000000081526004016101b890610870565b60405180910390fd5b80600260006101000a81548173ffffffffffffffffffffffffffffffffffffffff021916908373ffffffffffffffffffffffffffffffffffffffff16021790555050565b600160009054906101000a900473ffffffffffffffffffffffffffffffffffffffff1681565b610233610613565b73ffffffffffffffffffffffffffffffffffffffff166102516104cd565b73ffffffffffffffffffffffffffffffffffffffff16146102a7576040517f08c379a000000000000000000000000000000000000000000000000000000000815260040161029e90610870565b60405180910390fd5b6102b1600061061b565b565b6102bb610613565b73ffffffffffffffffffffffffffffffffffffffff166102d96104cd565b73ffffffffffffffffffffffffffffffffffffffff161461032f576040517f08c379a000000000000000000000000000000000000000000000000000000000815260040161032690610870565b60405180910390fd5b6000600160009054906101000a900473ffffffffffffffffffffffffffffffffffffffff1673ffffffffffffffffffffffffffffffffffffffff166370a08231306040518263ffffffff167c01000000000000000000000000000000000000000000000000000000000281526004016103a891906107f8565b602060405180830381865afa1580156103c5573d6000803e3d6000fd5b505050506040513d601f19601f820116820180604052508101906103e991906108c6565b9050600160009054906101000a900473ffffffffffffffffffffffffffffffffffffffff1673ffffffffffffffffffffffffffffffffffffffff1663a9059cbb600260009054906101000a900473ffffffffffffffffffffffffffffffffffffffff16836040518363ffffffff167c0100000000000000000000000000000000000000000000000000000000028152600401610486929190610902565b6020604051808303816000875af11580156104a5573d6000803e3d6000fd5b505050506040513d601f19601f820116820180604052508101906104c99190610963565b5050565b60008060009054906101000a900473ffffffffffffffffffffffffffffffffffffffff16905090565b600260009054906101000a900473ffffffffffffffffffffffffffffffffffffffff1681565b610524610613565b73ffffffffffffffffffffffffffffffffffffffff166105426104cd565b73ffffffffffffffffffffffffffffffffffffffff1614610598576040517f08c379a000000000000000000000000000000000000000000000000000000000815260040161058f90610870565b60405180910390fd5b600073ffffffffffffffffffffffffffffffffffffffff168173ffffffffffffffffffffffffffffffffffffffff1603610607576040517f08c379a00000000000000000000000000000000000000000000000000000000081526004016105fe90610a02565b60405180910390fd5b6106108161061b565b50565b600033905090565b60008060009054906101000a900473ffffffffffffffffffffffffffffffffffffffff169050816000806101000a81548173ffffffffffffffffffffffffffffffffffffffff021916908373ffffffffffffffffffffffffffffffffffffffff1602179055508173ffffffffffffffffffffffffffffffffffffffff168173ffffffffffffffffffffffffffffffffffffffff167f8be0079c531659141344cd1fd0a4f28419497f9722a3daafe3b4186f6b6457e060405160405180910390a35050565b600080fd5b600073ffffffffffffffffffffffffffffffffffffffff82169050919050565b600061070f826106e4565b9050919050565b61071f81610704565b811461072a57600080fd5b50565b60008135905061073c81610716565b92915050565b600060208284031215610758576107576106df565b5b60006107668482850161072d565b91505092915050565b6000819050919050565b600061079461078f61078a846106e4565b61076f565b6106e4565b9050919050565b60006107a682610779565b9050919050565b60006107b88261079b565b9050919050565b6107c8816107ad565b82525050565b60006020820190506107e360008301846107bf565b92915050565b6107f281610704565b82525050565b600060208201905061080d60008301846107e9565b92915050565b600082825260208201905092915050565b7f4f776e61626c653a2063616c6c6572206973206e6f7420746865206f776e6572600082015250565b600061085a602083610813565b915061086582610824565b602082019050919050565b600060208201905081810360008301526108898161084d565b9050919050565b6000819050919050565b6108a381610890565b81146108ae57600080fd5b50565b6000815190506108c08161089a565b92915050565b6000602082840312156108dc576108db6106df565b5b60006108ea848285016108b1565b91505092915050565b6108fc81610890565b82525050565b600060408201905061091760008301856107e9565b61092460208301846108f3565b9392505050565b60008115159050919050565b6109408161092b565b811461094b57600080fd5b50565b60008151905061095d81610937565b92915050565b600060208284031215610979576109786106df565b5b60006109878482850161094e565b91505092915050565b7f4f776e61626c653a206e6577206f776e657220697320746865207a65726f206160008201527f6464726573730000000000000000000000000000000000000000000000000000602082015250565b60006109ec602683610813565b91506109f782610990565b604082019050919050565b60006020820190508181036000830152610a1b816109df565b905091905056fea264697066735822122037ebde0b528999a66cac98dcf66f2630dd9d6c98da014c6ec1680f583c303c4964736f6c634300080d0033",
  "immutableReferences": {},
  "source": "//SPDX-License-Identifier: MIT\r\npragma solidity >=0.4.22 <0.9.0;\r\n\r\nimport '@openzeppelin/contracts/access/Ownable.sol';\r\nimport '@openzeppelin/contracts/token/ERC20/IERC20.sol';\r\n\r\ncontract Ticket is Ownable{\r\n  IERC20 public labInstance;\r\n  address public ownerWallets;\r\n\r\n\r\n  constructor(IERC20 _labInstance) public{\r\n    labInstance = _labInstance;\r\n    ownerWallets = 0x937c68270aB59cfCFc3b39115246eB0030aA9233;\r\n  }\r\n\r\n    function withdrawAll() external onlyOwner{\r\n      uint ownerBalance = labInstance.balanceOf(address(this));\r\n      labInstance.transfer(ownerWallets, ownerBalance);\r\n  }\r\n\r\n  // function getOwnerWallet() external view returns(address){\r\n  //   return ownerWallet;\r\n  // }\r\n\r\n  function changeOwnerWallet(address newOwner) external onlyOwner{\r\n    ownerWallets = newOwner;\r\n  }\r\n\r\n}\r\n",
  "sourcePath": "C:\\Users\\Gaaaaab\\Desktop\\PROJECTS\\LAB\\lab-launchpad\\contracts\\TicketContract.sol",
  "compiler": {
    "name": "solc",
    "version": "0.8.13+commit.abaa5c0e.Emscripten.clang"
  },
  "schemaVersion": "3.4.7",
  "updatedAt": "2022-04-19T09:37:01.154Z",
  "networkType": "ethereum",
  "devdoc": {
    "kind": "dev",
    "methods": {
      "owner()": {
        "details": "Returns the address of the current owner."
      },
      "renounceOwnership()": {
        "details": "Leaves the contract without owner. It will not be possible to call `onlyOwner` functions anymore. Can only be called by the current owner. NOTE: Renouncing ownership will leave the contract without an owner, thereby removing any functionality that is only available to the owner."
      },
      "transferOwnership(address)": {
        "details": "Transfers ownership of the contract to a new account (`newOwner`). Can only be called by the current owner."
      }
    },
    "version": 1
  },
  "userdoc": {
    "kind": "user",
    "methods": {},
    "version": 1
  }
}