{
  "contractName": "Ticket",
  "abi": [
    {
      "inputs": [],
      "stateMutability": "nonpayable",
      "type": "constructor"
    },
    {
      "anonymous": false,
      "inputs": [
        {
          "indexed": false,
          "internalType": "address",
          "name": "_from",
          "type": "address"
        },
        {
          "indexed": false,
          "internalType": "uint256",
          "name": "_amount",
          "type": "uint256"
        }
      ],
      "name": "TransferReceived",
      "type": "event"
    },
    {
      "anonymous": false,
      "inputs": [
        {
          "indexed": false,
          "internalType": "address",
          "name": "_from",
          "type": "address"
        },
        {
          "indexed": false,
          "internalType": "address",
          "name": "_destAddr",
          "type": "address"
        },
        {
          "indexed": false,
          "internalType": "uint256",
          "name": "_amount",
          "type": "uint256"
        }
      ],
      "name": "TransferSent",
      "type": "event"
    },
    {
      "inputs": [],
      "name": "balance",
      "outputs": [
        {
          "internalType": "uint256",
          "name": "",
          "type": "uint256"
        }
      ],
      "stateMutability": "view",
      "type": "function",
      "constant": true
    },
    {
      "inputs": [],
      "name": "owner",
      "outputs": [
        {
          "internalType": "address",
          "name": "",
          "type": "address"
        }
      ],
      "stateMutability": "view",
      "type": "function",
      "constant": true
    },
    {
      "stateMutability": "payable",
      "type": "receive",
      "payable": true
    },
    {
      "inputs": [
        {
          "internalType": "uint256",
          "name": "amount",
          "type": "uint256"
        },
        {
          "internalType": "address payable",
          "name": "destAddr",
          "type": "address"
        }
      ],
      "name": "withdraw",
      "outputs": [],
      "stateMutability": "nonpayable",
      "type": "function"
    },
    {
      "inputs": [
        {
          "internalType": "contract IERC20",
          "name": "token",
          "type": "address"
        },
        {
          "internalType": "address",
          "name": "to",
          "type": "address"
        },
        {
          "internalType": "uint256",
          "name": "amount",
          "type": "uint256"
        }
      ],
      "name": "ERC20",
      "outputs": [],
      "stateMutability": "nonpayable",
      "type": "function"
    }
  ],
  "bytecode": "0x608060405234801561001057600080fd5b50336000806101000a81548173ffffffffffffffffffffffffffffffffffffffff021916908373ffffffffffffffffffffffffffffffffffffffff160217905550610b91806100606000396000f3fe60806040526004361061005f576000357c010000000000000000000000000000000000000000000000000000000090048062f714ce146100bd5780638da5cb5b146100e6578063b69ef8a814610111578063e34c40ee1461013c576100b8565b366100b85734600160008282546100769190610581565b925050819055507ff1b03f708b9c39f453fe3f0cef84164c7d6f7df836df0796e1e9c2bce6ee397e33346040516100ae929190610627565b60405180910390a1005b600080fd5b3480156100c957600080fd5b506100e460048036038101906100df91906106bf565b610165565b005b3480156100f257600080fd5b506100fb6102d7565b60405161010891906106ff565b60405180910390f35b34801561011d57600080fd5b506101266102fb565b604051610133919061071a565b60405180910390f35b34801561014857600080fd5b50610163600480360381019061015e919061079f565b610301565b005b60008054906101000a900473ffffffffffffffffffffffffffffffffffffffff1673ffffffffffffffffffffffffffffffffffffffff163373ffffffffffffffffffffffffffffffffffffffff16146101f3576040517f08c379a00000000000000000000000000000000000000000000000000000000081526004016101ea9061084f565b60405180910390fd5b600154821115610238576040517f08c379a000000000000000000000000000000000000000000000000000000000815260040161022f906108bb565b60405180910390fd5b8073ffffffffffffffffffffffffffffffffffffffff166108fc839081150290604051600060405180830381858888f1935050505015801561027e573d6000803e3d6000fd5b50816001600082825461029191906108db565b925050819055507ffda3a3e0e1479b43cb1c701f7576187f4c4ad80768d627387e00184302f7d88e3382846040516102cb9392919061096e565b60405180910390a15050565b60008054906101000a900473ffffffffffffffffffffffffffffffffffffffff1681565b60015481565b60008054906101000a900473ffffffffffffffffffffffffffffffffffffffff1673ffffffffffffffffffffffffffffffffffffffff163373ffffffffffffffffffffffffffffffffffffffff161461038f576040517f08c379a0000000000000000000000000000000000000000000000000000000008152600401610386906109f1565b60405180910390fd5b60008373ffffffffffffffffffffffffffffffffffffffff166370a08231306040518263ffffffff167c01000000000000000000000000000000000000000000000000000000000281526004016103e691906106ff565b602060405180830381865afa158015610403573d6000803e3d6000fd5b505050506040513d601f19601f820116820180604052508101906104279190610a26565b90508082111561046c576040517f08c379a000000000000000000000000000000000000000000000000000000000815260040161046390610a9f565b60405180910390fd5b8373ffffffffffffffffffffffffffffffffffffffff1663a9059cbb84846040518363ffffffff167c01000000000000000000000000000000000000000000000000000000000281526004016104c3929190610627565b6020604051808303816000875af11580156104e2573d6000803e3d6000fd5b505050506040513d601f19601f820116820180604052508101906105069190610af7565b507ffda3a3e0e1479b43cb1c701f7576187f4c4ad80768d627387e00184302f7d88e33848460405161053a93929190610b24565b60405180910390a150505050565b6000819050919050565b7f4e487b7100000000000000000000000000000000000000000000000000000000600052601160045260246000fd5b600061058c82610548565b915061059783610548565b9250827fffffffffffffffffffffffffffffffffffffffffffffffffffffffffffffffff038211156105cc576105cb610552565b5b828201905092915050565b600073ffffffffffffffffffffffffffffffffffffffff82169050919050565b6000610602826105d7565b9050919050565b610612816105f7565b82525050565b61062181610548565b82525050565b600060408201905061063c6000830185610609565b6106496020830184610618565b9392505050565b600080fd5b61065e81610548565b811461066957600080fd5b50565b60008135905061067b81610655565b92915050565b600061068c826105d7565b9050919050565b61069c81610681565b81146106a757600080fd5b50565b6000813590506106b981610693565b92915050565b600080604083850312156106d6576106d5610650565b5b60006106e48582860161066c565b92505060206106f5858286016106aa565b9150509250929050565b60006020820190506107146000830184610609565b92915050565b600060208201905061072f6000830184610618565b92915050565b6000610740826105f7565b9050919050565b61075081610735565b811461075b57600080fd5b50565b60008135905061076d81610747565b92915050565b61077c816105f7565b811461078757600080fd5b50565b60008135905061079981610773565b92915050565b6000806000606084860312156107b8576107b7610650565b5b60006107c68682870161075e565b93505060206107d78682870161078a565b92505060406107e88682870161066c565b9150509250925092565b600082825260208201905092915050565b7f4f6e6c79206f776e65722063616e2077697468647261772066756e6473000000600082015250565b6000610839601d836107f2565b915061084482610803565b602082019050919050565b600060208201905081810360008301526108688161082c565b9050919050565b7f496e73756666696369656e742066756e64730000000000000000000000000000600082015250565b60006108a56012836107f2565b91506108b08261086f565b602082019050919050565b600060208201905081810360008301526108d481610898565b9050919050565b60006108e682610548565b91506108f183610548565b92508282101561090457610903610552565b5b828203905092915050565b6000819050919050565b600061093461092f61092a846105d7565b61090f565b6105d7565b9050919050565b600061094682610919565b9050919050565b60006109588261093b565b9050919050565b6109688161094d565b82525050565b60006060820190506109836000830186610609565b610990602083018561095f565b61099d6040830184610618565b949350505050565b7f4f6e6c79206f776e65722063616e20776974686461772066756e647300000000600082015250565b60006109db601c836107f2565b91506109e6826109a5565b602082019050919050565b60006020820190508181036000830152610a0a816109ce565b9050919050565b600081519050610a2081610655565b92915050565b600060208284031215610a3c57610a3b610650565b5b6000610a4a84828501610a11565b91505092915050565b7f62616c616e6365206973206c6f77000000000000000000000000000000000000600082015250565b6000610a89600e836107f2565b9150610a9482610a53565b602082019050919050565b60006020820190508181036000830152610ab881610a7c565b9050919050565b60008115159050919050565b610ad481610abf565b8114610adf57600080fd5b50565b600081519050610af181610acb565b92915050565b600060208284031215610b0d57610b0c610650565b5b6000610b1b84828501610ae2565b91505092915050565b6000606082019050610b396000830186610609565b610b466020830185610609565b610b536040830184610618565b94935050505056fea2646970667358221220d9fc396b8f7a0ecec1a8c502ac8dc7ff1dddd8b29b556abcb284e319eefcb8b864736f6c634300080d0033",
  "immutableReferences": {},
  "source": "//SPDX-License-Identifier: MIT\r\npragma solidity >=0.4.22 <0.9.0;\r\n\r\nimport '@openzeppelin/contracts/token/ERC20/IERC20.sol';\r\nimport '@openzeppelin/contracts/token/ERC20/utils/SafeERC20.sol';\r\n\r\n\r\ncontract Ticket {\r\n  address public owner;\r\n  uint256 public balance;\r\n\r\n  event TransferReceived(address _from, uint _amount);\r\n  event TransferSent(address _from, address _destAddr, uint _amount);\r\n\r\n  constructor(){\r\n    owner = msg.sender;\r\n  }\r\n\r\n  receive() payable external {\r\n    balance += msg.value;\r\n    emit TransferReceived(msg.sender, msg.value);\r\n  }\r\n\r\n  function withdraw(uint amount, address payable destAddr) public {\r\n    require(msg.sender == owner, \"Only owner can withdraw funds\");\r\n    require(amount <= balance, \"Insufficient funds\");\r\n\r\n    destAddr.transfer(amount);\r\n    balance -= amount;\r\n    emit TransferSent(msg.sender, destAddr, amount);\r\n  }\r\n\r\n  function ERC20(IERC20 token, address to, uint256 amount) public {\r\n    require(msg.sender == owner, \"Only owner can withdaw funds\");\r\n    uint256 erc20balance = token.balanceOf(address(this));\r\n    require(amount <= erc20balance, \"balance is low\");\r\n    token.transfer(to, amount);\r\n    emit TransferSent(msg.sender, to, amount);\r\n  }\r\n}\r\n",
  "sourcePath": "C:\\Users\\Gaaaaab\\Desktop\\PROJECTS\\LAB\\lab-launchpad\\contracts\\TicketContract.sol",
  "compiler": {
    "name": "solc",
    "version": "0.8.13+commit.abaa5c0e.Emscripten.clang"
  },
  "schemaVersion": "3.4.7",
  "updatedAt": "2022-04-18T22:58:23.323Z",
  "networkType": "ethereum",
  "devdoc": {
    "kind": "dev",
    "methods": {},
    "version": 1
  },
  "userdoc": {
    "kind": "user",
    "methods": {},
    "version": 1
  }
}